:100000000C9412020C9459020C9459020C94A717E8
:100010000C9459020C9459020C9459020C945902F4
:100020000C9459020C9459020C949B280C946F293F
:100030000C9491230C9459020C9459020C9459027B
:100040000C9459020C9459020C9459020C945902C4
:100050000C9459020C9404240C9459020C945902E7
:100060000C9459020C9459020C9459020C945902A4
:100070000C9459020C9459020C9459020C94590294
:100080000C9459020C9459020C9459020C94590284
:100090000C9459020C9459020C9459020C94590274
:1000A0000C9459020C9459020C9459022900140022
:1000B0001A000800150017002B00040016000700A6
:1000C00009000A00E1001D001B00060019000500E0
:1000D000000000000000E000280001512A00130089
:1000E00012000C0018001C00340033000F000E003A
:1000F0000D000B00E500380037003600100011003D
:10010000000000000000E6002C00025129001E0241
:100110001F022002210222022B00F300F200F10054
:1001200003000000E10000000000000000000000EB
:10013000000000000000E0002C0001002A0027025F
:1001400026002500240023020000000023002200D6
:10015000210000000000000020001F001E002700FA
:10016000000000000000E600280003512B001E02E2
:100170001F02200221022202E00050005100520022
:100180004F000000E100000000000000000000003F
:10019000000000000000E3002C0003512A002702A9
:1001A00026022502240223023500310030002F00F0
:1001B0002E002D003502310230022F022E022D02B8
:1001C000000000000000E60028000100005C0000C4
:1001D0000000000000000000C35CC65CC85CCA5C94
:1001E00000000000C45CC75CC95CCB5C0000000080
:1001F000000000000000E3002C00010000000000EF
:1002000000000000000000000000000000000100ED
:1002100000000200000000000000000000000000DC
:10022000000000000000E6002800010000010101BC
:1002300001010101010102020202020202020203A3
:100240000303030303030304040404040404050573
:100250000505050606060606070707070708080836
:1002600008090909090A0A0A0B0B0B0C0C0C0D0DE5
:100270000D0E0E0E0F0F0F1010111111121213137D
:100280001414151516161717181819191A1A1B1BF6
:100290001C1D1D1E1E1F2020212222232424252652
:1002A00026272829292A2B2C2D2D2E2F303132328A
:1002B000333435363738393A3B3C3D3E3F40414296
:1002C000434445464748494A4C4D4E4F505153547C
:1002D000555658595A5B5D5E5F6162646566686930
:1002E0006B6C6D6F7072737577787A7B7D7E8082B0
:1002F000838587888A8C8E8F91939596989A9C9EF9
:10030000A0A2A3A5A7A9ABADAFB1B3B5B7BABCBE08
:10031000C0C2C4C6C9CBCDCFD1D4D6D8DBDDDFE2D5
:10032000E4E7E9EBEEF0F3F5F8FAFDFF0C03430028
:100330006F0072006E0065000000100366006F0021
:100340006F007300740061006E0000000403090474
:1003500009023B00020100A0FA09040000010301A8
:100360000100092111010001224000070581030855
:10037000000A090401000103010200092111010022
:10038000012247000705820308000A12011001003C
:1003900000000853460100010001020001050109A7
:1003A00002A1010901A1000509190129081500256B
:1003B0000195087501810205010930093115812572
:1003C0007F95027508810609381581257F9501758D
:1003D000088106050C0A38021581257F95017508EC
:1003E0008106C0C005010906A101050719E029E73A
:1003F0001500250195087501810295017508810197
:100400000507190029FF150026FF009506750881CC
:1004100000050819012905950575019102950175D9
:10042000039101C011241FBECFEFDAE0DEBFCDBFC4
:1004300004B603FE27C080910B0490910C04A09198
:100440000D04B0910E048730904BA740B04BD1F40F
:1004500010920B0410920C0410920D0410920E04D2
:1004600014BE84B7877F84BF0FB6F894A895809197
:100470006000886180936000109260000FBEE0E031
:10048000F8E3099512E0A0E0B1E0EEE1FAE502C080
:1004900005900D92A431B107D9F724E0A4E1B2E0B0
:1004A00001C01D92AB30B207E1F70E94D7250C9432
:1004B000D92C0C940000CF93DF9300D000D00F9282
:1004C000CDB7DEB719828A836B834C832D8324E6F4
:1004D00030E045E050E0BE016F5F7F4F84E10E9455
:1004E00001160F900F900F900F900F90DF91CF910A
:1004F0000895CF93DF93282F261B330BE901249F08
:10050000C001259F900D349F900D1124829FB00152
:10051000839F700D929F700D1124072E000C880B85
:10052000990B0E946B2B20910001309101014091A9
:100530000201509103010E94CF2B0E94332B9B019B
:10054000D7FF04C022273327261B370BC901DF91B1
:10055000CF910895DC01FB01808191818038910564
:100560004CF08FE78C93808191818F579109918313
:100570008083089581382FEF92073CF481E88C93B3
:100580008081918181589F4FF2CF8C93118210828C
:100590000895DF92EF92FF920F931F93CF93DF9313
:1005A00000D000D00F92CDB7DEB78C017B010E9446
:1005B0006B04D82E8823F1F0015F11090830110572
:1005C000C8F40E94FD093A834B835C836D8341E04C
:1005D00050E001C0440F0A95EAF7F70182818823B1
:1005E000B9F0422B5A816B817C818D810E941D0A5A
:1005F0000E94C7098D2D0F900F900F900F900F90B4
:10060000DF91CF911F910F91FF90EF90DF900895B0
:1006100040954223E7CF80932302089520E040E0F5
:1006200060E080E80C945B02EF92FF920F931F93BF
:10063000CF93DF93CDB7DEB72A970FB6F894DEBF1E
:100640000FBECDBF7E0126E0E20EF11C85E0F70172
:1006500011928A95E9F78091190290911A020E94ED
:10066000D923893E9340D0F104E610E025E030E044
:10067000A70164E084E10E942816892B09F096C046
:100680008A85811189C080911802811127C06985EE
:1006900088850E811F8190912302992309F45DC002
:1006A00041E050E00E94790220911D0230911E022B
:1006B000820F931F90931E0280931D0241E050E031
:1006C000602F812F0E94790220911B0230911C0221
:1006D000820F931F90931C0280931B02809116023D
:1006E000909117020E94D923069710F010921802D9
:1006F0000E94FD0929833A834B835C836D8361E209
:1007000072E0CE0102960E94AA026FE172E0CE0171
:1007100003960E94AA026DE172E0CE0105960E9446
:10072000AA026BE172E0CE0104960E94AA024981FE
:100730005A816B817C818D810E941D0A0E94C709AC
:100740002A960FB6F894DEBF0FBECDBFDF91CF91D2
:100750001F910F91FF90EF90089545E050E00E94A7
:1007600079022091210230912202281B390B30930B
:1007700022022093210245E050E0602F812F0E9449
:10078000790220911F0230912002281B390B3093EF
:10079000200220931F02A2CF81E0809318020E94C2
:1007A000C123909317028093160298CF0E94C12311
:1007B00090931A028093190291CF81E00E946A11EE
:1007C0000C943E2380E00E946A110C9485230C94C3
:1007D000281580912502209124029091D6019F3FF7
:1007E00039F08F3F29F02F3F19F09FEF9093D601FA
:1007F0009091D6019F3F89F48F3F89F0211121C04C
:10080000815F80932502209126024091240260910D
:1008100025028091D6010C945B028F3F41F4211197
:1008200006C0992351F09F509093D601ECCF9111BF
:1008300008C02F3FD1F08F3F81F4215F2093240225
:10084000E2CF2F3F51F4882321F09111DCCF8F505C
:10085000D8CF9F3F41F0915FE7CF8111D4CF2223C2
:1008600091F29F3F81F62F50E9CF8823A1F3EFCF7C
:1008700080912502882319F08F5080932502809162
:10088000D601882319F08F508093D60180912402DD
:10089000882319F08F5080932402209126024091E2
:1008A0002402609125028091D6010C945B02809114
:1008B00026028F3F69F0815F8093260220912602F5
:1008C00040912402609125028091D6010C945B0234
:1008D00010922602F3CF8730910558F4FC01E552BF
:1008E000F34DDB0112969C910C94782C91110E948F
:1008F000E90381E008959923E1F30E945704F9CFB9
:100900009923B9F30E943804F4CF81E0911101C01A
:1009100080E00E940B03EDCF81EF992339F00E9414
:10092000B519E7CF82EFF9CF83EFF7CF0E94E01937
:10093000E0CFCF92DF92EF92FF926B017C0160914A
:10094000EC027091ED028091EE029091EF020E9414
:100950008A058130A1F0882359F08230A9F08330D4
:10096000C1F0C701B601FF90EF90DF90CF900895DE
:1009700020E04BE860E08BE80E945B02F2CF20E0D1
:100980004BE861E288E2F8CF20E045E161E281E0F6
:10099000F3CF20E04FE467E28BEAEECF81E00895E9
:1009A00008950C94D0041F93CF93DF9300D000D010
:1009B0000F92CDB7DEB749835A836B83309195028E
:1009C00089819A8131111DC06623B9F02223A9F0D3
:1009D0000E94CC20182F682F89819A810E9475204F
:1009E00069817A81812F0F900F900F900F900F9057
:1009F000DF91CF911F910C94E6050E94A320182F40
:100A0000EFCF0E94CC2069817A81EDCFFC01262FA7
:100A1000408151816281738184810C94D304CF938E
:100A2000DF93EC0160E00E940605BE01DF91CF91EB
:100A30000C94D1040E94A8070E940E110C94CD07BB
:100A40000C94D00708950E94591C0E9422052FEF94
:100A500084E39CE0215080409040E1F700C000001A
:100A60000C9486240F931F93CF93DF938C0161E046
:100A70000E940605EC01B8010E94C9028823D9F141
:100A8000B801CE010E9489138823A9F1B801CE01D3
:100A90000E94DB13882379F1B801CE010E94FE1475
:100AA000882349F1B801CE010E947812882319F1F8
:100AB000F8018281882361F0CB35FDE5DF0721F164
:100AC00070F4C115ECE5DE07A1F0CF3DDC45C9F0BF
:100AD000C801DF91CF911F910F910C94CE04CC35BA
:100AE0008DE5D807A1F0CD35DD4591F70E94732142
:100AF000EFCF0E94230580E0DF91CF911F910F91EE
:100B000008950E94D922F7CF0E947C21E1CF0E9454
:100B10007F21DECFCF92DF92EF92FF926C01EE2425
:100B2000FF2420E0C114D104E104F10419F0C7014D
:100B3000B60120E1C72ED82EE92EFF24C114D1041E
:100B4000E104F10419F0285FC701B6016B017C01D3
:100B500054E0F694E794D794C7945A95D1F7C1140A
:100B6000D104E104F10419F02C5FC701B6016B0157
:100B70007C0142E0F694E794D794C7944A95D1F764
:100B8000C114D104E104F10419F02E5FC701B601CC
:100B90009695879577956795672B682B692B09F054
:100BA0002F5F822FFF90EF90DF90CF9008950895F0
:100BB0000C94D70581E008950C94DA05CF93C82FE3
:100BC0000E94D8058C2FCF910C94DC05972F70E0F4
:100BD00026E0929F600D711D1124FB0190E3899F17
:100BE000E00DF11D1124EE0FFF1FE455FF4F85911D
:100BF00094910895CF93DF930E94E6050E94CD065D
:100C0000EC01811523E5920790F5811532E59307F4
:100C100008F096C081159042C8F4C11581E0D8074C
:100C200088F4C53AD10548F4C430D10558F4C13030
:100C3000D10541F0D0E0C0E005C0CE01805E910951
:100C40000897C0F7CE01DF91CF910895C11591E5C6
:100C5000D90708F070C0C11520E5D20708F04EC0D2
:100C6000C11530E4D30730F3DF70D06AEBCF8115C4
:100C700046E59407F0F4C11585E5D80708F075C07E
:100C8000C11594E5D90708F06BC0CE018370992790
:100C900021E030E002C0220F331F8A95E2F7C695AB
:100CA000C69590E2C99FE0011124C22BD32BDA68CC
:100CB000C9CF81152AE5920778F4811539E59307A4
:100CC00008F05EC0811548E5940708F4B3CFD82F2B
:100CD000CC27C06FD06AB6CF90568115904208F0ED
:100CE000A9CF8D2F8F710E94640790E0982F8827DD
:100CF00088279F719C012C2BE90140C0CE01E4E0C4
:100D000096958795EA95E1F783702C2F2695269581
:100D1000237040E2249F90011124382B8C2F837084
:100D2000C1E0D0E002C0CC0FDD1F8A95E2F7C22BF4
:100D3000D32BDC6887CFDC2FCC27C16FD06A82CF62
:100D40008370992721E030E002C0220F331F8A957B
:100D5000E2F7C695C69580E2C89FE0011124E7CF6F
:100D6000DC2FCC27C46FD06A6DCF8C2F0E94640714
:100D7000C82FD0E0DC2FCC27CC27DF71D06262CF28
:100D80008F700E94640734E0D695C7953A95E1F7D5
:100D9000CF709C2FEC01D06955CF82389105B1F10D
:100DA000B0F48133910509F475C048F48932910596
:100DB00009F469C08A32910509F473C00895853336
:100DC000910509F459C08933910501F10895833ED5
:100DD0009105A9F138F4803E9105F9F0823E910524
:100DE00049F10895863E9105A9F1873E9105C9F123
:100DF000843E910519F520910E0321FF1FC08091BB
:100E00000D0384FD14C087EE90E0089520910D033A
:100E10002370A1F080EE90E0089520910D0320FD55
:100E200047C030910E0330FF09C024FF44C090E05A
:100E300080E004C020910D0322FDF7CF089520919A
:100E40000D0322FD3BC030910E0330FDE3CF24FFA4
:100E5000F5CFEDCF20910D0323FFF0CF24FDE7CF99
:100E6000D2CF20910D0323FD2CC030910E0331FF12
:100E7000EECF84EE90E0089520910D0325FFDECFA4
:100E800089E290E0089520910D0325FFD7CF85E3F7
:100E900090E0089520910D0326FFD0CF8AE290E0E4
:100EA000089520910D0326FFC9CF81E390E00895B6
:100EB00089E390E0089583EE90E0089582EE90E05B
:100EC000089586EE90E0089590910D0392FF06C07C
:100ED000282F28712830F9F4877F846093FF06C09B
:100EE000282F28712831F1F4877E846120910E0328
:100EF00020FF06C0382F38713830D9F4877F8160E1
:100F000021FF06C0282F28712831D1F4877E816106
:100F100094FD877E0895282F24712430F9F68B7F65
:100F20008860DCCF282F2471243101F78B7E886103
:100F3000DDCF382F3171313019F78E7F8860E0CFE7
:100F4000282F2171213121F78E7E8861E1CF08950C
:100F50000E943422811102C00E94D9220E943F22A5
:100F6000809301030E94472290930E0380930D0308
:100F70000E94A7070E944322682F70E090E080E063
:100F80000E94791F6091EC027091ED028091EE0257
:100F90009091EF020C94B11F08950C94CC07089522
:100FA0000C94CF07E82FF0E0E95EFC4F80810895B4
:100FB000089580EA8A95F1F7089500C008950C9489
:100FC000D907F894E82FE295EF70F0E031A1282FCF
:100FD0002F7081E090E001C0880F2A95EAF7982FE2
:100FE0009095932391A392A1892B82A3789408953D
:100FF00008950C94F8070E9478098091D701809198
:10100000D70194E0811190E09093200384E0891B44
:1010100080931F0384E90E94E10786E60E94E107AE
:1010200087E90E94E10786EC0E94E10784EF0E94B5
:10103000E10785EF0E94E10786EF0E94E10787EF55
:101040000E94E10781E30E94E10783E30E94E10738
:10105000EFE0F3E0A7E1B3E087E193E011921D92A6
:101060008E179F07D9F784E00E9427090E941A056E
:101070000C9482091F93CF93DF9300D000D0CDB79B
:10108000DEB70E946009182F60912003882309F4BD
:101090004FC019821A821B821C82862F90E0BE01EB
:1010A0006F5F7F4F895E9C4F0E948316811120C025
:1010B000809127028F5F809327028630B8F1E091FC
:1010C0001F03F0E0E95EFC4FDE011196CE010596AC
:1010D00011921D92A817B907D9F70E942005812FF8
:1010E0000F900F900F900F90DF91CF911F91089567
:1010F00010922702A0911F03B0E0A95EBC4FBE0171
:101100006F5F7F4F9E012B5F3F4F10E04D91FB01C2
:101110009191BF01491731F0AD0141505109FA01D8
:101120009083182F6217730789F7D7CF10E0D5CFB8
:1011300070E0695E7C4F80911F0390E0895E9C4F58
:101140000E94C2160E94F907CACFCF92DF92EF9297
:10115000FF920F931F93CF93DF930CEF11E08FE07B
:10116000E82E83E0F82EC0E0CC24C394D12CF80103
:1011700081918F01F894E82FE295EF70F0E021A1C2
:101180008F70A60102C0440F551F8A95E2F7CA016D
:10119000922F982B91A392A18095892382A3789472
:1011A0000E94DD07E6EFF1E030E020E0D0E0419181
:1011B000A42FA295AF70B0E090968C9190E04F7004
:1011C00002C0959587954A95E2F780FD3CC08C2D2D
:1011D000022E01C0880F0A94EAF7D82B2F5F3F4FE9
:1011E0002630310521F7F801319780810E94E1070F
:1011F0000E94DF07F7018081D81739F1D08381E0A1
:10120000C82BFFEFEF1AFF0A42E00030140709F085
:10121000AECF6091200370E0695E7C4F2C2F44E0DC
:101220008FE093E00E9428090E943A08C11101C092
:10123000C82F8C2FDF91CF911F910F91FF90EF90CE
:10124000DF90CF90089580E0C8CF80E0D9CF089597
:10125000FF920F931F93CF93DF93F82E092F162F32
:10126000D72FC42F222349F081E080932A020E94C5
:10127000C123909329028093280280912A02882317
:10128000A1F080912802909129020E94D92306970B
:1012900060F0EF2DF02FA12FBD2FCE0FDF2FD11D2E
:1012A000EC17FD0741F410922A02DF91CF911F91B4
:1012B0000F91FF90089581918D93F2CF0C94DB22D2
:1012C00080912B02811107C00E94262B882351F0A8
:1012D00081E080932B0281E090912B02913009F004
:1012E00080E0089582E080932B020E94212BF3CFAF
:1012F0000E945E098093D7010E94600981110C94BD
:10130000771608950E946009811102C00C947D1621
:101310000895EF92FF920F931F93CF93DF93CDB772
:10132000DEB72A970FB6F894DEBF0FBECDBF6B8332
:101330007C838D83088719872A874E1119C055230E
:1013400011F0F51215C08B81882319F09885981338
:101350000FC08D81882319F09A85981309C09C814C
:10136000992321F081E02985291303C080E001C081
:1013700081E081702A960FB6F894DEBF0FBECDBF14
:10138000DF91CF911F910F91FF90EF900895EF9211
:10139000FF920F931F93E0902C02F0902D0200918A
:1013A0002E0210912F022091300240913102509173
:1013B00032026091330270913402809135020E94B2
:1013C0008909882321F081E392E00E94621810923B
:1013D000320210923302109234021092350285E0EC
:1013E000E1E3F2E0ACE2B2E001900D928A95E1F720
:1013F0001F910F91FF90EF900895CF93DF9300D04E
:1014000000D00F92CDB7DEB785E0E1E3F2E0DE0178
:10141000119601900D928A95E1F729813A814B81CD
:101420005C816D8170E080E090E00F900F900F90F4
:101430000F900F90DF91CF910895CF93DF9300D05D
:1014400000D00F92CDB7DEB749835A836B837C837C
:101450008D8385E0FE013196A1E3B2E001900D920B
:101460008A95E1F70F900F900F900F900F90DF91FA
:10147000CF910895EF92FF920F931F93CF93DF9335
:10148000EB01E82FD11110C0442321F0F0E0E45D1E
:10149000FD4FE4916E2F7E2F8E2FDF91CF911F9104
:1014A0000F91FF90EF9008950D2F10E0282F30E05E
:1014B000442329F0245D3D4FF901249130E0F6E00A
:1014C000CF9FC0011124EFEFF0E0BF010E94642C18
:1014D000AB018C2F90E0880F991FA5E5A49FB00168
:1014E000A59F700D1124861B970B982F990F980FAD
:1014F000BF01601B710B629FD001639FB00D729F93
:10150000B00D11248B2F9D9FB0011124672F7727D9
:10151000EF01C61BD70BBE01629FE001639FD00D98
:10152000729FD00D11247F01E91AF108E09EB001ED
:10153000E19E700DF09E700D1124672F7727E61B3A
:10154000F70BE29F8001E39F100DF29F100D112415
:10155000E12F722F4230510599F048F441155105A1
:1015600069F04130510581F0EB2F8D2F07C04430D9
:10157000510569F080F046305105B1F76E2F8DCFDF
:10158000E22F7B2F812FFACFE22F7D2FF7CFEB2F8A
:10159000822F712FF3CF7B2F822FED2FEFCF41E0E2
:1015A0000C943A0A30E020E0869F212D969F200D72
:1015B000311D1124C9010895AC018230910508F450
:1015C00008959FEF413E8EE1580740F49A0195E05F
:1015D000369527959A95E1F798E0920F61E0E62F0E
:1015E000E90FFF27FF1F9F0135952795822F229F27
:1015F000F001239FF00DF00D11244E175F0738F412
:101600009FEF920F961758F78FEF860F08952F3F91
:10161000E9F361E0620FF6CFE82F86FDE0952E2F0B
:101620002F7086FD2F5FE695E695E695E670F0E073
:10163000EC5FFD4F9181929F902D212D1124929569
:101640009F702295207F922B2081920F87FD91958C
:1016500080E8890F08950F931F9310E0F801EE0FB3
:10166000FF1FEC5CFE4F9081905797FD9195000F06
:10167000111FF801EC5FFE4F01A90052110B20036E
:10168000F001219FF00D112408E310E0091B11095E
:1016900097FD139540039001419F300D1124E20FF7
:1016A000F31F9F01220F331F2E0F3F1F37FF02C072
:1016B00021583F4F220F232F221F330B620F1F9100
:1016C0000F9108950F931F93CF93DF938B01D82F22
:1016D000C42F822F0E940C0BEC2FF0E0EE0FFF1FA7
:1016E000EC5CFE4F90819058890F87FD8195880FA3
:1016F000682F2CE0629F612D1124600F712F8D2FB8
:10170000DF91CF911F910F910895E42FF0E0EE0F3C
:10171000FF1FEC5CFE4F9081921B97FD9195292F46
:1017200038E1239F212D1124620F0895EF92FF923B
:101730000F93970195E0099F200D311D11242F3F34
:10174000310519F010F02FEF30E02095382F320FCF
:1017500008F43FEF832F0F91FF90EF9008950C94C2
:10176000CF0A46E050E06CE170E081E293E00C9437
:10177000872C46E050E06CE170E081E293E00C944D
:10178000A52CE1E2F3E085E080838091F301909164
:10179000F401A091F50181839283A3838FE7848371
:1017A0008FEF85830C94B90B80E008950F931F93FE
:1017B000CF93DF93C82FD62F8A010E94D40B96E0D7
:1017C000C99FB00111246C5F7E4F6D0F711DFB012D
:1017D00090819F3F29F0F801E80FF11D90838F5F02
:1017E000DF91CF911F910F910895E0911202F09136
:1017F00013020994FF920F931F93CF93DF93EC0191
:10180000162F042FF22E0E945E09811112C0CB31D7
:10181000D1057CF0E0910E02F0910F022F2D402FA8
:10182000612FCE014B97DF91CF911F910F91FF90C8
:1018300009940E945E09882361F0CB31D1054CF4F4
:10184000E0910E02F0910F022F2D402F612FCE015B
:10185000EACFDF91CF911F910F91FF900895BF9232
:10186000CF92DF92EF92FF920F931F93CF93DF936C
:101870007C018B01FC01C0818BE0C89FC02D11242D
:101880009BE0D92EDC0ECD2CF6E3FD1510F486E39B
:10189000C82E609125036695669521E0620F08F4D5
:1018A0006FEF80912703909128030E94D20AB82EEF
:1018B000D0E0CC1578F081E095E39D1508F480E048
:1018C000DF91CF911F910F91FF90EF90DF90CF901C
:1018D000BF900895FE01E056FE4F8081F70191818F
:1018E000892391F060912203709123038091240356
:1018F0002B2D4C2FF80109950E94AF0B462F282F56
:10190000672FCE010E94FA0B2196D3CF62E67BE0CF
:101910000C942F0C65E87BE00C942F0C7F928F9237
:101920009F92AF92BF92CF92DF92EF92FF920F936E
:101930001F93CF93DF935C016B01FC01C0818BE0AF
:10194000C89FC02D11241BE01C0F912E173310F0DF
:1019500036E3932E60912503669566958091270363
:10196000909128030E94D20AF82E80E48F0D0E94E5
:101970000C0B90E8892E880E8F2D0E940C0B20E80E
:10198000722E780ED0E0C91590F081E0163308F081
:1019900080E0DF91CF911F910F91FF90EF90DF904A
:1019A000CF90BF90AF909F908F907F900895FE0151
:1019B000E056FE4F8081F50191818923A1F060916D
:1019C00022037091230380912403EF2C0C2F272DE9
:1019D000482DF60109950E94AF0B462F282F672F3F
:1019E000CE010E94FA0B2196CECF6BE27BE00C94E5
:1019F0008E0C2F923F924F925F926F927F928F92B6
:101A00009F92AF92BF92CF92DF92EF92FF920F938D
:101A10001F93CF93DF93CDB7DEB72B970FB6F89414
:101A2000DEBF0FBECDBF8C832B015F834E83FB01D6
:101A3000F0818BE0F89F802D11248983855F8A8354
:101A40008B83873310F026E32B8330912B033D8368
:101A50009981892F90E09B878A87880F991FFC01C5
:101A6000EC5FFE4F6F01FC818F2F90E09C012F5F98
:101A70003F4F39872887EB81FA85FE17F0F081E028
:101A80002A81263308F080E02B960FB6F894DEBF4B
:101A90000FBECDBFDF91CF911F910F91FF90EF90BF
:101AA000DF90CF90BF90AF909F908F907F906F907E
:101AB0005F904F903F902F900895EA85FB85E05608
:101AC000FE4F8081F2019181892301F12090220350
:101AD0003090230328853985255D3C4F39013C81B1
:101AE000398310E029813D812317C8F02091240318
:101AF000129F112D1124B101812F0E94AF0B462F8F
:101B0000282F672F8A859B850E94FA0B8A859B85E3
:101B100001969B878A8792E0C90ED11CACCFF30156
:101B200081913F01F601A0A8A81ABB0881A8F30182
:101B30008781881A9908AA9C9001AB9C300D300DC2
:101B40001124889CC001899C900D900D1124820F56
:101B5000931F0E94DC0A082F6091250321E0620F89
:101B600008F46FEFF301EE0FFF1FEB52F34085898E
:101B700096890E94D20A7C019401A501B101812FAE
:101B8000EE81FF8109951B01F981FF5FF983182F11
:101B9000A9CF20912B0331E0231B08F420E046E974
:101BA0005BE0BC01822F0C94F90CBF92CF92DF92C4
:101BB000EF92FF920F931F93CF93DF937C01FC0171
:101BC000C0818BE0C89FC02D11241BE01C0F012F8A
:101BD000173308F006E3609122037091230380918C
:101BE00024030E94AF0BD62EC72EB82ED0E0C0170C
:101BF00070F081E0163308F080E0DF91CF911F9103
:101C00000F91FF90EF90DF90CF90BF900895FE016D
:101C1000E056FE4F8081F7019181892331F02B2D11
:101C20004D2D6C2DCE010E94FA0B2196E0CFBF9274
:101C3000CF92DF92EF92FF920F931F93CF93DF9398
:101C40007C01FC01C0818BE0C89FC02D11241BE0EA
:101C50001C0FD12E173310F096E3D92EC09023031A
:101C6000B09024032091250300E4029F012D11244C
:101C7000D0E0CD1570F081E0163308F080E0DF9100
:101C8000CF911F910F91FF90EF90DF90CF90BF9079
:101C90000895FE01E056FE4F8081F701918189236E
:101CA000B9F0FE01EE0FFF1FEC5FFE4F81A9829598
:101CB0008F7060912203809F600D11247C2D8B2DED
:101CC0000E94AF0B462F282F672FCE010E94FA0BE0
:101CD0002196CFCFBF92CF92DF92EF92FF920F93D8
:101CE0001F93CF93DF938C01FC01C0818BE0C89FD1
:101CF000C02D11245BE0F52EFC0EDF2CF6E3FF1562
:101D000010F446E3D42EC0902303B0902403209116
:101D1000250330E4E32E3E2D329F312D1124E32E96
:101D2000D0E0CD1578F081E035E33F1508F480E090
:101D3000DF91CF911F910F91FF90EF90DF90CF90A7
:101D4000BF900895FE01E056FE4F8081F801918119
:101D50008923D9F0FE01EE0FFF1FEC5FFE4F60A953
:101D6000E69EB001112495E0759567959A95E1F787
:101D700080912203680F7C2D8B2D0E94AF0B462F84
:101D8000282F672FCE010E94FA0B2196CACFBF924F
:101D9000CF92DF92EF92FF920F931F93CF93DF9337
:101DA0007C01FC01C0818BE0C89FC02D11241BE089
:101DB0001C0F012F173308F006E3C0902303D090C7
:101DC0002403D0912203609125036695669566955C
:101DD00080912703909128030E94D20A0E940C0B45
:101DE000805887FD8195880F682F2CE0629F612DB8
:101DF00011246D0F7C2D8D2D0E94CF0AD62EC72E5B
:101E0000B82ED0E0C01770F081E0163308F080E003
:101E1000DF91CF911F910F91FF90EF90DF90CF90C6
:101E2000BF900895FE01E056FE4F8081F701918139
:101E3000892331F02B2D4D2D6C2DCE010E94FA0BF4
:101E40002196E0CFFF920F931F93CF93DF93182F2C
:101E5000062FF42ED0E0C0E02F2D402F612FCE01B1
:101E60000E94FA0B2196C633D105B1F7DF91CF91CD
:101E70001F910F91FF900895CF92DF92EF92FF9202
:101E80000F931F93CF93DF93CDB7DEB728970FB68D
:101E9000F894DEBF0FBECDBFF12C442331F0AE016C
:101EA0004F5F5F4F0E94D60BF82EE09036020F2D49
:101EB00010E0C8018E0D911D099764F188E090E053
:101EC0006C01C01AD10AB801695C7D4FA60187E395
:101ED00092E00E947E2CB801615C7D4FA6018FE3E9
:101EE00092E00E947E2CA601440F551FB801660F98
:101EF000771F615B7D4F8FE492E00E947E2CB801DA
:101F0000695B7D4FA60187E492E00E947E2CEA94F3
:101F1000E092360210913602DE01119640E0842FE5
:101F2000810FF41211C08093360228960FB6F894F0
:101F3000DEBF0FBECDBFDF91CF911F910F91FF90FC
:101F4000EF90DF90CF9008955D91252F30E090E0E5
:101F5000BC016A5C7D4FF901EE0FFF1FEC5CFE4F88
:101F60000081FB010183220F331FF901EC5FFE4F5B
:101F700021A9FB012187518B880F991FFC01EA5C85
:101F8000FD4F128E118E4F5FCACF089508950E94A3
:101F9000C50F0C94C60F08950895CF93DF93FC01ED
:101FA000C0818BE0C89FC02D1124D5EFDC0FC73353
:101FB00008F0C6E36C2F8D2F0E94CB0F6C2F8D2F56
:101FC000DF91CF910C94CC0F4F925F926F927F92E2
:101FD0008F929F92AF92BF92CF92DF92EF92FF9239
:101FE000CF9360915F027091600280916102909145
:101FF00062020E9469246B017C010E944E244B0105
:102000005C0180925F0290926002A0926102B092A5
:102010006202A0913602E6E3F2E08A2F90E04FEFF1
:102020005FEF60E070E04C195D096E097F09A9134C
:102030002AC08093360280916302C0E0811108C0FB
:1020400080912103C82FC37019F0C82FC695C6957B
:102050008091D801813009F440C0882339F1823061
:1020600009F4BEC0833009F4C6C0CF91FF90EF9051
:10207000DF90CF90BF90AF909F908F907F906F90A8
:102080005F904F900895218D328D2901712C612C24
:10209000441555056605770520F481509F5F3296FB
:1020A000C6CF2C0D3D1D328F218FF8CF1092D90154
:1020B0008092270390922803A0922903B0922A03CA
:1020C00089E2E6E3F2E0ABE2B3E001900D928A959B
:1020D000E1F781E08093D801C8CF8091DC01C8137B
:1020E00023C09091210393702091DD0130E081E0C5
:1020F0009217130609F480E081708093DB018091D0
:1021000026039091DA01981739F08093DA0140E0C4
:1021100060E080E00E94220FC93088F4EC2FF0E0EC
:10212000EE51F34D0C94782C81E0E6CF8091DB01E9
:10213000882359F040E060E080E00E94220F80E0B8
:1021400004C089ED91E00E94D50D9091D9019F5F67
:102150009093D901811140C082E08093D801809191
:10216000DB01811139C0CC2309F443C00E94C70FA1
:1021700089ED91E0CF91FF90EF90DF90CF90BF90ED
:10218000AF909F908F907F906F905F904F900C9446
:10219000CD0F89ED91E00E94170ED7CF89ED91E028
:1021A0000E946A0ED2CF89ED91E00E94F50CCDCF4E
:1021B00089ED91E00E94C70EC8CF89ED91E00E94A1
:1021C000860CC3CF89ED91E00E948A0CBECF89EDC9
:1021D00091E00E94C90DB9CFCC2309F446CFC6CFF8
:1021E000C093DC018091210383708093DD010E9404
:1021F000F50B83E06FCF60912703709128038091E6
:10220000290390912A030E94692460317105810598
:10221000910508F42ACF1092D80127CFE0910C0243
:10222000F0910D02099510922B038FEF9FEF909381
:102230004503809344039093470380934603909310
:1022400049038093480390934B0380934A039093F0
:102250004D0380934C0390934F0380934E039093D0
:102260005103809350039093530380935203109231
:1022700036029093500280934F02909352028093C3
:10228000510290935402809353029093560280938C
:102290005502909358028093570290935A0280936C
:1022A000590290935C0280935B0290935E0280934C
:1022B0005D020E943422811104C00E94D9220E9432
:1022C000C10B0E94B10B809121038C7F11F40C94FF
:1022D000C10B0895CF93C82F882329F040E060E018
:1022E00080E00E94220FC0936302CF9108958091F5
:1022F000630208959091210321E092279093210396
:102300001092D80181110C94B90B089581E00C94BE
:102310007A1190912103937099F0811109C0946012
:10232000909321031092D801662351F00C94B90BBD
:10233000893010F09062F4CF880F880F982BF0CF7F
:10234000089561E00C948911682F9091210396956E
:10235000969581E0890F893008F081E00C9489110D
:1023600081E00C94A411682F909121039695969585
:102370008FEF890F09F488E00C94891181E00C94A7
:10238000B31190912103937061F0809322036093C5
:102390002303453608F044E64093240321110C94AE
:1023A000B90B0895A1E2B3E01196EC911197F0E01A
:1023B000282F13964C91139712966C91CF01089683
:1023C0000C94C11181E00C94D211E1E2F3E091810F
:1023D000282F43816281E92FE850FF0BCF010C9435
:1023E000C11181E00C94E511E1E2F3E0628128E0A3
:1023F000620F08F46FEF9181282F4381892F90E0BD
:102400000C94C11181E00C94F411E1E2F3E06281DB
:1024100028E0621B08F460E09181282F4381892F16
:1024200090E00C94C11181E00C940512E1E2F3E01C
:10243000438128E0420F08F44FEF9181282F6281F9
:10244000892F90E00C94C11181E00C941612E1E206
:10245000F3E0438128E0421B08F440E09181282FFB
:102460006281892F90E00C94C11181E00C942712B5
:10247000209125033AE0230F08F42FEF2093250342
:1024800081110C94B90B089581E00C9438122091BD
:1024900025033AE0231B08F420E020932503811153
:1024A0000C94B90B089581E00C9447120895FC0137
:1024B000EE0FFF1FE80FF91FEC5AFC4F61834083BA
:1024C00022830895E4E5F3E08183608342833396B9
:1024D00093E0E63FF907C1F7089566E370E084E50D
:1024E00093E00C94F112FA01811101C0FB010994EF
:1024F0001F93CF93DF93EC01FB01128111114FC0A9
:102500000E9482218272CA3CFCE5DF0709F460C0A8
:1025100030F5C63CECE5DE0709F455C060F4C43C78
:102520009CE5D90709F443C008F048C0C33CDC452A
:10253000D9F111E034C043E152E162E072E1C83CFC
:102540009CE5D907C1F142EE51E161EF71E1C93C6F
:10255000DC4588F142E052E163E172E12CC0CE3CFF
:10256000FCE5DF07D1F1A0F443E552E164E472E158
:10257000CC3CECE5DE07F9F044E252E165E372E1C0
:10258000CD3CDC45C0F044E452E163E572E113C0A8
:10259000C73D8CE5D80718F0CE35DD4551F6812FC3
:1025A000DF91CF911F9108950E948611F8CF4EEBD5
:1025B00051E160EB71E10E947312F1CF40EB51E108
:1025C0006EEB71E1F8CF41EF51E162EE71E1F3CFD3
:1025D00045E352E164E272E1EECF81E00E94A11195
:1025E000DECF539A4BB1477F5BB15860EFB7F89499
:1025F0009B01220F331F260F371F280F391F281763
:10260000390741F4EFBF8FE594E00197F1F700C07F
:1026100000000895DC016D91CD0178E05BB9000008
:1026200000C067FF4BB9660F000000C000C000C0CB
:102630004BB900C07A9591F7E2CF0F931F93CF93D8
:10264000DF93C42FD22FFC0182818823C9F04093ED
:1026500066020E94C123909365028093640280E227
:102660008C0F883008F050C0C77081E001C0880F1F
:10267000CA95EAF7DF91CF911F910F910C94271A19
:1026800010916602141335C0809164029091650226
:102690000E94D923883C910560F5C0E2CD0F1D173B
:1026A000B9F080E2810F883040F4177081E001C0FA
:1026B000880F1A95EAF70E942E1AC83048F481E074
:1026C0009D2F977001C0880F9A95EAF70E94271AEC
:1026D000802F0E941F1AC830B8F4D77081E001C063
:1026E000880FDA95EAF7DF91CF911F910F910C9443
:1026F0002E1A80E28C0F883038F4C77081E001C058
:10270000880FCA95EAF7EFCFDF91CF911F910F9114
:1027100008950F939C01CB01243F4CE5340759F1F8
:10272000A8F4293DFCE53F0701F12A3D4CE53407BB
:10273000D1F1283D3C4591F406E221EE41EE68EDF1
:102740007CE50E941D1380E00F910895263FFCE573
:102750003F07E9F0B0F0273F3C45F9F0FC018281EA
:10276000882339F110926602EFCF07E225EE45EE9D
:1027700069ED7CE5E6CF06E221EE40EE64EF7CE514
:10278000E0CF07E225EE44EE65EF7CE5DACF06E226
:1027900021EE42EE66EF7CE5D4CF07E225EE46EE71
:1027A00067EF7CE5CECF08E221E045EE6AED7CE5FF
:1027B000C8CF81E0C9CFCF93DF93EC01FB018281C9
:1027C000882309F419C1C230FCE5DF07C0F1C63126
:1027D0009CE5D90730F09E012B5F3C45293031053F
:1027E00070F50E94472290930E0380930D03C03131
:1027F000ECE5DE0709F4CFC008F05BC0C8308CE51B
:10280000D80709F4B6C088F5C430ECE5DE0709F452
:10281000A8C0C0F4C2308CE5D80709F49CC08091F0
:102820000D038260C330DC4509F498C080910D032C
:1028300090910E030E9455220E94591C80E0DF9166
:10284000CF91089580910D038061C630ECE5DE07DD
:1028500009F484C080910D038860C730DC4508F41A
:102860007DC080910D03806279C0CC308CE5D807A3
:1028700009F489C070F480910D038C60CA30ECE5D6
:10288000DE0709F46BC008F478C080910D038E7FD9
:1028900065C0CE308CE5D80709F479C080910D036E
:1028A0008B7FCF30DC4508F459C080910D038F7EBB
:1028B00055C0CC3FECE5DE0709F457C030F5C33115
:1028C0008CE5D80709F46FC078F4C131ECE5DE0778
:1028D00009F465C0C231DC4509F0A8CF0E94591C3B
:1028E00080910D038F773AC0C5318CE5D80709F484
:1028F00062C008F476C080910E038160CB3FDC4556
:1029000009F094CF80930E0391CFC115FDE5DF0749
:1029100009F44DC088F480910E038D7FCE3F9CE575
:10292000D90781F380910E038E7FCF3FDC4550F3B2
:1029300080910E038360E6CFC230FDE5DF0709F426
:1029400059C008F444C080E0C330DD4509F06ECFC3
:102950000E94E5226BCF80910D03816080930D036F
:1029600065CF80910D038460F9CF80910E03826062
:10297000C9CF80910D038064F1CF0E94591C8091D2
:102980000D038068EBCF80910D038D7FE7CF8091A1
:102990000D03877FE3CF80910D038F7DDFCF809183
:1029A0000D038F7BDBCF80910D03837FD7CF809189
:1029B0000E038C7FA7CF80910D0382FB992790F99E
:1029C00021E0922790FB82F990FB83F9C7CF809199
:1029D0000E03982F909591708E7F892B90FB81F933
:1029E00091CF0E94591C90910D03892F97FB87F975
:1029F0008058B4CF81E0ACCF81E021CFCF93DF937B
:102A0000EB0186319C4511F50E9482219A81992320
:102A100099F08A7A91E009F490E09093670281112D
:102A200009C089E20E943C210E94C52180E0DF911B
:102A3000CF91089585E3F6CF80916702811104C09C
:102A400089E20E944321F0CF85E3FBCF81E0EFCF05
:102A50001092B9008CE08093B8000895EF92FF9235
:102A60000F931F93CF93DF93182FEB011092BC00AD
:102A700084EA8093BC000E94C1237C018091BC0049
:102A800087FF27C08091B900887F883029F0809126
:102A9000B900887F8031D9F51093BB0084E880931A
:102AA000BC000E94C1238C018091BC0087FF24C020
:102AB0002091B900287F90E080E02831B1F081E0DA
:102AC00090E0203411F490E080E091958195910997
:102AD0000CC0CF3FDC0791F20E94C1238E199F09E1
:102AE0008C179D0758F28EEF9FEFDF91CF911F91CA
:102AF0000F91FF90EF900895CF3FDC07A9F20E945D
:102B0000C123801B910B8C179D0770F2ECCF8FEFC8
:102B10009FEFEBCF0F931F93CF93DF93EB01809346
:102B2000BB0084E88093BC000E94C1238C0180918B
:102B3000BC0087FF11C02091B900287F81E090E0A0
:102B4000283211F490E080E0919581959109DF9110
:102B5000CF911F910F910895CF3FDC0741F30E9461
:102B6000C123801B910B8C179D0708F38EEF9FEFFD
:102B7000EECF0F931F93CF93DF93EC0184EC809300
:102B8000BC000E94C1238C018091BC0087FF08C05B
:102B90008091BB0090E0DF91CF911F910F9108953C
:102BA000CF3FDC0789F30E94C123801B910B8C1758
:102BB0009D0750F38EEF9FEFEECF0F931F93CF93B0
:102BC000DF93EC0184E88093BC000E94C1238C0158
:102BD0008091BC0087FF08C08091BB0090E0DF912E
:102BE000CF911F910F910895CF3FDC0789F30E9489
:102BF000C123801B910B8C179D0750F38EEF9FEF25
:102C0000EECFCF92DF92EF92FF920F931F93CF936D
:102C1000DF936B018A017901B9010E942E15E6014B
:102C20000C0D1D1DC017D10761F424E92093BC00D1
:102C3000DF91CF911F910F91FF90EF90DF90CF9098
:102C4000089597FDF2CFB70189910E948A15EACFC6
:102C5000CF92DF92EF92FF920F931F93CF93DF9368
:102C6000F82EE62EEA016901B8010E942E1597FDA3
:102C700015C0B8018E2D0E948A1597FD0FC0B801AE
:102C80008F2D81600E942E15F12CE12C21E0C21ABB
:102C9000D108EC14FD0400F597FF11C024E920933E
:102CA000BC001816190614F490E080E0DF91CF9173
:102CB0001F910F91FF90EF90DF90CF900895C80182
:102CC0000E94B91597FD04C0FE01EE0DFF1D808323
:102CD0002FEFE21AF20ADDCF97FDE0CFC8010E9484
:102CE000DD1597FDDBCFCC0DDD1D8883D7CF61E0EF
:102CF00070E08EED91E00C94581761E070E08EED7D
:102D000091E00C945F170F931F93CF93DF93D82F0D
:102D1000C92F8B010E94F917009791F5D801ED2F6B
:102D2000FC2FEC01C858DD4F28812D932191EC0137
:102D3000C759DD4F2C8301968430910591F786E0C9
:102D4000E1E2F3E0A1E7B2E001900D928A95E1F7AC
:102D50000E947711809377020E944E246E5F7F4F0E
:102D60008F4F9F4F6093690270936A0280936B024A
:102D700090936C0281E0DF91CF911F910F910895A4
:102D800080E0F9CF0F931F93CF93DF93D82FC92FF4
:102D90008B016091690270916A0280916B0290913F
:102DA0006C020E943124D801ED2FFC2F90E080E0CE
:102DB0002D91EC01C858DD4F2883EC01C759DD4F38
:102DC0002C81219301968430910591F786E0E1E70B
:102DD000F2E0A1E2B3E001900D928A95E1F78091D3
:102DE0007702DF91CF911F910F910C946A118EE1C0
:102DF0004A9B02C08150E1F74A9BFECF08955A9842
:102E000080E28A95F1F75A9A0895FC013BE03A95E1
:102E1000F1F798E020E080E031E040E14A95F1F7F9
:102E2000880F4A9B02C08160232742E04A95F1F750
:102E3000000040E14A95F1F7915079F790E19A95B9
:102E4000F1F799B132E03A95F1F7000040E14A9587
:102E5000F1F792FB992790F992272081920F9083A6
:102E60000895EF92FF920F931F93CF93DF930F92EA
:102E7000CDB7DEB719828C017C01E60EF11C0E1570
:102E80001F0561F481E09981911180E00F90DF913D
:102E9000CF911F910F91FF90EF9008950E94F71628
:102EA000CE0101960E940517F80181938F01E7CFAB
:102EB00090937D0280937C02529A5A9A089590933F
:102EC0007D0280937C0252985A9AEA9AE9E6F0E0F1
:102ED00080818F7C808308956150770B91E001C0E1
:102EE000990F6A95EAF720E031E0911108C022239A
:102EF00091F05A9A80E28A95F1F75A980895492FED
:102F0000482339F05A9A232740E24A95F1F79695DB
:102F1000ECCF5A98F9CF5A98EDCFFF920F931F93A9
:102F2000CF93DF93EC018C01060F111DC017D10761
:102F300031F4DF91CF911F910F91FF900895F99097
:102F40000E94FF1668E08F2D0E946C17EFCF1F9232
:102F50000F920FB60F9211242F933F934F935F93CD
:102F60006F937F938F939F93AF93BF93CF93DF9391
:102F7000EF93FF935A98529AC0917C02D0917D02B0
:102F80006D81662321F08E819F810E948D170E94A2
:102F9000FF1680E18A95F1F75A9852985A9A80E183
:102FA0008A95F1F76A81662309F18B819C810E94E1
:102FB0003117E881F981882311F088E001C082E0AF
:102FC00080830E94F716FF91EF91DF91CF91BF911F
:102FD000AF919F918F917F916F915F914F913F91B1
:102FE0002F910F900FBE0F901F901895E881F981D7
:102FF000E4CFCF93DF93C0917C02D0917D02F8940F
:10300000529A5A9885E08A95F1F7000052985A9A98
:1030100080E28A95F1F74A9B0CC0529A5A9AE8814D
:10302000F98181E08083789481E090E0DF91CF9115
:1030300008956D81662381F08E819F810E943117F2
:1030400081110AC0529A5A9AE881F98182E08083FC
:10305000789482E090E0EACF0E94F71680E28A95A9
:10306000F1F75A98529A80E18A95F1F76A816623BE
:1030700021F08B819C810E948D170E94FF16E881B0
:10308000F9811082789490E080E0D0CF9093830211
:10309000809382020895E0918202F091830230973A
:1030A00021F00190F081E02D099480E00895E091F5
:1030B0008202F0918302309721F00280F381E02DAB
:1030C00009940895E0918202F0918302309721F0F3
:1030D0000480F581E02D09940895209180023091BB
:1030E00081022817390771F0909381028093800242
:1030F000E0918202F0918302309721F00680F781FF
:10310000E02D0994089520917E0230917F022817C6
:10311000390771F090937F0280937E02E0918202E2
:10312000F0918302309721F00084F185E02D09941D
:1031300008950E94CD236093910270939202809330
:1031400093029093940260938D0270938E02809309
:103150008F0290939002089585B7806885BF85B7E8
:10316000806885BF0895089508950C94B3180C9451
:10317000E7030E94AC1882E392E20E94AA240E9414
:10318000B4180C94B5180C946009089508950E9421
:10319000C5180C94C6180E94B8230E9428240E94C7
:1031A000FB070E940E030C94B7189F92AF92BF9238
:1031B000CF92DF92EF92FF920F931F93CF93DF9303
:1031C000CDB7DEB72A970FB6F894DEBF0FBECDBFDE
:1031D0000E94A50881110E94991885E8A82E82E016
:1031E000B82E10E000E0902E802F0E94D207D82E3B
:1031F000F501F1905F01F81216C00F5F1F4F083004
:10320000110589F78FEF89838A831B820E94C1236E
:103210008160782F9D838C8349815A816B818D8158
:103220000E947E1932C08091010381FD0E94D8075F
:103230008F2D8D25F12CEE24E394982F9E2109F4F7
:1032400045C00E94C318DE20CC24C394D11001C015
:10325000C12C882379F0FE829F82C8860E94C123F8
:103260008160782F9A8789874E815F8168858A85FA
:103270000E947E19F801EB57FD4F8081E826E0821D
:103280004C2D6F2D892D0E943C0F0E94E40F0E944F
:1032900014030E944B18909184028917E9F00E9450
:1032A0004B18809384022A960FB6F894DEBF0FBEA7
:1032B000CDBFDF91CF911F910F91FF90EF90DF90E5
:1032C000CF90BF90AF909F900C94DE05F394EE0CDE
:1032D000F6E0FF12B2CF91CF2A960FB6F894DEBF78
:1032E0000FBECDBFDF91CF911F910F91FF90EF9057
:1032F000DF90CF90BF90AF909F900895DF92EF92B4
:10330000FF920F931F93CF93DF93CDB7DEB72B9729
:103310000FB6F894DEBF0FBECDBF7A878B87F42E31
:10332000052F162FE72ED82E61110E94A2211E8292
:103330001D827E2DEC82DD824F2D502F612F8D2D31
:103340009E812B960FB6F894DEBF0FBECDBFDF91E6
:10335000CF911F910F91FF90EF90DF900C94CF1EB3
:10336000FC01808191810C940E21CF93C82F88237A
:1033700029F18CEF8C0F813AA0F46C2F8091E6013B
:103380009091E7010E94FC22882329F08C2F0E9453
:1033900043210E94C5218C2F0E943C21CF910C9487
:1033A000C52180E28C0F883048F4C77081E001C0ED
:1033B000880FCA95EAF70E948521F0CFCF91089532
:1033C000882329F19CEF980F913A20F40E94432121
:1033D0000C94C52190E2980F983050F4877091E0DA
:1033E00001C0990F8A95EAF7892F0E948B21F0CFAF
:1033F0009BE5980F933020F490E080E00C946D18DA
:10340000885A873120F490E080E00C948318089566
:103410001F93CF93DF93182FEB010E94B5192097CC
:1034200031F4812FDF91CF911F910C94E0198FE936
:103430009FE00197F1F700C000002197F0CF70E006
:1034400060E0893311F460E570E00C94081A882379
:1034500021F00E9485210C94C5210895882321F034
:103460000E948B210C94C5210895BF92CF92DF92C8
:10347000EF92FF920F931F93CF93DF937C01D62F90
:10348000C72FFC010281158112951F700E945A21DD
:10349000D82E8823A1F0D02E002389F08C2F807F96
:1034A000803429F080E28D0FD12C883040F082E00A
:1034B0000E9416220E945A2191E0D82ED926CC2EA5
:1034C000C2949FE0C922FBE0FC1598F1EC2DF0E0DE
:1034D000E551F34D0C94782C1C2F1F70C07F11F018
:1034E0001295107F0023A9F0112359F080E28D0F6F
:1034F000883010F0D11109C0812F0E9485210E94CF
:10350000C5218D2F0E94B51914C0812F0E949521CD
:10351000F6CF8D2F0E94E019112359F080E28D0F14
:10352000883010F0D1112BC0812F0E948B210E9476
:10353000C521EC2DE850FF0B349720F40E944B1866
:103540000E94DE05DD2009F461C10E94562180FD44
:103550005DC1F70112820E9450210E94D91FC7014C
:103560000E94271C0E945021DF91CF911F910F9143
:10357000FF90EF90DF90CF90BF900C94FA1F812FB7
:103580000E949B21D4CF2C2F2F70B22EC07FC0322F
:1035900019F0B29480EFB822DD2339F0D13019F15F
:1035A000002361F1112321F1ACCF002381F011112F
:1035B00006C00E94A8218B290E94271ABACF113079
:1035C000C1F70E94A8218B290E94AE21B2CF111110
:1035D00006C00E94BB218B2D0E942E1AAACF11304B
:1035E00009F4A7CFF6CF002329F0163008F0A1CFB9
:1035F0008B2DE2CF153008F09CCFEDCF112359F37E
:10360000D93349F43FEF87EE93E03150804090404A
:10361000E1F700C000008D2F0E94E0198ACF8C2FA7
:10362000837009F041C0011184CF4D2F429546951A
:103630004770440F440F0D2F0F7010E030E020E072
:10364000042E04C0000F111F221F331F0A94D2F74B
:1036500060E070E0CB01D4FF0FC06FE070E080E06D
:1036600090E004C0660F771F881F991F4A95D2F714
:103670006095709580959095C695C695C370602BA2
:10368000712B822B932BC23049F058F4C13019F0C2
:103690000E948D1F4ECF0E947B1F4BCF0E949F1F09
:1036A00048CF0E94791F45CF8695002311F08C2FBB
:1036B0008170882309F43DCF4D2F42954695477080
:1036C000440F440F0D2F0F7010E030E020E0042E67
:1036D00004C0000F111F221F331F0A94D2F760E0AD
:1036E00070E0CB01D4FF0FC06FE070E080E090E0AD
:1036F00004C0660F771F881F991F4A95D2F76095FF
:10370000709580959095C695C695C370602B712B6A
:10371000822B932BC23049F058F4C13019F00E942B
:10372000502007CF0E943E2004CF0E94622001CF8C
:103730000E94B31FFECECF70002329F08C2F0E9471
:10374000D91F8D2F39CF8D2F0E942E1A8C2F0E94BA
:10375000FA1FEFCED23F89F160F4D03FC9F0D13FDC
:1037600029F1002309F442C01111CBCE8C2F8F71A7
:1037700021C0D33F39F1D43FA1F7002369F1CF71C4
:103780008C2F0E94D91F63E08C2F0E94FB21D1CE89
:10379000002341F0153008F0CCCE8C2F8F710E94A1
:1037A0001D20C7CE163008F0C4CEF7CF8C2F8F71F6
:1037B000002369F20E94D91FBCCE8C2F8F71002389
:1037C000C9F3C5CF002329F08C2F8F710E94C41F2D
:1037D000B0CE0E94BF1FADCE81E00E9416221230F3
:1037E00008F4A7CE82E00E941622A3CE112359F03E
:1037F000D93309F010CFEFEFF7EE23E0E150F040BE
:103800002040E1F706CF8C2F8F71A1CFDF91CF91B0
:103810001F910F91FF90EF90DF90CF90BF90089590
:103820000F931F93CF93DF93EC01688179818A8195
:103830000E9418218C010E9474200E94781FB801F8
:10384000CE01DF91CF911F910F910C94351ACF9338
:10385000DF93EC018B819C81892B29F088819981F0
:1038600089238F3F59F4DF91CF910895CE010E94B3
:10387000101CCE01DF91CF910C940F05CE010E9458
:1038800032058111F3CF0E945A21882361F38A8186
:10389000882349F382E0DF91CF910C9416220E9495
:1038A000A2210E94A5210C94C5210E944A210C94BA
:1038B0004F1C0E9492210C94551CE92FE295EF7049
:1038C000E250EE3070F4F0E0E950F34D0C94782CB7
:1038D000803F19F020F4883E20F481E00895843F71
:1038E000E1F380E00895883EC0F3813FD1F7F5CF42
:1038F00093FB882780F908950E940E210C945D1C8B
:10390000CF93DF9300D000D00F92CDB7DEB70F90EA
:103910000F900F900F900F90DF91CF910895CF935C
:10392000DF9300D000D000D0CDB7DEB726960FB61B
:10393000F894DEBF0FBECDBFDF91CF9108951F93E6
:10394000CF93DF93C091960216E0809197028C137B
:1039500004C0DF91CF911F910895D0E01C9FF0012A
:103960001D9FF00D1124E856FD4F40815181628169
:103970007381848195810E948F1C2196C770E5CF49
:103980004091C8025091C9026091CA027091CB0265
:103990008091CC029091CD020C948F1C1F93CF93F9
:1039A000DF938091CD02807FA9F48091CA028823A1
:1039B00089F080919602C09197026091C80270913F
:1039C000C902A091CB02B091CC02D62FD72316E02A
:1039D000C81304C0DF91CF911F91089590E0109714
:1039E00011F0DF3F19F401968770F2CF189F900114
:1039F000199F300D1124F901E856FD4F41814713FD
:103A0000F2CF40814613EFCF42814111ECCF438189
:103A100054814A1B5B0B483C510528F78091CD022D
:103A20008F7080618093CD02F901E356FD4F808154
:103A30008F708061808388EC92E00E94271CDF9168
:103A4000CF911F910C949F1CAF92BF92CF92DF92A7
:103A5000EF92FF920F931F93CF93DF93CDB7DEB713
:103A600061970FB6F894DEBF0FBECDBF8C0185E025
:103A7000F801DE011D9601900D928A95E1F7F8019B
:103A800040815181E28088ECC82E82E0D82E60917E
:103A9000CB027091CC026115710509F461C190915E
:103AA000C8022091C902892F82238F3F09F458C18F
:103AB000A380B480F090CA02F501E61BF70BFF204B
:103AC00009F4FCC08091CD02382F307FE83CF1052D
:103AD00008F0B2C0311179C0FE2C251323C0941315
:103AE00021C0E1101FC08F7080618093CD020E94C1
:103AF000C01CC6010E94271C8091CD02F80185835D
:103B00008F2D61960FB6F894DEBF0FBECDBFDF914B
:103B1000CF911F910F91FF90EF90DF90CF90BF90CA
:103B2000AF900895AB2829F0842F85238F3F09F0AB
:103B300033C180E0F82FF170DF2E80FF3CC0809110
:103B400096022091970236E0821315C04D875E875A
:103B50008D859E850E940E21292F22952F7022305F
:103B6000F0F0243018F59F70F1F0F8019581907F06
:103B7000D1F4D12C1EC090E0389FF001399FF00D98
:103B80001124E856FD4F6181651306C060816413FE
:103B900003C062816E110FC001968770D5CF9F70F0
:103BA00011F0882331F3805E883018F3C8010E9439
:103BB000271CFD2CA5CFEE2009F4A2CF8091CD02C9
:103BC00081608093CD02F12C9BCF251306C0941306
:103BD00004C0F801EE2009F48DC04D875E878D8505
:103BE0009E850E947C1C882319F1EE2009F18091AA
:103BF000CD02803270F02091C8023091C90238871E
:103C00002F831986BB86AA868C87CE0107960E94D1
:103C1000271C86E0F801A8ECB2E001900D928A958D
:103C2000E1F70E94CE1C0E94C01CFF24F39468CFD1
:103C3000C8010E94271CF9CF311113C07A2DB98A0F
:103C4000A88A6E2D89890E94801C88EC92E00E94CF
:103C5000271C86E0F60111928A95E9F70E94C01CA4
:103C6000B2CF25130FC094130DC0E1100BC0F801A3
:103C70008583C8010E94271C86E0F60111928A956F
:103C8000E9F73ECF4D875E878D859E850E947C1C1F
:103C9000882371F2EE2061F28091CD02803208F427
:103CA000B8CF2091C8023091C9023A8329831B8280
:103CB000BD82AC828E83CE010196A9CFE83CF1058E
:103CC00008F041C0FE2CEE2009F4B2CF25132AC023
:103CD000941328C08091CD0280FD1BC0982F907F47
:103CE000C1F0F8018583903F31F0982F907F905F6D
:103CF0008F70892B8583C8010E94271C86E0F801FC
:103D0000A8ECB2E001900D928A95E1F70E94C01CE8
:103D1000F7CE86E0F801A8ECB2E001900D928A950A
:103D2000E1F7EECE4D875E878D859E850E947C1CD7
:103D300081116FCF8091CD0281608093CD02C80147
:103D40000E94271CDDCE7A2DB98AA88A6E2D89891A
:103D50000E94801C86E0F60111928A95E9F7D6CF81
:103D6000EE2009F465CF4D875E878D859E850E9484
:103D70007C1CF82E882309F45BCF86E0F801A8ECC0
:103D8000B2E001900D928A95E1F788EC92E00E94F2
:103D9000B0190E94CE1CBACF81E08E25CBCE1F93E6
:103DA000CF93DF93CDB7DEB72C970FB6F894DEBF75
:103DB0000FBECDBF4F83588769877A878B879C87D3
:103DC000CE0107960E94241D882369F08A859B8571
:103DD000892B39F04F815885842F85238F3F09F037
:103DE00071C016E05FC086E0FE013796DE011196D5
:103DF00001900D928A95E1F78A859B85892B89F33D
:103E00008F81988589238F3F61F32091970230E05D
:103E1000C9010196877099274091960248171906A3
:103E200071F40E94591C109297021092960286E03B
:103E3000E8ECF2E0DF011D928A95E9F7D2CF96E037
:103E4000929FD001939FB00D1124A856BD4FFE0143
:103E5000319601900D929A95E1F7809397020E9416
:103E60009F1CBFCF819FC001112488569D4F0E9487
:103E7000241D8823E9F0E09196021E9FF001112491
:103E8000E856FD4F40815181628173818481958123
:103E90000E948F1C8091960290E00196877099276E
:103EA0008093960280919602909197028913DACFBF
:103EB0002C960FB6F894DEBF0FBECDBFDF91CF9129
:103EC0001F91089569857A858B859C850E948F1C3A
:103ED00088CF08950C94691F0E946A1F6093F002B6
:103EE0007093F1028093F2029093F3020C944F1CB2
:103EF00008950C946C1F0F931F930091F002109182
:103F0000F1022091F2023091F302602B712B822B8F
:103F1000932B1F910F910C946C1F0F931F93009183
:103F2000F0021091F1022091F2023091F30260232D
:103F30007123822393231F910F910C946C1F0F9375
:103F40001F930091F0021091F1022091F202309142
:103F5000F30260277127822793271F910F910C94FA
:103F60006C1F0C9499040E94B11F6093EC02709333
:103F7000ED028093EE029093EF020C944F1C60E0F0
:103F800070E0CB010C94B31F0F931F9341E050E0FE
:103F900060E070E08A019B0104C0000F111F221F26
:103FA000331F8A95D2F7C901B8011F910F910C9464
:103FB000B31F0F931F9341E050E060E070E004C036
:103FC000440F551F661F771F8A95D2F78091EC0228
:103FD0009091ED02A091EE02B091EF028A019B0157
:103FE000082B192B2A2B3B2BC901B8011F910F91CC
:103FF0000C94B31F0F931F9341E050E060E070E01A
:1040000004C0440F551F661F771F8A95D2F7CB0156
:10401000BA0160957095809590950091EC02109191
:10402000ED022091EE023091EF0260237123822392
:1040300093231F910F910C94B31F0F931F9341E093
:1040400050E060E070E004C0440F551F661F771F0A
:104050008A95D2F78091EC029091ED02A091EE0248
:10406000B091EF028A019B01082719272A273B27D5
:10407000C901B8011F910F910C94B31F0F931F93A7
:104080000091EC021091ED022091EE023091EF02CE
:10409000602B712B822B932B1F910F910C94B31FCC
:1040A0000F931F930091EC021091ED022091EE020C
:1040B0003091EF0260237123822393231F910F918C
:1040C0000C94B31F0F931F930091EC021091ED021B
:1040D0002091EE023091EF0260277127822793270B
:1040E0001F910F910C94B31F0895E92FEE0FE90F64
:1040F000EE0F8E0F982F977041E001C0440F9A95F4
:10410000EAF786958695869595E0899FF0011124BA
:10411000E253FD4F30E020E070E05191DF01119754
:10412000CB01022E02C0969587950A94E2F7817022
:1041300081958527842385278C932F5F3F4F2530DA
:10414000310559F70895E92FEE0FE90FEE0F8E0FA5
:10415000982F977086958695869525E0829FF00129
:104160001124E253FD4F50E040E080E0219130E027
:10417000092E02C0369527950A94E2F7217033275D
:10418000042E01C0220F0A94EAF7822B4F5F5F4F83
:104190004530510559F70895BF92CF92DF92EF92C3
:1041A000FF920F931F93CF93DF938C01C090EC028B
:1041B000D090ED02E090EE02F090EF028091F002DC
:1041C0009091F102A091F202B091F302C82AD92A8B
:1041D000EA2AFB2ACFE1D0E0BC2ED701C6010C2E83
:1041E00004C0B695A795979587950A94D2F780FD58
:1041F0000EC0219788F7B12C8B2DDF91CF911F91A5
:104200000F91FF90EF90DF90CF90BF900895B8018D
:104210008C2F0E94FA05019761F3EECFCF93DF93C5
:10422000EC010E94CC20BE01DF91CF910C94FA05E5
:104230001F93CF93DF93EB0190919502992331F077
:10424000CB01DF91CF911F910C940E21882379F03F
:10425000CB010E94CC20182F682FCE010E94752020
:10426000BE01812FDF91CF911F910C94FA05CB01F4
:104270000E94A320182FF4CF682F8091E60190911F
:10428000E7010C943223682F8091E6019091E701B9
:104290000C9434238091E6019091E7010C9436232D
:1042A0008091F40285958595859508958091F40215
:1042B000877008959091F402977081E009F480E08E
:1042C000089590910E0392FB222720F9281751F0B0
:1042D00080FB92F990930E0380910D0390910E0351
:1042E0000C945522089580910E0382FB882780F953
:1042F00091E089270C94612181E00C94612180E098
:104300000C94612180910003089590910003892B02
:1043100080930003089580959091000398239093D3
:10432000000308951092000308959091FF02892BD5
:104330008093FF02089580959091FF0298239093B7
:10434000FF0208951092FF0208951092FE02089550
:104350008091F502089508950C94AB2190910E037D
:1043600092FD08C09091F502981721F08093F50214
:104370000C94AC2108958091F502882329F01092C5
:10438000F50280E00C94AC210895E091E601F091F3
:10439000E701809100038083E091E601F091E7015D
:1043A00080819091FF02892B8083E091E601F0915A
:1043B000E70180819091FE02892B80839091F50224
:1043C000992381F0E091E601F091E7018081892B4A
:1043D00080838091E6019091E7010E94EA22811199
:1043E0000E94BB218091E6019091E7010C9457183F
:1043F00008950C94F82190910E0392FD10C098E05E
:10440000899F90011124622B6093F4020E94D91FAE
:104410008091F4028595859585950C94F9210C94ED
:10442000D91F1092F40280E00C94F9219091F402CB
:10443000809589238093F402282F277039F4282F40
:10444000082E000C330B9217130621F490910E03E3
:1044500092FF07C08595859585950E94FA1F0C945B
:104460001122089580E0089590E080E00E949F2C42
:1044700021E08A3E9E4F09F020E0822F089582E0DD
:1044800090E00C94972C83E090E00C94972CCF93C1
:1044900084E090E00E94972CC82F82E290E00E9476
:1044A000972C982F8C2FCF910895CF93C92F682FD9
:1044B00084E090E00E94B52C6C2F82E290E0CF91D6
:1044C0000C94B52CAB01BC018FE090E00C94C72C90
:1044D000AB01BC0183E190E00C94C72C60E070E07C
:1044E000CB010C94682260E070E0CB010E94622254
:1044F0000C946E226AEE7EEF90E080E00E94D32C56
:1045000060E082E090E00E94B52C60E083E090E003
:104510000E94B52C1092F0021092F1021092F20259
:104520001092F30260E084E090E00E94B52C60E01D
:1045300082E290E00E94B52C60E085E090E00E946D
:10454000B52C60E086E090E00E94B52C6FEF87E02C
:1045500090E00E94B52C40E050E0BA0188E090E085
:104560000E94C72C60E08DE090E00E94B52C40E0F6
:1045700050E0BA0188E190E00E94C72C60E087E13A
:1045800090E00E94B52C40E050E0BA018CE190E050
:104590000E94C72C70E060E080E290E00E94D32C83
:1045A00040E050E0BA0188E190E00E94C72C0C94F2
:1045B00073220C947A228EE090E00E94972C91E076
:1045C000811101C090E0892F0895682F8EE090E05E
:1045D0000C94B52C9C012E5F3F4FAC01485F5F4FA0
:1045E00080E02417350709F40895F90191919F019E
:1045F0009923B9F38F5FF5CF662349F0FC0132961A
:1046000008962191261729F0E817F907D1F780E0DD
:10461000089581E008959C01FC0132969FEF80E0AF
:104620004191461751F09F3F19F4411101C0982F55
:104630008F5F8630A9F79F3F09F40895290F311D38
:1046400097FD3A95F90162830895FC013296089628
:104650002191261303C0DF0111971C92E817F90777
:10466000B9F708950C940B230C942523029626E0A9
:10467000FC0111922A95E9F7089508950895809113
:104680000204843061F10E94DD0380E00E94DE05B7
:1046900081E00E946A111092020388E190E020E418
:1046A0000FB6F894A895809360000FBE2093600029
:1046B00083B7817F846083BF83B7816083BF789431
:1046C000889583B78E7F83BF0FB6F894A8958091A5
:1046D0006000886180936000109260000FBE0895B2
:1046E0000895CF930E943D230E94A5080E94702345
:1046F000C0E08C2F0E94D207811105C0CF5FC83067
:10470000C1F7CF91089581E0FCCF08950E94591C14
:104710000E944B180E94DE0580E00E946A110C94F2
:10472000E2031F921FB61F9211248F939F93AF93A2
:10473000BF9380910203811113C08091F603909181
:10474000F703A091F803B091F9034196A11DB11DA3
:104750008093F6039093F703A093F803B093F903C3
:10476000BF91AF919F918F911F901FBE1F90189581
:1047700082E084BD93E095BD9AEF97BD80936E0073
:1047800008952FB7F8948091F6039091F703A091C4
:10479000F803B091F9032FBF08952FB7F8946091F3
:1047A000F6037091F7038091F8039091F9032FBFFE
:1047B00008959C014FB7F8948091F6039091F70308
:1047C000A091F803B091F9034FBF821B930B08959A
:1047D000CF92DF92EF92FF922FB7F894C090F6033A
:1047E000D090F703E090F803F090F9032FBFA701F2
:1047F0009601261B370B480B590BCA01B901FF90D4
:10480000EF90DF90CF90089578941F921FB61F927B
:1048100011248F939F93AF93BF938091F603909150
:10482000F703A091F803B091F9030196A11DB11D02
:104830008093F6039093F703A093F803B093F903E2
:10484000BF91AF919F918F911F901FBE1F901895A0
:104850001092FA031092FB031092FC031092FD03D6
:104860000895CF92DF92EF92FF926B017C010E943C
:10487000600981110EC00E94CD23C61AD70AE80A2A
:10488000F90AC092FA03D092FB03E092FC03F09283
:10489000FD03FF90EF90DF90CF9008950F931F934B
:1048A0000E946009882321F01F910F910C94CD2361
:1048B0000E94CD230091FA031091FB032091FC0389
:1048C0003091FD03600F711F821F931F1F910F9185
:1048D0000895CF92DF92EF92FF926B017C010E94CC
:1048E0006009882341F0C701B601FF90EF90DF9087
:1048F000CF900C94E8230E944E246C197D098E09F8
:104900009F09FF90EF90DF90CF90089581E0809312
:10491000E00080E28093D8001092C9008FE19EE40D
:104920000197F1F700C0000087E090EBDC01809375
:104930000B0490930C04A0930D04B0930E0488E133
:104940009CE00FB6F894A895809360000FBE9093FA
:104950006000FFCF90931502809314020895809118
:104960000B03089508959C0182E08093E9009FEF76
:104970008091E800915085FD06C085ED8A95F1F79C
:1049800000009111F5CF8091E80085FF0CC050E048
:1049900040E065E070E0C9010E9490268091E80047
:1049A0008E778093E8000895CF93DF93EC0181E048
:1049B0008093E9008FEF9091E800815095FD06C04B
:1049C00095ED9A95F1F700008111F5CF8091E800FF
:1049D00085FF14C050E040E068E070E0CE010E9426
:1049E00090268091E8008E778093E80088E0FE01B1
:1049F000A3E0B3E001900D928A95E1F7DF91CF91AA
:104A00000895089580910104811109C00E94202811
:104A10000E947D288091E20084608093E2000895E6
:104A200010920104089508950895089542E061ECFC
:104A300081E00E949C2742E061EC82E00C949C277C
:104A400080910404833009F45FC030F48130C1F1F7
:104A5000823009F49BC008958A3009F487C08B30F6
:104A600009F46DC0893009F04EC080910304813291
:104A700009F049C08091070490910804892B09F03E
:104A800042C08091E800877F8093E8008091E80031
:104A900082FF35C09091F3008091F200029729F4D3
:104AA0008091F1008B7F813021F48091F10080931F
:104AB0000B038091E8008B778093E8000C94D0275B
:104AC00080910304813AF9F48091E800877F809314
:104AD000E8008091070490910804892B61F468E054
:104AE00083E093E070E00E94DF268091E8008B77FE
:104AF0008093E800089560E090E080E0F3CF80913B
:104B000002048111C3CF089580910304813AD9F73B
:104B10008091070490910804892BA9F78091E800FF
:104B2000877F8093E8008091E80080FFFCCF809130
:104B3000F2018093F1008091E8008E77BDCF8091E3
:104B40000304813201F78091070490910804892BB6
:104B5000D1F68091E800877F8093E8000E94D027FB
:104B6000809105048093F2010C94591C80910304F8
:104B7000813249F68091E800877F8093E8000E94A7
:104B8000D0278091060480930C030895809103043C
:104B9000813A09F0B8CF8091E800877F8093E800E0
:104BA0008091E80080FFFCCF80910C03C2CF84B7D6
:104BB000877F84BF0FB6F894A895809160008861C4
:104BC00080936000109260000FBE80E890E00FB606
:104BD000F89480936100909361000FBE0E94B91811
:104BE0000E9420280E947D288091E20084608093AA
:104BF000E20078940E94062B0E94CB1888EE91E088
:104C00000E94461880910204853099F00E94D518C0
:104C10000E94C718F7CF0E943F2380910004882389
:104C200041F00E947123882321F00E947A260E947D
:104C3000591C80910204853071F30E948623E6CFCF
:104C40000C942226292F33272330310519F168F4DB
:104C50002130310509F444C02230310509F445C042
:104C600090E080E030E020E025C02132310549F1BC
:104C700022323105A9F780E490E024EE33E061159B
:104C80007105C1F087E490E02DE933E061307105F2
:104C900089F0E6CF99278130910581F0009729F0BE
:104CA0000297F1F6ECE2F3E002C0ECE4F3E0849169
:104CB00090E09F01FA01318320830895EAE3F3E055
:104CC000F6CF89E090E022E633E06115710591F3BB
:104CD00089E090E02BE733E06130710559F3C0CFF4
:104CE00082E190E02BE833E0E5CF8BE390E020E534
:104CF00033E0E0CF80E189BD82E189BD09B400FEE7
:104D0000FDCF8091D8008F7D8093D8008091E00006
:104D100082608093E0008091E00081FDFCCF0895E7
:104D2000AF92BF92CF92DF92FF920F931F93CF93D8
:104D3000DF936C01EB018A010E94EF27F82E8111AD
:104D400023C00115110539F0F80180819181C81B3C
:104D5000D90BC80ED91EB12CA12C2097A9F0809197
:104D6000E80085FD22C08091E8008E778093E800FE
:104D700001151105A1F0F80180819181A80EB91EDD
:104D8000B182A08285E0F82E8F2DDF91CF911F9107
:104D90000F91FF90DF90CF90BF90AF9008950E9449
:104DA000EF278823D1F2F82EEFCFF60181916F0122
:104DB0008093F1002197FFEFAF1ABF0ACECFFC011D
:104DC0008091090490910A0486179707A0F0611555
:104DD000710529F49091E8009E779093E80090E0A7
:104DE0006115710551F4911108C08091E80082FFAE
:104DF00034C080E00895BC01F2CF80910204882382
:104E0000C1F18530C1F18091E80083FD30C080910F
:104E1000E80082FDEACF8091E80080FFE1CF809139
:104E2000F3002091F200382F6115710519F0283038
:104E3000310558F091E02830310509F090E02091DB
:104E4000E8002E772093E800CBCF81918093F1008A
:104E5000615071092F5F3F4FE7CF80910204882393
:104E600041F0853041F08091E80083FFBECF81E0C2
:104E7000089582E0089583E00895FC01809109047B
:104E800090910A0486179707A0F06115710529F41F
:104E90008091E8008E778093E80090E061157105BD
:104EA00051F4911108C08091E80082FF35C080E084
:104EB0000895BC01F2CF809102048823C9F18530A6
:104EC000C9F18091E80083FD31C08091E80082FD46
:104ED000EACF8091E80080FFE1CF8091F30020913C
:104EE000F200382F6115710519F02830310558F09E
:104EF00091E02830310509F090E08091E8008E774C
:104F00008093E800CBCF84918093F100319661507B
:104F100071092F5F3F4FE6CF80910204882341F053
:104F2000853041F08091E80083FFBDCF81E0089596
:104F300082E0089583E00895982F973028F08F70CD
:104F40008093E90081E008959093E900242F762F63
:104F500050E0981731F07091EC002091ED005091E5
:104F6000F00021FD02C09F5FE8CF3091EB003E7F53
:104F70003093EB003091ED003D7F3093ED003091A8
:104F8000EB0031603093EB007093EC002093ED0068
:104F90005093F0002091EE0027FDE5CF80E00895CA
:104FA0008091030487FF13C08091E80082FF06C050
:104FB0008091E8008B778093E80004C08091020420
:104FC0008111F2CF0895809102048823D9F3809152
:104FD000E80080FFF8CF8091E8008E77ECCF209139
:104FE000E4003091E50095E6A9012091EC00822FC4
:104FF000817020FF06C08091E80080FF06C080E03D
:1050000008952091E80022FD1AC0809102048823AF
:1050100089F0853089F08091EB0085FD0FC02091EB
:10502000E4003091E50042175307F9F29150E1F6A0
:1050300084E0089582E0089583E0089581E0089572
:105040000E948E280E949628E0EEF0E08081816028
:105050008083E8EDF0E080818F77808319BCA7ED35
:10506000B0E08C918E7F8C9380818F7E80831092B4
:10507000010408950F931F93CF93DF930E948E280E
:105080000E949628C8EDD0E088818F778883888138
:105090008068888388818F7D888319BC1092020480
:1050A0001092FE03109200041092FF0300EE10E035
:1050B000F80180818B7F808388818160888342E0D2
:1050C00060E080E00E949C27E1EEF0E080818E7F2E
:1050D0008083E2EEF0E0808181608083808188605F
:1050E0008083F80180818E7F8083888180618883BE
:1050F000DF91CF911F910F910895E8EDF0E080814D
:105100008F7E8083E7EDF0E080818160808384E0A2
:1051100082BF81E0809301040C943A28E8EDF0E02E
:1051200080818E7F80831092E20008951092DA00D1
:105130001092E10008951F920F920FB60F92112462
:105140002F933F934F935F936F937F938F939F938F
:10515000AF93BF93EF93FF938091E10082FF0BC069
:105160008091E20082FF07C08091E1008B7F8093F5
:10517000E1000E94052B8091DA0080FF19C0809128
:10518000D80080FF15C08091DA008E7F8093DA000E
:105190008091D90080FF96C080E189BD82E189BD00
:1051A00009B400FEFDCF81E0809302040E94022535
:1051B0008091E10080FF19C08091E20080FF15C05E
:1051C0008091E2008E7F8093E2008091E200806116
:1051D0008093E2008091D80080628093D80019BC4F
:1051E00085E0809302040E9414258091E10084FFF1
:1051F0002BC08091E20084FF27C080E189BD82E15D
:1052000089BD89B5982F917080FFFBCF8091D80020
:105210008F7D8093D8008091E1008F7E8093E100A4
:105220008091E2008F7E8093E2008091E2008160B5
:105230008093E2008091FE03882309F449C084E052
:10524000809302040E9415258091E10083FF29C00C
:105250008091E20083FF25C08091E100877F8093E9
:10526000E10082E0809302041092FE038091E1004D
:105270008E7F8093E1008091E2008E7F8093E20038
:105280008091E20080618093E20042E060E080E093
:105290000E949C278091F00088608093F0000E941B
:1052A0001325FF91EF91BF91AF919F918F917F91C6
:1052B0006F915F914F913F912F910F900FBE0F9083
:1052C0001F90189519BC109202040E94102570CFEF
:1052D0008091E30087FD93E090930204B3CF1F9287
:1052E0000F920FB60F9211242F933F934F935F931A
:1052F0006F937F938F939F93AF93BF93CF93DF93DE
:10530000EF93FF93D091E900DF708091EC00C82FFC
:10531000C17080FDC0E81092E9008091F000877FA5
:105320008093F00078940E94B3291092E900809154
:10533000F00088608093F000CD2BCF70C093E9001F
:10534000FF91EF91DF91CF91BF91AF919F918F919D
:105350007F916F915F914F913F912F910F900FBE71
:105360000F901F9018951F93CF93DF93CDB7DEB7A3
:10537000AA970FB6F894DEBF0FBECDBF83E094E0CE
:105380002091F100FC012193CF01F4E08B309F07C5
:10539000B9F70E9420258091E80083FF1EC180910B
:1053A0000304909104049A3008F017C1E92FF0E04B
:1053B000EB5FF24D0C94782C803899F0823809F02C
:1053C0000CC1809107048F70873008F006C180936C
:1053D000E9008091EB0085FB882780F91092E900B5
:1053E00006C08091FF03909100049111826090911A
:1053F000E800977F9093E8008093F1001092F1000D
:105400008091E8008E77E5C0882309F4D3C082300C
:1054100009F0E3C0809105048111D6C08091070492
:105420008F702FEF280F263008F0D7C08093E90047
:105430002091EB0020FFC8C0933031F48091EB0045
:1054400080628093EB00C0C09091EB0090619093DC
:10545000EB0021E030E001C0220F8A95EAF72093AB
:10546000EA001092EA008091EB008860EACF811197
:10547000B4C0109105041F778091E3008078812BE0
:105480008093E3008091E800877F8093E8000E948A
:10549000D0278091E80080FFFCCF8091E3008068F6
:1054A0008093E30082E0111183E08093020495C0B1
:1054B0008058823008F091C08091050490910604D4
:1054C0008C3D23E09207A1F583E08A838AE28983F9
:1054D0004FB7F894DE01139620E03EE051E2E32F4F
:1054E000F0E050935700E49120FF03C0E295EF7085
:1054F0003F5FEF708E2F90E0EA30C0F0C7968D933B
:105500009D932F5F243159F74FBF8091E800877F2B
:105510008093E8006AE270E0CE0101960E94DF26E7
:105520008091E8008B778093E80057C0C096E7CF62
:105530006091070470910804AE014F5F5F4F0E94B5
:105540002026BC01892B09F448C09091E800977F80
:105550009093E80089819A810E943D27E1CF8038AD
:10556000E1F58091E800877F8093E8008091FE0359
:105570008093F10045CF811130C0909105049230A5
:1055800060F58091E800877F8093E8009093FE03A8
:105590000E94D0278091FE03882311F084E005C08B
:1055A0008091E30087FDFACF81E0809302040E949E
:1055B000162513C080910504813079F481E0933081
:1055C00009F080E0809300041092E9008091E800E7
:1055D000877F8093E8000E94D0278091E80083FFB6
:1055E0000AC08091E800877F8093E8008091EB00FB
:1055F00080628093EB00AA960FB6F894DEBF0FBED0
:10560000CDBFDF91CF911F9108950895CF938091E1
:1056100002048823A1F0C091E900CF709091EC00C2
:10562000892F817090FD80E8C82B1092E90080914D
:10563000E80083FD0E94B329CF70C093E900CF91A9
:1056400008950E942028109202040895E8EDF0E0E9
:105650008081806180838AE18A95F1F700C0809122
:10566000D900817008950E943A2B6894B1110C946E
:10567000C92B08950E94AE2B88F09F5798F0B92F40
:105680009927B751B0F0E1F0660F771F881F991F77
:105690001AF0BA95C9F714C0B13091F00E94C82B26
:1056A000B1E008950C94C82B672F782F8827B85F36
:1056B00039F0B93FCCF3869577956795B395D9F7CF
:1056C0003EF490958095709561957F4F8F4F9F4FD9
:1056D0000895E89409C097FB3EF4909580957095E5
:1056E00061957F4F8F4F9F4F9923A9F0F92F96E92E
:1056F000BB279395F695879577956795B795F111A3
:10570000F8CFFAF4BB0F11F460FF1BC06F5F7F4F3F
:105710008F4F9F4F16C0882311F096E911C0772351
:1057200021F09EE8872F762F05C0662371F096E85A
:10573000862F70E060E02AF09A95660F771F881F29
:10574000DAF7880F9695879597F9089557FD905841
:10575000440F551F59F05F3F71F04795880F97FB35
:10576000991F61F09F3F79F08795089512161306EF
:105770001406551FF2CF4695F1DF08C0161617061E
:105780001806991FF1CF8695710561050894089553
:10579000E894BB2766277727CB0197F908950E94E5
:1057A000E22B0C94532C0E94452C38F00E944C2C78
:1057B00020F0952311F00C943C2C0C94422C1124D5
:1057C0000C94C92B0E94A62B70F3959FC1F3950FE3
:1057D00050E0551F629FF001729FBB27F00DB11D75
:1057E000639FAA27F00DB11DAA1F649F6627B00D05
:1057F000A11D661F829F2227B00DA11D621F739FEE
:10580000B00DA11D621F839FA00D611D221F749FFB
:105810003327A00D611D231F849F600D211D822F42
:10582000762F6A2F11249F5750409AF0F1F0882369
:105830004AF0EE0FFF1FBB1F661F771F881F915096
:105840005040A9F79E3F510580F00C943C2C0C94DD
:10585000C92B5F3FE4F3983ED4F38695779567951F
:10586000B795F795E7959F5FC1F7FE2B880F911DC0
:105870009695879597F9089597F99F6780E870E066
:1058800060E008959FEF80EC089500240A941616B6
:10589000170618060906089500240A94121613061E
:1058A000140605060895092E0394000C11F48823AC
:1058B00052F0BB0F40F4BF2B11F460FF04C06F5FC8
:1058C0007F4F8F4F9F4F0895AA1BBB1B51E107C00D
:1058D000AA1FBB1FA617B70710F0A61BB70B881F80
:1058E000991F5A95A9F780959095BC01CD0108950F
:1058F000EE0FFF1F0590F491E02D0994FB01DC01F0
:1059000002C001900D9241505040D8F70895DC013B
:10591000CB01FC01F999FECF06C0F2BDE1BDF89ABA
:10592000319600B40D9241505040B8F70895F9995E
:10593000FECF92BD81BDF89A992780B50895A8E160
:10594000B0E042E050E00C94892CDC01A40FB51FBC
:105950004150504048F0CB01840F951F2E910E947A
:10596000B62C41505040D0F70895262FF999FECF1C
:1059700092BD81BDF89A019700B4021639F01FBAA2
:1059800020BD0FB6F894FA9AF99A0FBE08950396BF
:10599000272F0E94B62C0E94B52C252F0E94B62CD2
:1059A000242F0C94B62C0196272F0E94B62C0C9411
:1059B000B52CF894FFCF76047B04800485048C0416
:1059C000920494049610A110C910CE10D310D810D0
:1059D000DD10E210E7106C1A6C1AC31AC31A991A78
:1059E000991A991A991A0F1B9B1BAA1BAA1B681CB0
:1059F000681C711C711C731C711C711C711C681C4F
:105A0000681C781C711C711C781CDC29042AED2A86
:0E5A1000042AED2A372A582AED2AAF2ABB2A8B
:105A1E000000803F181712110A09191613100B08EF
:105A2E001A15140F0C07FFFFFF0E0D0633322D2C27
:105A3E00252434312E2B262335302F2A2722FFFF03
:105A4E00FF2928215510320D1014102632305534EE
:105A5E005F3F552755155504440244134425503ACB
:105A6E003C373223320D3200210321142125102A16
:105A7E00101810070007001800298B10AE0DD01457
:105A8E00D026AE308B34813F8B278B158B049C0236
:105A9E009C139C25903AA437AE23AE0DAE00BF03E7
:105AAE00BF14BF25D02AD018D007E007E018E02990
:105ABE0002020202020201040404040404010104AD
:105ACE00040404040404040401010102020202029B
