:100000000C9424020C946B020C946B020C948F19C8
:100010000C946B020C946B020C946B020C946B02AC
:100020000C946B020C946B020C94912A0C94652B2B
:100030000C9487250C946B020C946B020C946B024D
:100040000C946B020C946B020C946B020C946B027C
:100050000C946B020C94FA250C946B020C946B02BA
:100060000C946B020C946B020C946B020C946B025C
:100070000C946B020C946B020C946B020C946B024C
:100080000C946B020C946B020C946B020C946B023C
:100090000C946B020C946B020C946B020C946B022C
:1000A0000C946B020C946B020C946B0229001400EC
:1000B0001A000800150017002B00040016000700A6
:1000C00009000A00E1001D001B00060019000500E0
:1000D000000000000000E000280001512A00130089
:1000E00012000C0018001C00340033000F000E003A
:1000F0000D000B00E500380037003600100011003D
:10010000000000000000E6002C00025129001E0241
:100110001F022002210222022B00F300F200F10054
:1001200003000000E10000000000000000000000EB
:10013000000000000000E0002C0001002A0027025F
:1001400026002500240023020000000023002200D6
:10015000210000000000000020001F001E002700FA
:10016000000000000000E600280003512B001E02E2
:100170001F02200221022202E00050005100520022
:100180004F000000E100000000000000000000003F
:10019000000000000000E3002C0003512A002702A9
:1001A00026022502240223023500310030002F00F0
:1001B0002E002D003502310230022F022E022D02B8
:1001C000000000000000E60028000100005C0000C4
:1001D0000000000000000000C35CC65CC85CCA5C94
:1001E00000000000C45CC75CC95CCB5C0000000080
:1001F000000000000000E3002C00010000000000EF
:1002000000000000000000000000000000000000EE
:1002100002000000000000000000000000000000DC
:10022000000000000000E6002800010000010101BC
:1002300001010101010102020202020202020203A3
:100240000303030303030304040404040404050573
:100250000505050606060606070707070708080836
:1002600008090909090A0A0A0B0B0B0C0C0C0D0DE5
:100270000D0E0E0E0F0F0F1010111111121213137D
:100280001414151516161717181819191A1A1B1BF6
:100290001C1D1D1E1E1F2020212222232424252652
:1002A00026272829292A2B2C2D2D2E2F303132328A
:1002B000333435363738393A3B3C3D3E3F40414296
:1002C000434445464748494A4C4D4E4F505153547C
:1002D000555658595A5B5D5E5F6162646566686930
:1002E0006B6C6D6F7072737577787A7B7D7E8082B0
:1002F000838587888A8C8E8F91939596989A9C9EF9
:10030000A0A2A3A5A7A9ABADAFB1B3B5B7BABCBE08
:10031000C0C2C4C6C9CBCDCFD1D4D6D8DBDDDFE2D5
:10032000E4E7E9EBEEF0F3F5F8FAFDFF00AE00AF1D
:1003300000DA0281FFD9F1DB20A4A62EAF00A0C015
:1003400000A1C800AED580A81FD300408D142000A6
:100350000C0343006F0072006E0065000000100384
:1003600066006F006F007300740061006E00000093
:100370000403090409023B00020100A0FA09040079
:1003800000010301010009211101000122400007C1
:1003900005810308000A09040100010301020009A4
:1003A00021110100012247000705820308000A12FB
:1003B0000110010000000853460100010001020085
:1003C0000105010902A1010901A10005091901297D
:1003D00008150025019508750181020501093009FC
:1003E000311581257F95027508810609381581250B
:1003F0007F950175088106050C0A38021581257F55
:10040000950175088106C0C005010906A10105070F
:1004100019E029E71500250195087501810295016C
:10042000750881010507190029FF150026FF0095B1
:1004300006750881000508190129059505750191C2
:1004400002950175039101C011241FBECFEFDAE0C0
:10045000DEBFCDBF04B603FE27C080914A0690914F
:100460004B06A0914C06B0914D068730904BA740AB
:10047000B04BD1F410924A0610924B0610924C06E3
:1004800010924D0614BE84B7877F84BF0FB6F894D0
:10049000A895809160008861809360001092600050
:1004A0000FBEE0E0F8E3099512E0A0E0B1E0EAE079
:1004B000FEE502C005900D92A432B107D9F726E0FF
:1004C000A4E2B2E001C01D92AA34B207E1F70E9493
:1004D000CD270C94CF2E0C940000CF93DF9300D047
:1004E00000D00F92CDB7DEB719828A836B834C831D
:1004F0002D8324E630E045E050E0BE016F5F7F4F82
:1005000084E10E94B8170F900F900F900F900F90FA
:10051000DF91CF910895CF93DF93282F261B330BC4
:10052000E901249FC001259F900D349F900D112457
:10053000829FB001839F700D929F700D1124072E32
:10054000000C880B990B0E94612D209100013091C5
:10055000010140910201509103010E94C52D0E94AA
:10056000292D9B01D7FF04C022273327261B370BD9
:10057000C901DF91CF910895DC01FB018081918158
:10058000803891054CF08FE78C93808191818F5753
:10059000910991838083089581382FEF92073CF46D
:1005A00081E88C938081918181589F4FF2CF8C9309
:1005B000118210820895FB019081882319F09160C7
:1005C000908308959E7FFCCFDF92EF92FF920F936E
:1005D0001F93CF93DF9300D000D00F92CDB7DEB73B
:1005E0008C017B010E948F04D82E8823F1F0015FDB
:1005F000110908301105C8F40E949F093A834B8302
:100600005C836D8341E050E001C0440F0A95EAF736
:10061000F70182818823B9F0422B5A816B817C815A
:100620008D810E94BF090E9469098D2D0F900F9046
:100630000F900F900F90DF91CF911F910F91FF902E
:10064000EF90DF90089540954223E7CF80933302E7
:10065000089520E040E060E080E80C946D02EF92A5
:10066000FF920F931F93CF93DF93CDB7DEB72A97F7
:100670000FB6F894DEBF0FBECDBF7E0126E0E20EBE
:10068000F11C85E0F70111928A95E9F78091290222
:1006900090912A020E94CF25893E9340D0F104E632
:1006A00010E025E030E0A70164E084E10E940C182E
:1006B000892B09F09FC08A85811192C08091280200
:1006C000811127C0698588850E811F819091330231
:1006D000992309F466C041E050E00E948B0220910A
:1006E0002D0230912E02820F931F90932E02809341
:1006F0002D0241E050E0602F812F0E948B0220915B
:100700002B0230912C02820F931F90932C02809326
:100710002B0280912602909127020E94CF250697F6
:1007200010F0109228020E949F0929833A834B837C
:100730005C836D838A85BE016F5F7F4F881F88272A
:10074000881F0E94DB0261E372E0CE0102960E94E4
:10075000BC026FE272E0CE0103960E94BC026DE221
:1007600072E0CE0105960E94BC026BE272E0CE01FF
:1007700004960E94BC0249815A816B817C818D81E3
:100780000E94BF090E9469092A960FB6F894DEBF3D
:100790000FBECDBFDF91CF911F910F91FF90EF90D2
:1007A000089545E050E00E948B0220913102309183
:1007B0003202281B390B309332022093310245E07C
:1007C00050E0602F812F0E948B0220912F023091E8
:1007D0003002281B390B3093300220932F0299CF1F
:1007E00081E0809328020E94B7259093270280938E
:1007F00026028FCF0E94B72590932A028093290268
:1008000088CF81E00E940C110C94342580E00E9476
:100810000C110C947B250C94DF16809135022091ED
:1008200034029091D6019F3F39F08F3F29F02F3F3E
:1008300019F09FEF9093D6019091D6019F3F89F4D4
:100840008F3F89F0211121C0815F80933502209173
:10085000360240913402609135028091D6010C94A9
:100860006D028F3F41F4211106C0992351F09F5032
:100870009093D601ECCF911108C02F3FD1F08F3F5C
:1008800081F4215F20933402E2CF2F3F51F488237B
:1008900021F09111DCCF8F50D8CF9F3F41F0915F75
:1008A000E7CF8111D4CF222391F29F3F81F62F50C1
:1008B000E9CF8823A1F3EFCF80913502882319F087
:1008C0008F50809335028091D601882319F08F5084
:1008D0008093D60180913402882319F08F50809341
:1008E00034022091360240913402609135028091A9
:1008F000D6010C946D02809136028F3F69F0815FC2
:100900008093360220913602409134026091350284
:100910008091D6010C946D0210923602F3CF87308D
:10092000910558F4FC01EF52F14DDB0112969C91B8
:100930000C946E2E91110E940D0481E0089599236C
:10094000E1F30E947B04F9CF9923B9F30E945C0480
:10095000F4CF81E0911101C080E00E942603EDCF29
:1009600081EF992339F00E94A91BE7CF82EFF9CFDD
:1009700083EFF7CF0E94D41BE0CF81E00895089564
:100980000C94BF041F93CF93DF9300D000D00F923D
:10099000CDB7DEB749835A836B833091CC0289810E
:1009A0009A8131111DC06623B9F02223A9F00E945B
:1009B000C222182F682F89819A810E946B22698137
:1009C0007A81812F0F900F900F900F900F90DF91F1
:1009D000CF911F910C9488050E949922182FEFCF78
:1009E0000E94C22269817A81EDCFFC01262F4081CD
:1009F00051816281738184810C94C204CF93DF930F
:100A0000EC0160E00E94F504BE01DF91CF910C94EF
:100A1000C0040E944A070E94B0100C946F070C9407
:100A2000720708950E944D1E0E9411052FEF84E366
:100A30009CE0215080409040E1F700C000000C9401
:100A40007C260F931F93CF93DF938C0161E00E946C
:100A5000F504EC01B8010E94E4028823D9F1B80141
:100A6000CE010E9440158823A9F1B801CE010E9451
:100A70009215882379F1B801CE010E94B51688231A
:100A800049F1B801CE010E941A12882319F1F80128
:100A90008281882361F0CB35FDE5DF0721F170F419
:100AA000C115ECE5DE07A1F0CF3DDC45C9F0C8017A
:100AB000DF91CF911F910F910C94BD04CC358DE542
:100AC000D807A1F0CD35DD4591F70E946923EFCF1E
:100AD0000E94120580E0DF91CF911F910F91089540
:100AE0000E94CF24F7CF0E947223E1CF0E9475238A
:100AF000DECF08950C94790581E008950C947C056F
:100B0000CF93C82F0E947A058C2FCF910C947E052D
:100B1000972F70E026E0929F600D711D1124FB015C
:100B200090E3899FE00DF11D1124EE0FFF1FE455A6
:100B3000FF4F859194910895CF93DF930E9488058C
:100B40000E946F06EC01811523E5920790F581154F
:100B500032E5930708F096C081159042C8F4C1159C
:100B600081E0D80788F4C53AD10548F4C430D105EE
:100B700058F4C130D10541F0D0E0C0E005C0CE014D
:100B8000805E91090897C0F7CE01DF91CF9108955B
:100B9000C11591E5D90708F070C0C11520E5D2074D
:100BA00008F04EC0C11530E4D30730F3DF70D06ACF
:100BB000EBCF811546E59407F0F4C11585E5D8071C
:100BC00008F075C0C11594E5D90708F06BC0CE01D7
:100BD0008370992721E030E002C0220F331F8A95ED
:100BE000E2F7C695C69590E2C99FE0011124C22B99
:100BF000D32BDA68C9CF81152AE5920778F48115DD
:100C000039E5930708F05EC0811548E5940708F4BC
:100C1000B3CFD82FCC27C06FD06AB6CF90568115EE
:100C2000904208F0A9CF8D2F8F710E94060790E0A7
:100C3000982F882788279F719C012C2BE90140C0A1
:100C4000CE01E4E096958795EA95E1F783702C2F25
:100C500026952695237040E2249F90011124382B7D
:100C60008C2F8370C1E0D0E002C0CC0FDD1F8A95CD
:100C7000E2F7C22BD32BDC6887CFDC2FCC27C16FE8
:100C8000D06A82CF8370992721E030E002C0220F22
:100C9000331F8A95E2F7C695C69580E2C89FE001AA
:100CA0001124E7CFDC2FCC27C46FD06A6DCF8C2FF7
:100CB0000E940607C82FD0E0DC2FCC27CC27DF719D
:100CC000D06262CF8F700E94060734E0D695C79538
:100CD0003A95E1F7CF709C2FEC01D06955CF82385F
:100CE0009105B1F1B0F48133910509F475C048F470
:100CF0008932910509F469C08A32910509F473C0FB
:100D000008958533910509F459C08933910501F19E
:100D10000895833E9105A9F138F4803E9105F9F0DC
:100D2000823E910549F10895863E9105A9F1873EDD
:100D30009105C9F1843E910519F52091450321FFE4
:100D40001FC08091440384FD14C087EE90E0089595
:100D5000209144032370A1F080EE90E0089520914B
:100D6000440320FD47C03091450330FF09C024FFF4
:100D700044C090E080E004C02091440322FDF7CFFE
:100D800008952091440322FD3BC03091450330FD7E
:100D9000E3CF24FFF5CFEDCF2091440323FFF0CF25
:100DA00024FDE7CFD2CF2091440323FD2CC0309106
:100DB000450331FFEECF84EE90E008952091440387
:100DC00025FFDECF89E290E008952091440325FFBE
:100DD000D7CF85E390E008952091440326FFD0CF3C
:100DE0008AE290E008952091440326FFC9CF81E371
:100DF00090E0089589E390E0089583EE90E00895EF
:100E000082EE90E0089586EE90E00895909144037C
:100E100092FF06C0282F28712830F9F4877F84605C
:100E200093FF06C0282F28712831F1F4877E846152
:100E30002091450320FF06C0382F38713830D9F48F
:100E4000877F816021FF06C0282F28712831D1F4C7
:100E5000877E816194FD877E0895282F2471243038
:100E6000F9F68B7F8860DCCF282F2471243101F7BD
:100E70008B7E8861DDCF382F3171313019F78E7F4D
:100E80008860E0CF282F2171213121F78E7E886183
:100E9000E1CF08950E942A24811102C00E94CF242C
:100EA0000E943524809338030E943D24909345038B
:100EB000809344030E9449070E943924682F70E000
:100EC00090E080E00E946D216091230370912403E3
:100ED00080912503909126030C94A72108950C94EA
:100EE0006E0708950C947107E82FF0E0E25BFC4F69
:100EF00080810895089580EA8A95F1F7089500C0E9
:100F000008950C947B07F894E82FE295EF70F0E0D9
:100F100031A1282F2F7081E090E001C0880F2A9521
:100F2000EAF7982F9095932391A392A1892B82A3FE
:100F30007894089508950C949A070E941A09809154
:100F4000D7018091D70194E0811190E090935703ED
:100F500084E0891B8093560384E90E94830786E618
:100F60000E94830787E90E94830786EC0E9483071B
:100F700084EF0E94830785EF0E94830786EF0E941B
:100F8000830787EF0E94830781E30E94830783E33F
:100F90000E948307E6E4F3E0AEE4B3E08EE493E07E
:100FA00011921D928E179F07D9F784E00E94C908FD
:100FB0000E9409050C9424091F93CF93DF9300D05E
:100FC00000D0CDB7DEB70E940209182F60915703F9
:100FD000882309F44FC019821A821B821C82862F33
:100FE00090E0BE016F5F7F4F825B9C4F0E946B1849
:100FF000811120C0809137028F5F80933702863045
:10100000B8F1E0915603F0E0E25BFC4FDE0111968F
:10101000CE01059611921D92A817B907D9F70E9423
:101020000F05812F0F900F900F900F90DF91CF91B0
:101030001F91089510923702A0915603B0E0A25B71
:10104000BC4FBE016F5F7F4F9E012B5F3F4F10E093
:101050004D91FB019191BF01491731F0AD01415014
:101060005109FA019083182F6217730789F7D7CFB8
:1010700010E0D5CF70E0625B7C4F8091560390E02A
:10108000825B9C4F0E94AA180E949B07CACFCF92F6
:10109000DF92EF92FF920F931F93CF93DF9303E0C2
:1010A00012E086E4E82E83E0F82EC0E0CC24C3945E
:1010B000D12CF80181918F01F894E82FE295EF701F
:1010C000F0E021A18F70A60102C0440F551F8A9540
:1010D000E2F7CA01922F982B91A392A180958923C0
:1010E00082A378940E947F07EDEFF1E030E020E0EA
:1010F000D0E04191A42FA295AF70B0E090968C9172
:1011000090E04F7002C0959587954A95E2F780FD73
:101110003CC08C2D022E01C0880F0A94EAF7D82B10
:101120002F5F3F4F2630310521F7F801319780813D
:101130000E9483070E948107F7018081D81739F147
:10114000D08381E0C82BFFEFEF1AFF0A42E007309F
:10115000140709F0AECF6091570370E0625B7C4FDB
:101160002C2F44E086E493E00E94CA080E94DC072A
:10117000C11101C0C82F8C2FDF91CF911F910F910A
:10118000FF90EF90DF90CF90089580E0C8CF80E08F
:10119000D9CF0895FF920F931F93CF93DF93F82E2B
:1011A000092F162FD72FC42F222349F081E08093D7
:1011B0003A020E94B72590933902809338028091B9
:1011C0003A028823A1F080913802909139020E945E
:1011D000CF25069760F0EF2DF02FA12FBD2FCE0F5A
:1011E000DF2FD11DEC17FD0741F410923A02DF9179
:1011F000CF911F910F91FF90089581918D93F2CF20
:101200000C94D12480913B02811107C00E941C2DB7
:10121000882351F081E080933B0281E090913B0272
:10122000913009F080E0089582E080933B020E94B3
:10123000172DF3CF0E9400098093D7010E94020965
:1012400081110C945F1808950E940209811102C057
:101250000C9465180895EF92FF920F931F93CF930C
:10126000DF93CDB7DEB72A970FB6F894DEBF0FBE77
:10127000CDBF6B837C838D83088719872A874E11A6
:1012800019C0552311F0F51215C08B81882319F070
:10129000988598130FC08D81882319F09A8598132B
:1012A00009C09C81992321F081E02985291303C07D
:1012B00080E001C081E081702A960FB6F894DEBF0D
:1012C0000FBECDBFDF91CF911F910F91FF90EF9097
:1012D0000895EF92FF920F931F93E0903C02F090DD
:1012E0003D0200913E0210913F0220914002409148
:1012F00041025091420260914302709144028091F8
:1013000045020E942B09882321F081E492E00E948B
:101310004A1A109242021092430210924402109212
:10132000450285E0E1E4F2E0ACE3B2E001900D9229
:101330008A95E1F71F910F91FF90EF900895CF9359
:10134000DF9300D000D00F92CDB7DEB785E0E1E4A7
:10135000F2E0DE01119601900D928A95E1F7298164
:101360003A814B815C816D8170E080E090E00F906C
:101370000F900F900F900F90DF91CF910895CF9322
:10138000DF9300D000D00F92CDB7DEB749835A83E8
:101390006B837C838D8385E0FE013196A1E4B2E00E
:1013A00001900D928A95E1F70F900F900F900F909A
:1013B0000F90DF91CF910895EF92FF920F931F93BB
:1013C000CF93DF93EB01E82FD11110C0442321F01C
:1013D000F0E0E45DFD4FE4916E2F7E2F8E2FDF91C4
:1013E000CF911F910F91FF90EF9008950D2F10E076
:1013F000282F30E0442329F0245D3D4FF90124914A
:1014000030E0F6E0CF9FC0011124EFEFF0E0BF0124
:101410000E945A2EAB018C2F90E0880F991FA5E5F2
:10142000A49FB001A59F700D1124861B970B982FC8
:10143000990F980FBF01601B710B629FD001639FD2
:10144000B00D729FB00D11248B2F9D9FB001112400
:10145000672F7727EF01C61BD70BBE01629FE00104
:10146000639FD00D729FD00D11247F01E91AF108FE
:10147000E09EB001E19E700DF09E700D1124672F6B
:101480007727E61BF70BE29F8001E39F100DF29F89
:10149000100D1124E12F722F4230510599F048F4BC
:1014A0004115510569F04130510581F0EB2F8D2F29
:1014B00007C04430510569F080F046305105B1F75E
:1014C0006E2F8DCFE22F7B2F812FFACFE22F7D2F32
:1014D000F7CFEB2F822F712FF3CF7B2F822FED2FA2
:1014E000EFCF41E00C94DC0930E020E0869F212D15
:1014F000969F200D311D1124C9010895AC01823041
:10150000910508F408959FEF413E8EE1580740F49D
:101510009A0195E0369527959A95E1F798E0920F14
:1015200061E0E62FE90FFF27FF1F9F013595279503
:10153000822F229FF001239FF00DF00D11244E17F2
:101540005F0738F49FEF920F961758F78FEF860FCB
:1015500008952F3FE9F361E0620FF6CFE82F86FD93
:10156000E0952E2F2F7086FD2F5FE695E695E69588
:10157000E670F0E0E55FFD4F9181929F902D212D67
:10158000112492959F702295207F922B2081920F9B
:1015900087FD919580E8890F08950F931F9310E0C0
:1015A000F801EE0FFF1FEC5CFE4F9081905797FD06
:1015B0009195000F111FF801EC5FFE4F01A9005239
:1015C000110B2003F001219FF00D112408E310E01E
:1015D000091B110997FD139540039001419F300DA0
:1015E0001124E20FF31F9F01220F331F2E0F3F1F05
:1015F00037FF02C021583F4F220F232F221F330BEA
:10160000620F1F910F9108950F931F93CF93DF9354
:101610008B01D82FC42F822F0E94AE0AEC2FF0E04E
:10162000EE0FFF1FEC5CFE4F90819058890F87FDF5
:101630008195880F682F2CE0629F612D1124600F27
:10164000712F8D2FDF91CF911F910F910895E42F6E
:10165000F0E0EE0FFF1FEC5CFE4F9081921B97FDB8
:101660009195292F38E1239F212D1124620F089590
:10167000EF92FF920F93970195E0099F200D311D86
:1016800011242F3F310519F010F02FEF30E0209595
:10169000382F320F08F43FEF832F0F91FF90EF9018
:1016A00008950C94710A46E050E06CE170E088E522
:1016B00093E00C947D2E46E050E06CE170E088E50C
:1016C00093E00C949B2EE8E5F3E085E08083809125
:1016D000FA019091FB01A091FC0181839283A38385
:1016E0008FE784838FEF85830C945B0B80E00895F4
:1016F0000F931F93CF93DF93C82FD62F8A010E9499
:10170000760B96E0C99FB00111246C5F7E4F6D0F80
:10171000711DFB0190819F3F29F0F801E80FF11D39
:1017200090838F5FDF91CF911F910F910895E0918A
:101730001902F0911A020994FF920F931F93CF930D
:10174000DF93EC01162F042FF22E0E940009811165
:1017500012C0CB31D1057CF0E0911502F091160258
:101760002F2D402F612FCE014B97DF91CF911F91ED
:101770000F91FF9009940E940009882361F0CB31FA
:10178000D1054CF4E0911502F09116022F2D402F57
:10179000612FCE01EACFDF91CF911F910F91FF9082
:1017A0000895BF92CF92DF92EF92FF920F931F9313
:1017B000CF93DF937C018B01FC01C0818BE0C89F3C
:1017C000C02D11249BE0D92EDC0ECD2CF6E3FD15A7
:1017D00010F486E3C82E60915C036695669521E05F
:1017E000620F08F46FEF80915E0390915F030E9497
:1017F000740AB82ED0E0CC1578F081E095E39D1501
:1018000008F480E0DF91CF911F910F91FF90EF904E
:10181000DF90CF90BF900895FE01E056FE4F80818B
:10182000F7019181892391F06091590370915A03D6
:1018300080915B032B2D4C2FF80109950E94510BD1
:10184000462F282F672FCE010E949C0B2196D3CFC5
:1018500064E07BE00C94D10B67E27BE00C94D10B4D
:101860007F928F929F92AF92BF92CF92DF92EF9230
:10187000FF920F931F93CF93DF935C016B01FC01E9
:10188000C0818BE0C89FC02D11241BE01C0F912E3E
:10189000173310F036E3932E60915C0366956695DE
:1018A00080915E0390915F030E94740AF82E80E499
:1018B0008F0D0E94AE0A90E8892E880E8F2D0E940F
:1018C000AE0A20E8722E780ED0E0C91590F081E0C3
:1018D000163308F080E0DF91CF911F910F91FF90B8
:1018E000EF90DF90CF90BF90AF909F908F907F90C0
:1018F0000895FE01E056FE4F8081F5019181892314
:10190000A1F06091590370915A0380915B03EF2C11
:101910000C2F272D482DF60109950E94510B462FBB
:10192000282F672FCE010E949C0B2196CECF6DEC05
:101930007AE00C94300C2F923F924F925F926F920C
:101940007F928F929F92AF92BF92CF92DF92EF924F
:10195000FF920F931F93CF93DF93CDB7DEB72B97F3
:101960000FB6F894DEBF0FBECDBF8C832B015F8313
:101970004E83FB01F0818BE0F89F802D1124898339
:10198000855F8A838B83873310F026E32B83309126
:1019900062033D839981892F90E09B878A87880F16
:1019A000991FFC01EC5FFE4F6F01FC818F2F90E0CF
:1019B0009C012F5F3F4F39872887EB81FA85FE17FF
:1019C000F0F081E02A81263308F080E02B960FB6F4
:1019D000F894DEBF0FBECDBFDF91CF911F910F9165
:1019E000FF90EF90DF90CF90BF90AF909F908F903F
:1019F0007F906F905F904F903F902F900895EA8571
:101A0000FB85E056FE4F8081F2019181892301F12F
:101A10002090590330905A03288539852E593C4F20
:101A200039013C81398310E029813D812317C8F0B9
:101A300020915B03129F112D1124B101812F0E946F
:101A4000510B462F282F672F8A859B850E949C0B60
:101A50008A859B8501969B878A8792E0C90ED11C57
:101A6000ACCFF30181913F01F601A0A8A81ABB08F1
:101A700081A8F3018781881A9908AA9C9001AB9CE0
:101A8000300D300D1124889CC001899C900D900D63
:101A90001124820F931F0E947E0A082F60915C031D
:101AA00021E0620F08F46FEFF301EE0FFF1FE25623
:101AB000F340858996890E94740A7C019401A501EE
:101AC000B101812FEE81FF8109951B01F981FF5F33
:101AD000F983182FA9CF2091620331E0231B08F46A
:101AE00020E048E35BE0BC01822F0C949B0CBF928A
:101AF000CF92DF92EF92FF920F931F93CF93DF93DA
:101B00007C01FC01C0818BE0C89FC02D11241BE02B
:101B10001C0F012F173308F006E3609159037091F1
:101B20005A0380915B030E94510BD62EC72EB82E0C
:101B3000D0E0C01770F081E0163308F080E0DF914C
:101B4000CF911F910F91FF90EF90DF90CF90BF90BA
:101B50000895FE01E056FE4F8081F70191818923AF
:101B600031F02B2D4D2D6C2DCE010E949C0B21961A
:101B7000E0CFBF92CF92DF92EF92FF920F931F932D
:101B8000CF93DF937C01FC01C0818BE0C89FC02D07
:101B900011241BE01C0FD12E173310F096E3D92E21
:101BA000C0905A03B0905B0320915C0300E4029F55
:101BB000012D1124D0E0CD1570F081E0163308F02E
:101BC00080E0DF91CF911F910F91FF90EF90DF9018
:101BD000CF90BF900895FE01E056FE4F8081F7013F
:101BE00091818923B9F0FE01EE0FFF1FEC5FFE4FDC
:101BF00081A982958F7060915903809F600D112497
:101C00007C2D8B2D0E94510B462F282F672FCE0144
:101C10000E949C0B2196CFCFBF92CF92DF92EF9282
:101C2000FF920F931F93CF93DF938C01FC01C08130
:101C30008BE0C89FC02D11245BE0F52EFC0EDF2C3D
:101C4000F6E3FF1510F446E3D42EC0905A03B0908B
:101C50005B0320915C0330E4E32E3E2D329F312D57
:101C60001124E32ED0E0CD1578F081E035E33F1567
:101C700008F480E0DF91CF911F910F91FF90EF90DA
:101C8000DF90CF90BF900895FE01E056FE4F808117
:101C9000F80191818923D9F0FE01EE0FFF1FEC5F5F
:101CA000FE4F60A9E69EB001112495E075956795F9
:101CB0009A95E1F780915903680F7C2D8B2D0E9436
:101CC000510B462F282F672FCE010E949C0B219687
:101CD000CACFBF92CF92DF92EF92FF920F931F93E2
:101CE000CF93DF937C01FC01C0818BE0C89FC02DA6
:101CF00011241BE01C0F012F173308F006E3C090DE
:101D00005A03D0905B03D091590360915C036695B0
:101D10006695669580915E0390915F030E94740AB8
:101D20000E94AE0A805887FD8195880F682F2CE0AD
:101D3000629F612D11246D0F7C2D8D2D0E94710AE3
:101D4000D62EC72EB82ED0E0C01770F081E0163323
:101D500008F080E0DF91CF911F910F91FF90EF90FD
:101D6000DF90CF90BF900895FE01E056FE4F808136
:101D7000F7019181892331F02B2D4D2D6C2DCE0152
:101D80000E949C0B2196E0CFFF920F931F93CF935D
:101D9000DF93182F062FF42ED0E0C0E02F2D402F18
:101DA000612FCE010E949C0B2196C633D105B1F75D
:101DB000DF91CF911F910F91FF900895CF92DF9205
:101DC000EF92FF920F931F93CF93DF93CDB7DEB7C0
:101DD00028970FB6F894DEBF0FBECDBFF12C442379
:101DE00031F0AE014F5F5F4F0E94780BF82EE0900C
:101DF00046020F2D10E0C8018E0D911D099764F168
:101E000088E090E06C01C01AD10AB801695B7D4F8F
:101E1000A60187E492E00E94742EB801615B7D4FB9
:101E2000A6018FE492E00E94742EA601440F551F74
:101E3000B801660F771F615A7D4F8FE592E00E94CF
:101E4000742EB801695A7D4FA60187E592E00E9481
:101E5000742EEA94E092460210914602DE01119639
:101E600040E0842F810FF41211C08093460228961F
:101E70000FB6F894DEBF0FBECDBFDF91CF911F919B
:101E80000F91FF90EF90DF90CF9008955D91252FF7
:101E900030E090E0BC016A5B7D4FF901EE0FFF1F5F
:101EA000EC5CFE4F0081FB010183220F331FF9011F
:101EB000EC5FFE4F21A9FB012187518B880F991FF1
:101EC000FC01EA5BFD4F128E118E4F5FCACF089561
:101ED00008950E94670F0C94680F08950895CF939A
:101EE000DF93FC01C0818BE0C89FC02D1124D5EF8A
:101EF000DC0FC73308F0C6E36C2F8D2F0E946D0FE7
:101F00006C2F8D2FDF91CF910C946E0F4F925F92BB
:101F10006F927F928F929F92AF92BF92CF92DF92F9
:101F2000EF92FF92CF9360916F0270917002809157
:101F30007102909172020E945F266B017C010E94E7
:101F400044264B015C0180926F0290927002A09235
:101F50007102B0927202A0914602E6E4F2E08A2F8A
:101F600090E04FEF5FEF60E070E04C195D096E09A3
:101F70007F09A9132AC08093460280917302C0E0B2
:101F8000811108C080915803C82FC37019F0C82F61
:101F9000C695C6958091D801813009F440C0882348
:101FA00039F1823009F4BEC0833009F4C6C0CF9144
:101FB000FF90EF90DF90CF90BF90AF909F908F9069
:101FC0007F906F905F904F900895218D328D290101
:101FD000712C612C441555056605770520F4815058
:101FE0009F5F3296C6CF2C0D3D1D328F218FF8CFCB
:101FF0001092D90180925E0390925F03A0926003D9
:10200000B092610389E2E6E4F2E0A2E6B3E0019077
:102010000D928A95E1F781E08093D801C8CF809135
:10202000DC01C81323C09091580393702091DD0107
:1020300030E081E09217130609F480E0817080930C
:10204000DB0180915D039091DA01981739F080935C
:10205000DA0140E060E080E00E94C40EC93088F4FC
:10206000EC2FF0E0E852F14D0C946E2E81E0E6CFBB
:102070008091DB01882359F040E060E080E00E941D
:10208000C40E80E004C089ED91E00E94770D90912C
:10209000D9019F5F9093D901811140C082E0809364
:1020A000D8018091DB01811139C0CC2309F443C0F0
:1020B0000E94690F89ED91E0CF91FF90EF90DF9042
:1020C000CF90BF90AF909F908F907F906F905F90D8
:1020D0004F900C946F0F89ED91E00E94B90DD7CF0E
:1020E00089ED91E00E940C0ED2CF89ED91E00E9423
:1020F000970CCDCF89ED91E00E94690EC8CF89ED94
:1021000091E00E94280CC3CF89ED91E00E942C0C35
:10211000BECF89ED91E00E946B0DB9CFCC2309F4BD
:1021200046CFC6CFC093DC01809158038370809363
:10213000DD010E94970B83E06FCF60915E03709189
:102140005F0380916003909161030E945F2660317C
:1021500071058105910508F42ACF1092D80127CF87
:10216000E0911302F09114020995109262038FEF2F
:102170009FEF90937C0380937B0390937E038093E7
:102180007D039093800380937F03909382038093D9
:1021900081039093840380938303909386038093B9
:1021A0008503909388038093870390938A03809399
:1021B0008903109246029093600280935F0290938D
:1021C0006202809361029093640280936302909311
:1021D00066028093650290936802809367029093F1
:1021E0006A028093690290936C0280936B029093D1
:1021F0006E0280936D020E942A24811104C00E9405
:10220000CF240E94630B0E94530B809158038C7F54
:1022100011F40C94630B0895CF93C82F882329F0F1
:1022200040E060E080E00E94C40EC0937302CF9152
:1022300008958091730208959091580321E09227A8
:10224000909358031092D80181110C945B0B089560
:1022500081E00C941C1190915803937099F08111B6
:1022600009C09460909358031092D801662351F0EE
:102270000C945B0B893010F09062F4CF880F880FBC
:10228000982BF0CF089561E00C942B11682F90915A
:1022900058039695969581E0890F893008F081E082
:1022A0000C942B1181E00C944611682F90915803E7
:1022B000969596958FEF890F09F488E00C942B1171
:1022C00081E00C94551190915803937061F08093C4
:1022D000590360935A03473908F046E940935B037A
:1022E00021110C945B0B0895A8E5B3E01196EC91D5
:1022F0001197F0E0282F13964C91139712966C913A
:10230000CF0108960C94631181E00C947411E8E5F8
:10231000F3E09181282F43816281E92FE850FF0B80
:10232000CF010C94631181E00C948711E8E5F3E090
:10233000628128E0620F08F46FEF9181282F4381BA
:10234000892F90E00C94631181E00C949611E8E5DC
:10235000F3E0628128E0621B08F460E09181282F9D
:102360004381892F90E00C94631181E00C94A711B4
:10237000E8E5F3E0438128E0420F08F44FEF918154
:10238000282F6281892F90E00C94631181E00C94D6
:10239000B811E8E5F3E0438128E0421B08F440E08F
:1023A0009181282F6281892F90E00C94631181E044
:1023B0000C94C91120915C033AE0230F08F42FEF2D
:1023C00020935C0381110C945B0B089581E00C94C5
:1023D000DA1120915C033AE0231B08F420E02093FB
:1023E0005C0381110C945B0B089581E00C94E9115E
:1023F0000895FC01EE0FFF1FE80FF91FE557FC4F92
:102400006183408322830895EBE8F3E08183608356
:102410004283339694E0ED32F907C1F7089566E3FD
:1024200070E08BE893E00C949312FA01811101C0E3
:10243000FB0109941F93CF93DF93EC01FB01128101
:1024400011114FC00E9478238272CA3CFCE5DF075D
:1024500009F460C030F5C63CECE5DE0709F455C070
:1024600060F4C43C9CE5D90709F443C008F048C0B7
:10247000C33CDC45D9F111E034C045EB51E164EADD
:1024800071E1C83C9CE5D907C1F144E851E163E939
:1024900071E1C93CDC4588F144EA51E165EB71E149
:1024A0002CC0CE3CFCE5DF07D1F1A0F445EF51E1B3
:1024B00066EE71E1CC3CECE5DE07F9F046EC51E16B
:1024C00067ED71E1CD3CDC45C0F046EE51E165EFD2
:1024D00071E113C0C73D8CE5D80718F0CE35DD4556
:1024E00051F6812FDF91CF911F9108950E942811FD
:1024F000F8CF40E651E162E571E10E941512F1CF9B
:1025000042E551E160E671E1F8CF43E951E164E869
:1025100071E1F3CF47ED51E166EC71E1EECF81E07F
:102520000E944311DECF539A4BB1477F5BB1586095
:10253000EFB7F8949B01220F331F260F371F280F88
:10254000391F2817390741F4EFBF8FE594E0019751
:10255000F1F700C000000895DC016D91CD0178E035
:102560005BB9000000C067FF4BB9660F000000C0F8
:1025700000C000C04BB900C07A9591F7E2CFCF926E
:10258000DF92EF92FF920F931F93CF93DF936C0133
:102590007B0164E670E088E70E94E516EC0197FD98
:1025A00012C010E000E0F601E00FF11F849164E634
:1025B00070E00E944117EC01892B29F40F5F1F4F37
:1025C0000E151F0581F70E945B18CE01DF91CF9198
:1025D0001F910F91FF90EF90DF90CF900895089595
:1025E000EDE2F4E080E092E0DF019C011D922150D9
:1025F0003040E1F7F0933406E09333068FEF9FEF1E
:1026000090939A028093990208950E94EF1280930A
:10261000950280FD0FC080E8809394020E94DF162F
:102620006DE070E083E493E00E94BF12892B21F0FB
:1026300080E0089580E2F0CF8091950263E070E041
:1026400081FD26C080E493E00E94BF12892B81F7B0
:102650006DE070E080E393E00E94BF12892B41F7A8
:102660000E94C325605A75418F4F9F4F60932F067C
:102670007093300680933106909332060E94F012D8
:1026800081E08093980280939702109296020895B9
:102690008DE393E0D9CF2091940236E0839FC0016F
:1026A0001124629F800D911D1124811522E0920753
:1026B00014F090E080E0835D9B4F9093340680930C
:1026C0003306089580919802811103C0809197028A
:1026D00008950E94C325605A75418F4F9F4F6093A4
:1026E0002F067093300680933106909332068091C6
:1026F00097028111EBCF62E070E08EE293E00E94DE
:10270000BF12892B19F781E080939702DFCF2F92B8
:102710003F925F926F927F928F929F92AF92BF9201
:10272000CF92DF92EF92FF920F931F93CF93DF939D
:1027300080919802882369F02091990230919A0241
:102740002115310531F08091960261E070E0882317
:1027500099F0DF91CF911F910F91FF90EF90DF9053
:10276000CF90BF90AF909F908F907F906F905F9031
:102770003F902F9008958F5F082F10E01B01082EC7
:1027800002C0220C331C0A94E2F7A9014221532112
:10279000452B89F39091950290FD44C08295880F56
:1027A00080768093E0019801369527953695279598
:1027B0002093E301815E8093E1011092E40124E61D
:1027C00030E047E050E06EED71E088E70E94B81716
:1027D000892B09F0BECFA80125E0440F551F2A958B
:1027E000E1F78091950280FD2BC0435D5B4F04E6CD
:1027F00010E020E230E060E488E70E94DF17892BD8
:1028000009F0A7CF0E946213E101C095D095809195
:10281000990290919A02C823D923D0939A02C09327
:10282000990297CF880F880F880F8093E00110924C
:10283000E301895F8093E10183E08093E401BFCFEE
:10284000E4E7F2E080E2DF011D928A95E9F7AFE16B
:10285000B2E00BE112E083E2C82E82E0D82E97E0CE
:10286000592E772473948D91E80129918E01240FBC
:10287000352F311D235D3B4FE82FF0E0EC58FD4F25
:1028800090E080E0652C681A872C082E01C0880C27
:102890000A94EAF77901A12CE701B9907E01B820EA
:1028A000662D6A196770962E062E000C770BDB2DAD
:1028B00001C0DD0F9A94EAF771956195710967700F
:1028C000772701C0B6946A95EAF7BD2A6081962EF3
:1028D0009B289082A39468E0A612DECF01963196E1
:1028E0008830910579F6CA16DB0609F0BCCF04E6FC
:1028F00010E020E230E044E752E07DCF8091970283
:1029000090919802911103C091E08927089588233E
:1029100069F062E070E08CE293E00E94BF12892BC4
:1029200019F0809197020895109297028091970272
:10293000EBCF08950F931F9380919802882389F11C
:1029400080912D0690912E060E94CF25C29760F0AF
:102950000E94B72590932E0680932D0660E080E0BC
:102960000E944B130E9499140E9487138091970232
:102970008823B9F00E94C32500912F0610913006DC
:102980002091310630913206601B710B820B930B44
:102990006F3F7F4F8F4F9F4720F41F910F910C94F3
:1029A0007E141F910F9108950F931F93CF93DF9380
:1029B000C42FD22FFC0182818823C9F040939D024D
:1029C0000E94B72590939C0280939B0280E28C0F1B
:1029D000883008F050C0C77081E001C0880FCA95E8
:1029E000EAF7DF91CF911F910F910C941B1C10916E
:1029F0009D02141335C080919B0290919C020E940D
:102A0000CF25883C910560F5C0E2CD0F1D17B9F0C8
:102A100080E2810F883040F4177081E001C0880F98
:102A20001A95EAF70E94221CC83048F481E09D2FD5
:102A3000977001C0880F9A95EAF70E941B1C802F9F
:102A40000E94131CC830B8F4D77081E001C0880F11
:102A5000DA95EAF7DF91CF911F910F910C94221C28
:102A600080E28C0F883038F4C77081E001C0880F95
:102A7000CA95EAF7EFCFDF91CF911F910F9108959B
:102A80000F939C01CB01243F4CE5340759F1A8F486
:102A9000293DFCE53F0701F12A3D4CE53407D1F122
:102AA000283D3C4591F406E221EE41EE68ED7CE5DF
:102AB0000E94D41480E00F910895263FFCE53F0763
:102AC000E9F0B0F0273F3C45F9F0FC018281882312
:102AD00039F110929D02EFCF07E225EE45EE69ED48
:102AE0007CE5E6CF06E221EE40EE64EF7CE5E0CF48
:102AF00007E225EE44EE65EF7CE5DACF06E221EE53
:102B000042EE66EF7CE5D4CF07E225EE46EE67EFB6
:102B10007CE5CECF08E221E045EE6AED7CE5C8CF4A
:102B200081E0C9CFCF93DF93EC01FB018281882341
:102B300009F419C1C230FCE5DF07C0F1C6319CE5DC
:102B4000D90730F09E012B5F3C452930310570F5E7
:102B50000E943D249093450380934403C031ECE5EB
:102B6000DE0709F4CFC008F05BC0C8308CE5D80799
:102B700009F4B6C088F5C430ECE5DE0709F4A8C056
:102B8000C0F4C2308CE5D80709F49CC0809144039E
:102B90008260C330DC4509F498C080914403909171
:102BA00045030E944B240E944D1E80E0DF91CF918F
:102BB0000895809144038061C630ECE5DE0709F496
:102BC00084C0809144038860C730DC4508F47DC030
:102BD00080914403806279C0CC308CE5D80709F439
:102BE00089C070F4809144038C60CA30ECE5DE0744
:102BF00009F46BC008F478C0809144038E7F65C0EF
:102C0000CE308CE5D80709F479C0809144038B7FDE
:102C1000CF30DC4508F459C0809144038F7E55C005
:102C2000CC3FECE5DE0709F457C030F5C3318CE545
:102C3000D80709F46FC078F4C131ECE5DE0709F478
:102C400065C0C231DC4509F0A8CF0E944D1E8091BD
:102C500044038F773AC0C5318CE5D80709F462C0C8
:102C600008F476C0809145038160CB3FDC4509F0D4
:102C700094CF8093450391CFC115FDE5DF0709F49B
:102C80004DC088F4809145038D7FCE3F9CE5D907E8
:102C900081F3809145038E7FCF3FDC4550F38091D7
:102CA00045038360E6CFC230FDE5DF0709F459C074
:102CB00008F444C080E0C330DD4509F06ECF0E94C7
:102CC000DB246BCF8091440381608093440365CF04
:102CD000809144038460F9CF809145038260C9CF1D
:102CE000809144038064F1CF0E944D1E8091440383
:102CF0008068EBCF809144038D7FE7CF80914403C0
:102D0000877FE3CF809144038F7DDFCF80914403A1
:102D10008F7BDBCF80914403837FD7CF80914503A6
:102D20008C7FA7CF8091440382FB992790F921E003
:102D3000922790FB82F990FB83F9C7CF80914503DE
:102D4000982F909591708E7F892B90FB81F991CF70
:102D50000E944D1E90914403892F97FB87F980585C
:102D6000B4CF81E0ACCF81E021CFCF93DF93EB01F3
:102D700086319C4511F50E9478239A81992399F018
:102D80008A7A91E009F490E090939E02811109C043
:102D900089E20E9432230E94BB2380E0DF91CF9121
:102DA000089585E3F6CF80919E02811104C089E2E7
:102DB0000E943923F0CF85E3FBCF81E0EFCF109263
:102DC000B9008CE08093B8000895EF92FF920F93C2
:102DD0001F93CF93DF93182FEB011092BC0084EA6E
:102DE0008093BC000E94B7257C018091BC0087FFC6
:102DF00027C08091B900887F883029F08091B90080
:102E0000887F8031D9F51093BB0084E88093BC00A3
:102E10000E94B7258C018091BC0087FF24C02091BF
:102E2000B900287F90E080E02831B1F081E090E0A7
:102E3000203411F490E080E09195819591090CC0C7
:102E4000CF3FDC0791F20E94B7258E199F098C179E
:102E50009D0758F28EEF9FEFDF91CF911F910F9159
:102E6000FF90EF900895CF3FDC07A9F20E94B725AD
:102E7000801B910B8C179D0770F2ECCF8FEF9FEFAB
:102E8000EBCF0F931F93CF93DF93EB018093BB00A6
:102E900084E88093BC000E94B7258C018091BC001F
:102EA00087FF11C02091B900287F81E090E028328F
:102EB00011F490E080E0919581959109DF91CF9197
:102EC0001F910F910895CF3FDC0741F30E94B72572
:102ED000801B910B8C179D0708F38EEF9FEFEECFB1
:102EE0000F931F93CF93DF93EC0184EC8093BC008E
:102EF0000E94B7258C018091BC0087FF08C080919B
:102F0000BB0090E0DF91CF911F910F910895CF3FCB
:102F1000DC0789F30E94B725801B910B8C179D0756
:102F200050F38EEF9FEFEECF0F931F93CF93DF936E
:102F3000EC0184E88093BC000E94B7258C0180914D
:102F4000BC0087FF08C08091BB0090E0DF91CF916B
:102F50001F910F910895CF3FDC0789F30E94B72599
:102F6000801B910B8C179D0750F38EEF9FEFEECFD8
:102F7000CF92DF92EF92FF920F931F93CF93DF9345
:102F80006B018A017901B9010E94E516E6010C0D79
:102F90001D1DC017D10761F424E92093BC00DF9107
:102FA000CF911F910F91FF90EF90DF90CF900895F8
:102FB00097FDF2CFB70189910E944117EACFCF92D6
:102FC000DF92EF92FF920F931F93CF93DF93C62F61
:102FD0006A017901B8010E94E51697FD0CC0B8019D
:102FE0008C2F0E944117E601EC0CFD1CCE15DF056D
:102FF00011F097FF0CC024E92093BC00DF91CF9122
:103000001F910F91FF90EF90DF90CF900895B8013E
:1030100089910E944117EACFCF92DF92EF92FF92FF
:103020000F931F93CF93DF93F82EE62EEA016901E9
:10303000B8010E94E51697FD15C0B8018E2D0E94BB
:10304000411797FD0FC0B8018F2D81600E94E516D2
:10305000F12CE12C21E0C21AD108EC14FD0400F59A
:1030600097FF11C024E92093BC001816190614F428
:1030700090E080E0DF91CF911F910F91FF90EF9052
:10308000DF90CF900895C8010E94701797FD04C08B
:10309000FE01EE0DFF1D80832FEFE21AF20ADDCF55
:1030A00097FDE0CFC8010E94941797FDDBCFCC0DB0
:1030B000DD1D8883D7CF84E98093BC00089561E04B
:1030C00070E085EE91E00C94401961E070E085EECF
:1030D00091E00C9447190F931F93CF93DF93D82F50
:1030E000C92F8B010E94E119009791F5D801ED2FAE
:1030F000FC2FEC01C155DD4F28812D932191EC016E
:10310000C056DD4F2C8301968430910591F786E0FF
:10311000E8E5F3E0A8EAB2E001900D928A95E1F7C4
:103120000E9419118093AE020E9444266E5F7F4F69
:103130008F4F9F4F6093A0027093A1028093A202D1
:103140009093A30281E0DF91CF911F910F91089599
:1031500080E0F9CF0F931F93CF93DF93D82FC92F20
:103160008B016091A0027091A1028091A2029091C6
:10317000A3020E942726D801ED2FFC2F90E080E0CB
:103180002D91EC01C155DD4F2883EC01C056DD4F78
:103190002C81219301968430910591F786E0E8EA2D
:1031A000F2E0A8E5B3E001900D928A95E1F78091F5
:1031B000AE02DF91CF911F910F910C940C118EE113
:1031C0004A9B02C08150E1F74A9BFECF08955A986E
:1031D00080E28A95F1F75A9A0895FC013BE03A950E
:1031E000F1F798E020E080E031E040E14A95F1F726
:1031F000880F4A9B02C08160232742E04A95F1F77D
:10320000000040E14A95F1F7915079F790E19A95E5
:10321000F1F799B132E03A95F1F7000040E14A95B3
:10322000F1F792FB992790F992272081920F9083D2
:103230000895EF92FF920F931F93CF93DF930F9216
:10324000CDB7DEB719828C017C01E60EF11C0E159C
:103250001F0561F481E09981911180E00F90DF9169
:10326000CF911F910F91FF90EF9008950E94DF186A
:10327000CE0101960E94ED18F80181938F01E7CFEE
:103280009093B4028093B302529A5A9A08959093FD
:10329000B4028093B30252985A9AEA9AE9E6F0E0AF
:1032A00080818F7C808308956150770B91E001C00D
:1032B000990F6A95EAF720E031E0911108C02223C6
:1032C00091F05A9A80E28A95F1F75A980895492F19
:1032D000482339F05A9A232740E24A95F1F7969508
:1032E000ECCF5A98F9CF5A98EDCFFF920F931F93D6
:1032F000CF93DF93EC018C01060F111DC017D1078E
:1033000031F4DF91CF911F910F91FF900895F990C3
:103310000E94E71868E08F2D0E945419EFCF1F928A
:103320000F920FB60F9211242F933F934F935F93F9
:103330006F937F938F939F93AF93BF93CF93DF93BD
:10334000EF93FF935A98529AC091B302D091B4026E
:103350006D81662321F08E819F810E9475190E94E4
:10336000E71880E18A95F1F75A9852985A9A80E1C5
:103370008A95F1F76A81662309F18B819C810E940D
:103380001919E881F981882311F088E001C082E0F1
:1033900080830E94DF18FF91EF91DF91CF91BF9161
:1033A000AF919F918F917F916F915F914F913F91DD
:1033B0002F910F900FBE0F901F901895E881F98103
:1033C000E4CFCF93DF93C091B302D091B402F894CD
:1033D000529A5A9885E08A95F1F7000052985A9AC5
:1033E00080E28A95F1F74A9B0CC0529A5A9AE8817A
:1033F000F98181E08083789481E090E0DF91CF9142
:1034000008956D81662381F08E819F810E94191934
:1034100081110AC0529A5A9AE881F98182E0808328
:10342000789482E090E0EACF0E94DF1880E28A95EB
:10343000F1F75A98529A80E18A95F1F76A816623EA
:1034400021F08B819C810E9475190E94E718E88108
:10345000F9811082789490E080E0D0CF9093BA0206
:103460008093B9020895E091B902F091BA023097C1
:1034700021F00190F081E02D099480E00895E09121
:10348000B902F091BA02309721F00280F381E02D69
:1034900009940895E091B902F091BA02309721F0B1
:1034A0000480F581E02D099408952091B7023091B0
:1034B000B8022817390771F09093B8028093B702C9
:1034C000E091B902F091BA02309721F00680F781BD
:1034D000E02D099408952091B5023091B602281785
:1034E000390771F09093B6028093B502E091B9026A
:1034F000F091BA02309721F00084F185E02D099413
:1035000008950E94C3256093C8027093C9028093F6
:10351000CA029093CB026093C4027093C502809359
:10352000C6029093C702089585B7806885BF85B7A6
:10353000806885BF0895089508950C949B1A0C9493
:103540000B040E94941A88E294E20E94A0260E9432
:103550009C1A0C949D1A0C940209089508950E94D7
:10356000AD1A0C94AE1A0E94AE250E941E260E942F
:103570009D0780E00E9405130E9429030C949F1A66
:103580008F929F92AF92BF92CF92DF92EF92FF9273
:103590000F931F93CF93DF93CDB7DEB72A970FB664
:1035A000F894DEBF0FBECDBF0E944708982E811150
:1035B0000E94811A8CEBA82E82E0B82E10E000E069
:1035C000802E802F0E947407D82EF501F1905F01A4
:1035D000F81216C00F5F1F4F0830110589F78FEFE3
:1035E00089838A831B820E94B7258160782F9D83FF
:1035F0008C8349815A816B818D810E94721B32C0FC
:103600008091380381FD0E947A078F2D8D25F12C42
:10361000EE24E394982F9E2109F44BC00E94AB1A2C
:10362000DE20CC24C394D11001C0C12C882379F0B2
:10363000FE828F82C8860E94B7258160782F9A8784
:1036400089874E815F8168858A850E94721BF80197
:10365000E454FD4F8081E826E0824C2D6F2D882DAB
:103660000E94DE0E0E94860F0E949A1491100E9402
:1036700062130E942F030E94331A9091BB02891794
:10368000F1F00E94331A8093BB022A960FB6F89489
:10369000DEBF0FBECDBFDF91CF911F910F91FF9085
:1036A000EF90DF90CF90BF90AF909F908F900C9451
:1036B0008005F394EE0CF6E0FF12ACCF8BCF2A9688
:1036C0000FB6F894DEBF0FBECDBFDF91CF911F9133
:1036D0000F91FF90EF90DF90CF90BF90AF909F90B1
:1036E0008F900895DF92EF92FF920F931F93CF93E5
:1036F000DF93CDB7DEB72B970FB6F894DEBF0FBEC2
:10370000CDBF7A878B87F42E052F162FE72ED82E64
:1037100061110E9498231E821D827E2DEC82DD8223
:103720004F2D502F612F8D2D9E812B960FB6F89423
:10373000DEBF0FBECDBFDF91CF911F910F91FF90E4
:10374000EF90DF900C94C320FC01808191810C9458
:103750000423CF93C82F882329F18CEF8C0F813A53
:10376000A0F46C2F8091ED019091EE010E94F22463
:10377000882329F08C2F0E9439230E94BB238C2F91
:103780000E943223CF910C94BB2380E28C0F8830AF
:1037900048F4C77081E001C0880FCA95EAF70E941B
:1037A0007B23F0CFCF910895882329F19CEF980FC8
:1037B000913A20F40E9439230C94BB2390E2980F95
:1037C000983050F4877091E001C0990F8A95EAF71C
:1037D000892F0E948123F0CF9BE5980F933020F42E
:1037E00090E080E00C94551A885A873120F490E0DC
:1037F00080E00C946B1A08951F93CF93DF93182FDA
:10380000EB010E94A91B209731F4812FDF91CF910A
:103810001F910C94D41B8FE99FE00197F1F700C032
:1038200000002197F0CF70E060E0893311F460E58B
:1038300070E00C94FC1B882321F00E947B230C94E5
:10384000BB230895882321F00E9481230C94BB237D
:103850000895BF92CF92DF92EF92FF920F931F9342
:10386000CF93DF937C01D62FC72FFC0102811581F6
:1038700012951F700E945023D82E8823A1F0D02EBD
:10388000002389F08C2F807F803429F080E28D0F17
:10389000D12C883040F082E00E940C240E945023FA
:1038A00091E0D82ED926CC2EC2949FE0C922FBE00D
:1038B000FC1598F1EC2DF0E0EF51F14D0C946E2ECB
:1038C0001C2F1F70C07F11F01295107F0023A9F0EC
:1038D000112359F080E28D0F883010F0D11109C00A
:1038E000812F0E947B230E94BB238D2F0E94A91B46
:1038F00014C0812F0E948B23F6CF8D2F0E94D41BE2
:10390000112359F080E28D0F883010F0D1112BC0B7
:10391000812F0E9481230E94BB23EC2DE850FF0BD6
:10392000349720F40E94331A0E948005DD2009F4A8
:1039300061C10E944C2380FD5DC1F70112820E948B
:1039400046230E94CF21C7010E941B1E0E944623CE
:10395000DF91CF911F910F91FF90EF90DF90CF906B
:10396000BF900C94F021812F0E949123D4CF2C2F53
:103970002F70B22EC07FC03219F0B29480EFB822FF
:10398000DD2339F0D13019F1002361F1112321F148
:10399000ACCF002381F0111106C00E949E238B2919
:1039A0000E941B1CBACF1130C1F70E949E238B29A5
:1039B0000E94A423B2CF111106C00E94B1238B2D07
:1039C0000E94221CAACF113009F4A7CFF6CF002302
:1039D00029F0163008F0A1CF8B2DE2CF153008F07A
:1039E0009CCFEDCF112359F3D93349F43FEF87EE44
:1039F00093E0315080409040E1F700C000008D2FEF
:103A00000E94D41B8ACF8C2F837009F041C0011112
:103A100084CF4D2F429546954770440F440F0D2F8C
:103A20000F7010E030E020E0042E04C0000F111FE2
:103A3000221F331F0A94D2F760E070E0CB01D4FF5D
:103A40000FC06FE070E080E090E004C0660F771F69
:103A5000881F991F4A95D2F760957095809590952B
:103A6000C695C695C370602B712B822B932BC230E9
:103A700049F058F4C13019F00E9481214ECF0E94C4
:103A80006F214BCF0E94932148CF0E946D2145CFDB
:103A90008695002311F08C2F8170882309F43DCF87
:103AA0004D2F429546954770440F440F0D2F0F70D0
:103AB00010E030E020E0042E04C0000F111F221F90
:103AC000331F0A94D2F760E070E0CB01D4FF0FC03F
:103AD0006FE070E080E090E004C0660F771F881F01
:103AE000991F4A95D2F76095709580959095C695E7
:103AF000C695C370602B712B822B932BC23049F07B
:103B000058F4C13019F00E94462207CF0E94342297
:103B100004CF0E94582201CF0E94A921FECECF706F
:103B2000002329F08C2F0E94CF218D2F39CF8D2F8C
:103B30000E94221C8C2F0E94F021EFCED23F89F1EF
:103B400060F4D03FC9F0D13F29F1002309F442C00D
:103B50001111CBCE8C2F8F7121C0D33F39F1D43FBF
:103B6000A1F7002369F1CF718C2F0E94CF2163E070
:103B70008C2F0E94F123D1CE002341F0153008F0A4
:103B8000CCCE8C2F8F710E941322C7CE163008F036
:103B9000C4CEF7CF8C2F8F71002369F20E94CF2102
:103BA000BCCE8C2F8F710023C9F3C5CF002329F021
:103BB0008C2F8F710E94BA21B0CE0E94B521ADCE5C
:103BC00081E00E940C24123008F4A7CE82E00E940B
:103BD0000C24A3CE112359F0D93309F010CFEFEF05
:103BE000F7EE23E0E150F0402040E1F706CF8C2FC4
:103BF0008F71A1CFDF91CF911F910F91FF90EF9027
:103C0000DF90CF90BF9008950F931F93CF93DF93D2
:103C1000EC01688179818A810E940E238C010E94C7
:103C20006A220E946C21B801CE01DF91CF911F91D1
:103C30000F910C94291CCF93DF93EC018B819C8115
:103C4000892B29F08881998189238F3F59F4DF914D
:103C5000CF910895CE010E94041ECE01DF91CF9135
:103C60000C94FE04CE010E9421058111F3CF0E9425
:103C70005023882361F38A81882349F382E0DF910E
:103C8000CF910C940C240E9498230E949B230C94A7
:103C9000BB230E9440230C94431E0E9488230C9453
:103CA000491EE92FE295EF70E250EE3070F4F0E03B
:103CB000E351F14D0C946E2E803F19F020F4883EB4
:103CC00020F481E00895843FE1F380E00895883E88
:103CD000C0F3813FD1F7F5CF93FB882780F9089592
:103CE0000E9404230C94511ECF93DF9300D000D088
:103CF0000F92CDB7DEB70F900F900F900F900F90EF
:103D0000DF91CF910895CF93DF9300D000D000D002
:103D1000CDB7DEB726960FB6F894DEBF0FBECDBF87
:103D2000DF91CF9108951F93CF93DF93C091CD0280
:103D300016E08091CE028C1304C0DF91CF911F91C9
:103D40000895D0E01C9FF0011D9FF00D1124E15358
:103D5000FD4F4081518162817381848195810E94F0
:103D6000831E2196C770E5CF4091FF02509100035A
:103D70006091010370910203809103039091040309
:103D80000C94831E1F93CF93DF9380910403807F55
:103D9000A9F480910103882389F08091CD02C0911C
:103DA000CE026091FF0270910003A0910203B091D6
:103DB0000303D62FD72316E0C81304C0DF91CF9199
:103DC0001F91089590E0109711F0DF3F19F40196CC
:103DD0008770F2CF189F9001199F300D1124F901BF
:103DE000E153FD4F41814713F2CF40814613EFCF9E
:103DF00042814111ECCF438154814A1B5B0B483C0B
:103E0000510528F7809104038F708061809304032B
:103E1000F901EC52FD4F80818F70806180838FEFBC
:103E200092E00E941B1EDF91CF911F910C94931E74
:103E3000AF92BF92CF92DF92EF92FF920F931F93B8
:103E4000CF93DF93CDB7DEB761970FB6F894DEBF9F
:103E50000FBECDBF8C0185E0F801DE011D960190FB
:103E60000D928A95E1F7F80140815181E2808FEF50
:103E7000C82E82E0D82E6091020370910303611571
:103E8000710509F461C19091FF0220910003892F0F
:103E900082238F3F09F458C1A380B480F0900103BE
:103EA000F501E61BF70BFF2009F4FCC08091040329
:103EB000382F307FE83CF10508F0B2C0311179C0ED
:103EC000FE2C251323C0941321C0E1101FC08F7056
:103ED0008061809304030E94B41EC6010E941B1ED1
:103EE00080910403F80185838F2D61960FB6F894B5
:103EF000DEBF0FBECDBFDF91CF911F910F91FF901D
:103F0000EF90DF90CF90BF90AF900895AB2829F04D
:103F1000842F85238F3F09F033C180E0F82FF170A3
:103F2000DF2E80FF3CC08091CD022091CE0236E092
:103F3000821315C04D875E878D859E850E94042360
:103F4000292F22952F702230F0F0243018F59F7021
:103F5000F1F0F8019581907FD1F4D12C1EC090E052
:103F6000389FF001399FF00D1124E153FD4F61811D
:103F7000651306C06081641303C062816E110FC0B7
:103F800001968770D5CF9F7011F0882331F3805E42
:103F9000883018F3C8010E941B1EFD2CA5CFEE200F
:103FA00009F4A2CF80910403816080930403F12C73
:103FB0009BCF251306C0941304C0F801EE2009F42A
:103FC0008DC04D875E878D859E850E94701E8823DB
:103FD00019F1EE2009F180910403803270F02091F4
:103FE000FF023091000338872F831986BB86AA868B
:103FF0008C87CE0107960E941B1E86E0F801AFEF6A
:10400000B2E001900D928A95E1F70E94C21E0E94D3
:10401000B41EFF24F39468CFC8010E941B1EF9CF81
:10402000311113C07A2DB98AA88A6E2D89890E9410
:10403000741E8FEF92E00E941B1E86E0F601119223
:104040008A95E9F70E94B41EB2CF25130FC09413CE
:104050000DC0E1100BC0F8018583C8010E941B1E32
:1040600086E0F60111928A95E9F73ECF4D875E878B
:104070008D859E850E94701E882371F2EE2061F26C
:1040800080910403803208F4B8CF2091FF02309170
:1040900000033A8329831B82BD82AC828E83CE01CA
:1040A0000196A9CFE83CF10508F041C0FE2CEE20B6
:1040B00009F4B2CF25132AC0941328C080910403B9
:1040C00080FD1BC0982F907FC1F0F8018583903F41
:1040D00031F0982F907F905F8F70892B8583C80176
:1040E0000E941B1E86E0F801AFEFB2E001900D9236
:1040F0008A95E1F70E94B41EF7CE86E0F801AFEF93
:10410000B2E001900D928A95E1F7EECE4D875E8781
:104110008D859E850E94701E81116FCF8091040352
:10412000816080930403C8010E941B1EDDCE7A2D9E
:10413000B98AA88A6E2D89890E94741E86E0F601CC
:1041400011928A95E9F7D6CFEE2009F465CF4D8715
:104150005E878D859E850E94701EF82E882309F447
:104160005BCF86E0F801AFEFB2E001900D928A9547
:10417000E1F78FEF92E00E94A41B0E94C21EBACF0B
:1041800081E08E25CBCE1F93CF93DF93CDB7DEB7E3
:104190002C970FB6F894DEBF0FBECDBF4F83588764
:1041A00069877A878B879C87CE0107960E94181FA4
:1041B000882369F08A859B85892B39F04F81588542
:1041C000842F85238F3F09F071C016E05FC086E021
:1041D000FE013796DE01119601900D928A95E1F766
:1041E0008A859B85892B89F38F81988589238F3FC9
:1041F00061F32091CE0230E0C901019687709927C2
:104200004091CD024817190671F40E944D1E10927C
:10421000CE021092CD0286E0EFEFF2E0DF011D92B8
:104220008A95E9F7D2CF96E0929FD001939FB00D87
:104230001124A153BD4FFE01319601900D929A9524
:10424000E1F78093CE020E94931EBFCF819FC001F1
:10425000112481539D4F0E94181F8823E9F0E0919B
:10426000CD021E9FF0011124E153FD4F4081518189
:1042700062817381848195810E94831E8091CD0229
:1042800090E00196877099278093CD028091CD02AE
:104290009091CE028913DACF2C960FB6F894DEBF38
:1042A0000FBECDBFDF91CF911F91089569857A85AB
:1042B0008B859C850E94831E88CF08950C945D2178
:1042C0000E945E2160932703709328038093290343
:1042D00090932A030C94431E08950C9460210F932D
:1042E0001F930091270310912803209129033091F7
:1042F0002A03602B712B822B932B1F910F910C940F
:1043000060210F931F9300912703109128032091A0
:10431000290330912A0360237123822393231F9161
:104320000F910C9460210F931F930091270310911C
:1043300028032091290330912A03602771278227BF
:1043400093271F910F910C9460210C945D210C9484
:10435000A5210E94A72160932303709324038093D7
:104360002503909326030C94431E60E070E0CB017C
:104370000C94A9210F931F9341E050E060E070E09E
:104380008A019B0104C0000F111F221F331F8A9551
:10439000D2F7C901B8011F910F910C94A9210F9375
:1043A0001F9341E050E060E070E004C0440F551FEF
:1043B000661F771F8A95D2F780912303909124037B
:1043C000A0912503B09126038A019B01082B192B8C
:1043D0002A2B3B2BC901B8011F910F910C94A921E5
:1043E0000F931F9341E050E060E070E004C0440F81
:1043F000551F661F771F8A95D2F7CB01BA016095CA
:10440000709580959095009123031091240320913D
:1044100025033091260360237123822393231F9168
:104420000F910C94A9210F931F9341E050E060E09D
:1044300070E004C0440F551F661F771F8A95D2F79E
:104440008091230390912403A0912503B09126032A
:104450008A019B01082719272A273B27C901B80190
:104460001F910F910C94A9210F931F930091230387
:10447000109124032091250330912603602B712B8A
:10448000822B932B1F910F910C94A9210F931F93B3
:1044900000912303109124032091250330912603DA
:1044A00060237123822393231F910F910C94A921E0
:1044B0000F931F9300912303109124032091250350
:1044C0003091260360277127822793271F910F9130
:1044D0000C94A9210895E92FEE0FE90FEE0F8E0F2E
:1044E000982F977041E001C0440F9A95EAF786959E
:1044F0008695869595E0899FF0011124EB5FFC4F2E
:1045000030E020E070E05191DF011197CB01022EE5
:1045100002C0969587950A94E2F781708195852768
:10452000842385278C932F5F3F4F2530310559F722
:104530000895E92FEE0FE90FEE0F8E0F982F977069
:1045400086958695869525E0829FF0011124EB5F84
:10455000FC4F50E040E080E0219130E0092E02C0A5
:10456000369527950A94E2F721703327042E01C06F
:10457000220F0A94EAF7822B4F5F5F4F45305105B7
:1045800059F70895BF92CF92DF92EF92FF920F9367
:104590001F93CF93DF938C01C0902303D09024030B
:1045A000E0902503F0902603809127039091280343
:1045B000A0912903B0912A03C82AD92AEA2AFB2A02
:1045C000CFE1D0E0BC2ED701C6010C2E04C0B695B9
:1045D000A795979587950A94D2F780FD0EC02197ED
:1045E00088F7B12C8B2DDF91CF911F910F91FF9008
:1045F000EF90DF90CF90BF900895B8018C2F0E946C
:104600009C05019761F3EECFCF93DF93EC010E94FD
:10461000C222BE01DF91CF910C949C051F93CF93D2
:10462000DF93EB019091CC02992331F0CB01DF9124
:10463000CF911F910C940423882379F0CB010E9421
:10464000C222182F682FCE010E946B22BE01812F3B
:10465000DF91CF911F910C949C05CB010E94992270
:10466000182FF4CF682F8091ED019091EE010C94FA
:104670002825682F8091ED019091EE010C942A2558
:104680008091ED019091EE010C942C2580912B03EB
:10469000859585958595089580912B03877008955C
:1046A00090912B03977081E009F480E00895909138
:1046B000450392FB222720F9281751F080FB92F93D
:1046C0009093450380914403909145030C944B24AF
:1046D00008958091450382FB882780F991E089271E
:1046E0000C94572381E00C94572380E00C945723BB
:1046F00080913703089590913703892B8093370376
:1047000008958095909137039823909337030895E7
:1047100010923703089590913603892B80933603C6
:1047200008958095909136039823909336030895C9
:1047300010923603089510923503089580912C034A
:10474000089508950C94A1239091450392FD08C00B
:1047500090912C03981721F080932C030C94A223A2
:10476000089580912C03882329F010922C0380E077
:104770000C94A2230895E091ED01F091EE01809157
:1047800037038083E091ED01F091EE0180819091FB
:104790003603892B8083E091ED01F091EE01808159
:1047A00090913503892B808390912C03992381F07C
:1047B000E091ED01F091EE018081892B8083809161
:1047C000ED019091EE010E94E02481110E94B1233D
:1047D0008091ED019091EE010C943F1A08950C9494
:1047E000EE239091450392FD10C098E0899F9001BF
:1047F0001124622B60932B030E94CF2180912B0305
:104800008595859585950C94EF230C94CF21109276
:104810002B0380E00C94EF2390912B038095892348
:1048200080932B03282F277039F4282F082E000C93
:10483000330B9217130621F49091450392FF07C0A2
:104840008595859585950E94F0210C9407240895FF
:1048500080E0089590E080E00E94952E21E08A3E5D
:104860009E4F09F020E0822F089582E090E00C94A2
:104870008D2E83E090E00C948D2ECF9384E090E019
:104880000E948D2EC82F82E290E00E948D2E982FDC
:104890008C2FCF910895CF93C92F682F84E090E09B
:1048A0000E94AB2E6C2F82E290E0CF910C94AB2E45
:1048B000AB01BC018FE090E00C94BD2EAB01BC01BC
:1048C00083E190E00C94BD2E60E070E0CB010C948D
:1048D0005E2460E070E0CB010E9458240C946424B4
:1048E0006AEE7EEF90E080E00E94C92E60E082E0F8
:1048F00090E00E94AB2E60E083E090E00E94AB2E3F
:1049000010922703109228031092290310922A0371
:1049100060E084E090E00E94AB2E60E082E290E0F4
:104920000E94AB2E60E085E090E00E94AB2E60E03C
:1049300086E090E00E94AB2E6FEF87E090E00E944F
:10494000AB2E40E050E0BA0188E090E00E94BD2E1E
:1049500060E08DE090E00E94AB2E40E050E0BA01B4
:1049600088E190E00E94BD2E60E087E190E00E9427
:10497000AB2E40E050E0BA018CE190E00E94BD2EE9
:1049800070E060E080E290E00E94C92E40E050E0DC
:10499000BA0188E190E00E94BD2E0C9469240C9429
:1049A00070248EE090E00E948D2E91E0811101C074
:1049B00090E0892F0895682F8EE090E00C94AB2E44
:1049C0009C012E5F3F4FAC01485F5F4F80E0241792
:1049D000350709F40895F90191919F019923B9F3DD
:1049E0008F5FF5CF662349F0FC013296089621913E
:1049F000261729F0E817F907D1F780E0089581E03C
:104A000008959C01FC0132969FEF80E0419146178A
:104A100051F09F3F19F4411101C0982F8F5F8630EC
:104A2000A9F79F3F09F40895290F311D97FD3A9585
:104A3000F90162830895FC013296089621912613AC
:104A400003C0DF0111971C92E817F907B9F7089521
:104A50000C9401250C941B25029626E0FC01119272
:104A60002A95E9F7089508950895809141068430C4
:104A700061F10E94010480E00E94800581E00E94B3
:104A80000C111092390388E190E020E40FB6F894FD
:104A9000A895809360000FBE2093600083B7817F4C
:104AA000846083BF83B7816083BF7894889583B720
:104AB0008E7F83BF0FB6F894A895809160008861BF
:104AC00080936000109260000FBE08950895CF9308
:104AD0000E9433250E9447080E946625C0E08C2F63
:104AE0000E947407811105C0CF5FC830C1F7CF9114
:104AF000089581E0FCCF08950E944D1E0E94331A54
:104B00000E94800580E00E940C110C9406041F9204
:104B10001FB61F9211248F939F93AF93BF938091E1
:104B20003903811113C08091350690913606A0910A
:104B30003706B09138064196A11DB11D8093350608
:104B400090933606A0933706B0933806BF91AF9185
:104B50009F918F911F901FBE1F90189582E084BD7A
:104B600093E095BD9AEF97BD80936E0008952FB79F
:104B7000F8948091350690913606A0913706B09151
:104B800038062FBF08952FB7F894609135067091BD
:104B9000360680913706909138062FBF08959C0104
:104BA0004FB7F8948091350690913606A09137065C
:104BB000B09138064FBF821B930B0895CF92DF92BE
:104BC000EF92FF922FB7F894C0903506D09036063A
:104BD000E0903706F09038062FBFA7019601261BFC
:104BE000370B480B590BCA01B901FF90EF90DF90CA
:104BF000CF90089578941F921FB61F9211248F931F
:104C00009F93AF93BF938091350690913606A09104
:104C10003706B09138060196A11DB11D8093350667
:104C200090933606A0933706B0933806BF91AF91A4
:104C30009F918F911F901FBE1F901895109239065B
:104C400010923A0610923B0610923C060895CF92BD
:104C5000DF92EF92FF926B017C010E9402098111A9
:104C60000EC00E94C325C61AD70AE80AF90AC092E4
:104C70003906D0923A06E0923B06F0923C06FF904D
:104C8000EF90DF90CF9008950F931F930E94020939
:104C9000882321F01F910F910C94C3250E94C325F6
:104CA0000091390610913A0620913B0630913C065E
:104CB000600F711F821F931F1F910F910895CF9254
:104CC000DF92EF92FF926B017C010E940209882320
:104CD00041F0C701B601FF90EF90DF90CF900C94A8
:104CE000DE250E9444266C197D098E099F09FF90DC
:104CF000EF90DF90CF90089581E08093E00080E214
:104D00008093D8001092C9008FE19EE40197F1F7DB
:104D100000C0000087E090EBDC0180934A0690938E
:104D20004B06A0934C06B0934D0688E19CE00FB66D
:104D3000F894A895809360000FBE90936000FFCF19
:104D40009093250280932402089580914203089550
:104D500008959C0182E08093E9009FEF8091E80034
:104D6000915085FD06C085ED8A95F1F700009111FF
:104D7000F5CF8091E80085FF0CC050E040E065E091
:104D800070E0C9010E9486288091E8008E778093A8
:104D9000E8000895CF93DF93EC0181E08093E90070
:104DA0008FEF9091E800815095FD06C095ED9A95A2
:104DB000F1F700008111F5CF8091E80085FF14C064
:104DC00050E040E068E070E0CE010E9486288091CB
:104DD000E8008E778093E80088E0FE01AAE3B3E064
:104DE00001900D928A95E1F7DF91CF910895089592
:104DF00080914006811109C00E94162A0E94732AE0
:104E00008091E20084608093E20008951092400651
:104E1000089508950895089542E061EC81E00E94AC
:104E2000922942E061EC82E00C9492298091430641
:104E3000833009F45FC030F48130C1F1823009F46D
:104E40009BC008958A3009F487C08B3009F46DC087
:104E5000893009F04EC080914206813209F049C084
:104E60008091460690914706892B09F042C08091B7
:104E7000E800877F8093E8008091E80082FF35C0DA
:104E80009091F3008091F200029729F48091F10053
:104E90008B7F813021F48091F100809342038091D7
:104EA000E8008B778093E8000C94C6298091420635
:104EB000813AF9F48091E800877F8093E80080913F
:104EC000460690914706892B61F468E08AE393E0F7
:104ED00070E00E94D5288091E8008B778093E800ED
:104EE000089560E090E080E0F3CF80914106811169
:104EF000C3CF089580914206813AD9F78091460642
:104F000090914706892BA9F78091E800877F8093CD
:104F1000E8008091E80080FFFCCF8091F901809348
:104F2000F1008091E8008E77BDCF809142068132FA
:104F300001F78091460690914706892BD1F6809122
:104F4000E800877F8093E8000E94C629809144068C
:104F50008093F9010C944D1E80914206813249F6EE
:104F60008091E800877F8093E8000E94C6298091A5
:104F7000450680934303089580914206813A09F0E3
:104F8000B8CF8091E800877F8093E8008091E800A7
:104F900080FFFCCF80914303C2CF84B7877F84BF5B
:104FA0000FB6F894A89580916000886180936000A6
:104FB000109260000FBE80E890E00FB6F8948093E6
:104FC0006100909361000FBE0E94A11A0E94162AF0
:104FD0000E94732A8091E20084608093E2007894BA
:104FE0000E94FC2C0E94B31A8FEE91E00E942E1AB0
:104FF00080914106853099F00E94C01A0E94AF1A34
:10500000F7CF0E94352580913F06882341F00E940A
:105010006725882321F00E9470280E944D1E8091F0
:105020004106853071F30E947C25E6CF0C94182848
:10503000292F33272330310519F168F42130310548
:1050400009F444C02230310509F445C090E080E005
:1050500030E020E025C02132310549F1223231050E
:10506000A9F780E490E028E034E061157105C1F013
:1050700087E490E021EC33E06130710589F0E6CF00
:1050800099278130910581F0009729F00297F1F678
:10509000E0E5F3E002C0E0E7F3E0849190E09F01F7
:1050A000FA01318320830895EEE5F3E0F6CF89E03D
:1050B00090E026E833E06115710591F389E090E016
:1050C0002FE933E06130710559F3C0CF82E190E000
:1050D0002FEA33E0E5CF8BE390E024E733E0E0CF45
:1050E00080E189BD82E189BD09B400FEFDCF8091D8
:1050F000D8008F7D8093D8008091E00082608093FB
:10510000E0008091E00081FDFCCF0895AF92BF9256
:10511000CF92DF92FF920F931F93CF93DF936C0197
:10512000EB018A010E94E529F82E811123C00115A7
:10513000110539F0F80180819181C81BD90BC80E87
:10514000D91EB12CA12C2097A9F08091E80085FDF3
:1051500022C08091E8008E778093E8000115110548
:10516000A1F0F80180819181A80EB91EB182A082C0
:1051700085E0F82E8F2DDF91CF911F910F91FF9039
:10518000DF90CF90BF90AF9008950E94E5298823CB
:10519000D1F2F82EEFCFF60181916F018093F100EB
:1051A0002197FFEFAF1ABF0ACECFFC0180914806CE
:1051B0009091490686179707A0F06115710529F4AB
:1051C0009091E8009E779093E80090E0611571055A
:1051D00051F4911108C08091E80082FF34C080E052
:1051E0000895BC01F2CF809141068823C1F185303A
:1051F000C1F18091E80083FD30C08091E80082FD1C
:10520000EACF8091E80080FFE1CF8091F300209108
:10521000F200382F6115710519F02830310558F06A
:1052200091E02830310509F090E02091E8002E77D8
:105230002093E800CBCF81918093F10061507109F8
:105240002F5F3F4FE7CF80914106882341F08530A3
:1052500041F08091E80083FFBECF81E0089582E0B5
:10526000089583E00895FC018091480690914906D5
:1052700086179707A0F06115710529F48091E80061
:105280008E778093E80090E06115710551F49111DB
:1052900008C08091E80082FF35C080E00895BC011D
:1052A000F2CF809141068823C9F18530C9F1809100
:1052B000E80083FD31C08091E80082FDEACF809153
:1052C000E80080FFE1CF8091F3002091F200382FB9
:1052D0006115710519F02830310558F091E028303A
:1052E000310509F090E08091E8008E778093E80026
:1052F000CBCF84918093F1003196615071092F5F7B
:105300003F4FE6CF80914106882341F0853041F040
:105310008091E80083FFBDCF81E0089582E0089589
:1053200083E00895982F973028F08F708093E900DC
:1053300081E008959093E900242F762F50E098178C
:1053400031F07091EC002091ED005091F00021FDC2
:1053500002C09F5FE8CF3091EB003E7F3093EB00BF
:105360003091ED003D7F3093ED003091EB003160E6
:105370003093EB007093EC002093ED005093F0001D
:105380002091EE0027FDE5CF80E008958091420650
:1053900087FF13C08091E80082FF06C08091E8007B
:1053A0008B778093E80004C0809141068111F2CF91
:1053B0000895809141068823D9F38091E80080FF09
:1053C000F8CF8091E8008E77ECCF2091E400309107
:1053D000E50095E6A9012091EC00822F817020FF65
:1053E00006C08091E80080FF06C080E0089520910B
:1053F000E80022FD1AC080914106882389F085309B
:1054000089F08091EB0085FD0FC02091E400309180
:10541000E50042175307F9F29150E1F684E0089550
:1054200082E0089583E0089581E008950E94842A2F
:105430000E948C2AE0EEF0E0808181608083E8EDBC
:10544000F0E080818F77808319BCA7EDB0E08C916C
:105450008E7F8C9380818F7E80831092400608958A
:105460000F931F93CF93DF930E94842A0E948C2A6C
:10547000C8EDD0E088818F778883888180688883B1
:1054800088818F7D888319BC1092410610923D0659
:1054900010923F0610923E0600EE10E0F801808167
:1054A0008B7F808388818160888342E060E080E038
:1054B0000E949229E1EEF0E080818E7F8083E2EE0F
:1054C000F0E0808181608083808188608083F80142
:1054D00080818E7F8083888180618883DF91CF91F6
:1054E0001F910F910895E8EDF0E080818F7E808319
:1054F000E7EDF0E080818160808384E082BF81E01D
:10550000809340060C94302AE8EDF0E080818E7F95
:1055100080831092E20008951092DA001092E10068
:1055200008951F920F920FB60F9211242F933F935D
:105530004F935F936F937F938F939F93AF93BF939B
:10554000EF93FF938091E10082FF0BC08091E20016
:1055500082FF07C08091E1008B7F8093E1000E9471
:10556000FB2C8091DA0080FF19C08091D80080FF69
:1055700015C08091DA008E7F8093DA008091D90087
:1055800080FF96C080E189BD82E189BD09B400FE3B
:10559000FDCF81E0809341060E94F8268091E100D2
:1055A00080FF19C08091E20080FF15C08091E20069
:1055B0008E7F8093E2008091E20080618093E20020
:1055C0008091D80080628093D80019BC85E08093D8
:1055D00041060E940A278091E10084FF2BC0809140
:1055E000E20084FF27C080E189BD82E189BD89B5E1
:1055F000982F917080FFFBCF8091D8008F7D809392
:10560000D8008091E1008F7E8093E1008091E200DC
:105610008F7E8093E2008091E20081608093E200BF
:1056200080913D06882309F449C084E080934106B7
:105630000E940B278091E10083FF29C08091E20046
:1056400083FF25C08091E100877F8093E10082E0A5
:105650008093410610923D068091E1008E7F8093F9
:10566000E1008091E2008E7F8093E2008091E20071
:1056700080618093E20042E060E080E00E94922935
:105680008091F00088608093F0000E940927FF91CC
:10569000EF91BF91AF919F918F917F916F915F91AA
:1056A0004F913F912F910F900FBE0F901F90189523
:1056B00019BC109241060E94062770CF8091E3002A
:1056C00087FD93E090934106B3CF1F920F920FB6E0
:1056D0000F9211242F933F934F935F936F937F9378
:1056E0008F939F93AF93BF93CF93DF93EF93FF93EA
:1056F000D091E900DF708091EC00C82FC17080FD6F
:10570000C0E81092E9008091F000877F8093F0005C
:1057100078940E94A92B1092E9008091F000886093
:105720008093F000CD2BCF70C093E900FF91EF91F3
:10573000DF91CF91BF91AF919F918F917F916F91A9
:105740005F914F913F912F910F900FBE0F901F903F
:1057500018951F93CF93DF93CDB7DEB7AA970FB6F7
:10576000F894DEBF0FBECDBF82E496E02091F10039
:10577000FC012193CF01F6E08A349F07B9F70E941C
:1057800016278091E80083FF1EC180914206909108
:1057900043069A3008F017C1E92FF0E0E550F14DCB
:1057A0000C946E2E803899F0823809F00CC18091EB
:1057B00046068F70873008F006C18093E90080911B
:1057C000EB0085FB882780F91092E90006C08091E4
:1057D0003E0690913F06911182609091E800977F7C
:1057E0009093E8008093F1001092F1008091E8001E
:1057F0008E77E5C0882309F4D3C0823009F0E3C076
:10580000809144068111D6C0809146068F702FEF9B
:10581000280F263008F0D7C08093E9002091EB00D4
:1058200020FFC8C0933031F48091EB0080628093F8
:10583000EB00C0C09091EB0090619093EB0021E0F1
:1058400030E001C0220F8A95EAF72093EA00109217
:10585000EA008091EB008860EACF8111B4C010911A
:1058600044061F778091E3008078812B8093E300CA
:105870008091E800877F8093E8000E94C62980918C
:10588000E80080FFFCCF8091E30080688093E30014
:1058900082E0111183E08093410695C080588230E8
:1058A00008F091C080914406909145068C3D23E01C
:1058B0009207A1F583E08A838AE289834FB7F8943F
:1058C000DE01139620E03EE051E2E32FF0E050933A
:1058D0005700E49120FF03C0E295EF703F5FEF7047
:1058E0008E2F90E0EA30C0F0C7968D939D932F5F86
:1058F000243159F74FBF8091E800877F8093E800FB
:105900006AE270E0CE0101960E94D5288091E800FD
:105910008B778093E80057C0C096E7CF609146062A
:1059200070914706AE014F5F5F4F0E941628BC0181
:10593000892B09F448C09091E800977F9093E80084
:1059400089819A810E943329E1CF8038E1F58091E5
:10595000E800877F8093E80080913D068093F10006
:1059600045CF811130C090914406923060F580910E
:10597000E800877F8093E80090933D060E94C62947
:1059800080913D06882311F084E005C08091E300FA
:1059900087FDFACF81E0809341060E940C2713C057
:1059A00080914406813079F481E0933009F080E001
:1059B00080933F061092E9008091E800877F8093F2
:1059C000E8000E94C6298091E80083FF0AC0809108
:1059D000E800877F8093E8008091EB0080628093ED
:1059E000EB00AA960FB6F894DEBF0FBECDBFDF91D5
:1059F000CF911F9108950895CF93809141068823F8
:105A0000A1F0C091E900CF709091EC00892F8170D6
:105A100090FD80E8C82B1092E9008091E80083FD9A
:105A20000E94A92BCF70C093E900CF9108950E94E6
:105A3000162A109241060895E8EDF0E08081806119
:105A400080838AE18A95F1F700C08091D900817046
:105A500008950E94302D6894B1110C94BF2D0895C3
:105A60000E94A42D88F09F5798F0B92F9927B7511D
:105A7000B0F0E1F0660F771F881F991F1AF0BA95F2
:105A8000C9F714C0B13091F00E94BE2DB1E0089565
:105A90000C94BE2D672F782F8827B85F39F0B93F57
:105AA000CCF3869577956795B395D9F73EF49095A5
:105AB0008095709561957F4F8F4F9F4F0895E89423
:105AC00009C097FB3EF490958095709561957F4F46
:105AD0008F4F9F4F9923A9F0F92F96E9BB279395F4
