:100000000C947C020C94C3020C94C3020C94161141
:100010000C94C3020C94C3020C94C3020C94C3024C
:100020000C94C3020C94C3020C9476230C944A24BF
:100030000C94B11E0C94C3020C94C3020C94C30222
:100040000C94C3020C94C3020C94C3020C94C3021C
:100050000C94C3020C94081F0C94C3020C94C302AA
:100060000C94C3020C94C3020C94C3020C94C302FC
:100070000C94C3020C94C3020C94C3020C94C302EC
:100080000C94C3020C94C3020C94C3020C94C302DC
:100090000C94C3020C94C3020C94C3020C94C302CC
:1000A0000C94C3020C94C3020C94C302084AD73BBD
:1000B0003BCE016E84BCBFFDC12F3D6C74319ABD37
:1000C00056833DDA3D00C77F11BED9E4BB4C3E915B
:1000D0006BAAAABE000000803F05A84CCDB2D44E4A
:1000E000B93836A9020C50B9918688083CA6AAAA4C
:1000F0002ABE000000803F07634236B79BD8A71A8C
:1001000039685618AEBAAB558C1D3CB7CC5763BD99
:100110006DEDFD753EF6177231BF000000803F089F
:10012000000000BE922449123EABAAAA2ABECDCC42
:10013000CC4C3E00000080BEABAAAAAA3E00000044
:1001400000BF000000803F0000000000084178D39D
:10015000BB4387D1133D190E3CC3BD4282AD2B3E3C
:1001600068EC8276BED98FE1A93E4C80EFFFBE01DC
:10017000C4FF7F3F00000000000029001E001F0098
:1001800020002100220050002B0014001A0008005B
:10019000150017005200E1000400166407610962AF
:1001A0000A005100E0001D001B00060019000500B8
:1001B0004F00000000002F003000015128002800EF
:1001C000000000004C0035002B004A0000005200E7
:1001D000230024002500260027002D0050001C00CD
:1001E00018000C00120013002A0028000B000D62FA
:1001F0000E610F64336834005100110010003600A6
:100200003700380031004F002C0002512E022E0022
:100210000000000000004D004C00E300E200000080
:10022000000035021E021F0220022102220250009D
:1002300001004B0052004E0001002F0052004A0006
:10024000500051004F004D002602510001000100F6
:1002500001000100010001004F000000000001004A
:100260000100010001002800000000000100010061
:100270000100010000005200230224022502260290
:1002800027024C002B0330005F00600061002E024B
:100290000100280027025C005D005E002D00310097
:1002A0005100620059005A005B002E002D022B0104
:1002B0000100010001000100000000000000010039
:1002C0000100010001000000000045003A003B0071
:1002D0003C003D003E005000010001000100010013
:1002E00001002F0052000100010000000200010087
:1002F000260251000100010001000100010001007F
:100300004F00000000000100010001000100280072
:100310000000000001000100010001000000520087
:100320003F004000410042004300440050003000C4
:100330000100010001000100010028002702010066
:10034000010001000100A9005100010001000100AD
:100350000100A800AA004F000100010001000100F7
:100360000000000000000100010001000100000089
:1003700000005003680061006E00640077006900AF
:100380007200650064002F00640061006300740067
:1003900079006C005F006D0061006E007500660002
:1003A0006F0072006D002F003500780036005F008E
:1003B0006E006100760073007700690074006300CE
:1003C000680000000E037400730068006F00720084
:1003D000740000000403090409025400030100A092
:1003E000FA090400000103010100092111010001C3
:1003F0002240000705810308000A090401000103E7
:1004000001020009211101000122470007058203B2
:1004100008000A090402000103000000092111017B
:1004200000012232000705830320000A1201100197
:10043000000000084D4436350100010200010501AD
:100440000980A101850319012AB700150126B7000B
:10045000950175108100C0050C0901A101850419E1
:10046000012AA002150126A002950175108100C085
:1004700005010902A1010901A100050919012908C5
:100480001500250195087501810205010930093122
:100490001581257F95027508810609381581257F0C
:1004A000950175088106050C0A38021581257F958E
:1004B0000175088106C0C005010906A101050719DB
:1004C000E029E71500250195087501810295017560
:1004D0000881010507190029FF150026FF00950670
:1004E0007508810005081901290595057501910216
:1004F000950175039101C00011241FBECFEFDAE012
:10050000DEBFCDBF04B603FE27C08091D802909114
:10051000D902A091DA02B091DB028730904BA7405C
:10052000B04BD1F41092D8021092D9021092DA0294
:100530001092DB0214BE84B7877F84BF0FB6F89495
:10054000A89580916000886180936000109260009F
:100550000FBEE0E0F8E3099511E0A0E0B1E0EAE0C9
:10056000F7E502C005900D92AC3AB107D9F722E049
:10057000ACEAB1E001C01D92A83DB207E1F70E94CC
:10058000B3200C945F2B0C9400000F931F93CF9318
:10059000DF930F92CDB7DEB7198204E610E021E0B9
:1005A00030E0AE014F5F5F4F69EF84E10E94AF1210
:1005B000898181700F90DF91CF911F910F910895E4
:1005C000CF93DF9300D000D00F92CDB7DEB7198262
:1005D0008A836B834C832D8324E630E045E050E032
:1005E000BE016F5F7F4F84E10E9488120F900F90D1
:1005F0000F900F900F90DF91CF9108950F931F935D
:100600009B0104E610E0AC0164E084E10E94AF12BB
:100610001F910F9108958093C30108950E94F91EC0
:1006200021E0893B9B4008F420E0822F08953F920F
:100630004F925F926F927F928F929F92AF92BF92F2
:10064000CF92DF92EF92FF920F931F93CF93DF939E
:10065000CDB7DEB72D970FB6F894DEBF0FBECDBF76
:100660008C01CE01019625E0FC0111922A95E9F753
:1006700065E070E00E94FE02EB808C812E2D281B2D
:10068000330B3B872A87CA808981EC2DE81BFF0B3F
:10069000FD87EC873D80B901330F880B990B0E94D1
:1006A00098276B017C012C853D85B901330F880BA0
:1006B000990B0E9498272B013C01A70196010E94EB
:1006C0008E2620E030E0A9010E940F264B015C013C
:1006D000A7019601C701B6010E9497286E837F8308
:1006E00088879987A3019201C301B2010E949728CC
:1006F0009B01AC016E817F81888599850E940F26C0
:100700000E9462292B013C01C501B4010E94ED2623
:100710009B01AC01C301B2010E9497280E9460278F
:100720006E837F8388879987C501B4010E9454290D
:100730009B01AC01C301B2010E9497280E9460276F
:100740002E813F81F8013183208373836283358357
:10075000248377836683832D881F8827881F80875B
:10076000832D81708187428653866486758686864E
:100770009786A08AB18A2A85228B3C85338B248B6D
:10078000358BC8012D960FB6F894DEBF0FBECDBFD6
:10079000DF91CF911F910F91FF90EF90DF90CF905D
:1007A000BF90AF909F908F907F906F905F904F9091
:1007B0003F9008950F931F93CF93DF93C82FD62FA9
:1007C000142F022F8091A4029091A5020E94F91E7D
:1007D000892BC1F08091A4029091A5020E940E0382
:1007E000811110C00E94E11E9093A5028093A40283
:1007F000202F412F6D2F8C2FDF91CF911F910F91C3
:100800000C94E00280910001811111C0202F412F32
:100810006D2F8C2F0E94E0020E94E11E9093A50292
:100820008093A402DF91CF911F910F910895809141
:10083000A4029091A5020E940E03882399F320E060
:1008400040E060E080E0D8CF26E440E060E080E077
:100850000C94E0020F93FC016183428324830383A1
:100860000F910895DC01FB01808191818038910511
:100870004CF08FE78C93808191818F579109918300
:100880008083089581382FEF92073CF481E88C93A0
:100890008081918181589F4FF2CF8C931182108279
:1008A0000895EF92FF920F931F93CF93DF93CDB7ED
:1008B000DEB72A970FB6F894DEBF0FBECDBF6B83AD
:1008C0007C838D83088719872A874E1119C0552389
:1008D00011F0F51215C08B81882319F098859813B3
:1008E0000FC08D81882319F09A85981309C09C81C7
:1008F000992321F081E02985291303C080E001C0FC
:1009000081E081702A960FB6F894DEBF0FBECDBF8E
:10091000DF91CF911F910F91FF90EF9008954F922B
:100920005F926F927F928F929F92AF92BF92CF927F
:10093000DF92EF92FF920F931F93CF93DF93CDB788
:10094000DEB766970FB6F894DEBF0FBECDBF8C0141
:100950000E94C502882309F4BDC08091B90190911D
:10096000BA01009709F0B1C00E94E11E8160909326
:10097000BA018093B901CE0101960E9417038A85BE
:100980008111D7C0CB84DC84ED84FE848F84988869
:10099000A988BA8820E030E040EC5FE3C701B601E7
:1009A0000E9404292B013C0120E030E040E050E4AB
:1009B000C701B6010E948A2818160CF0CEC080919B
:1009C000B7019091B8010E94F91E892B09F0BBC0B4
:1009D0000E94E11E9093B8018093B701A701960190
:1009E000C701B6010E940F2620E030E040EC5FE333
:1009F0000E940429A30192010E940F262B013C01B1
:100A0000C501B4010E94ED26A30192010E9497281E
:100A10006B017C016091C1017091C201072E000C35
:100A2000880B990B0E949827A70196010E940F2618
:100A30000E9460277093C2016093C101C501B40197
:100A40000E945429A30192010E9497284B015C0146
:100A50006091BF017091C001072E000C880B990BAB
:100A60000E949827A50194010E940F260E946027EA
:100A70007093C0016093BF016091BD017091BE0190
:100A8000072E000C880B990B0E949827A501940152
:100A90000E940E260E9460277093BE016093BD01E4
:100AA0006091BB017091BC01072E000C880B990B63
:100AB0000E949827A70196010E940F260E94602796
:100AC0007093BC016093BB0105C00E94F91E06979C
:100AD00008F04ACF8091C1019091C2012091BF01DD
:100AE0003091C001822B932B2091BB013091BC012E
:100AF000822B932B2091BD013091BE01822B932B31
:100B0000892BB1F566960FB6F894DEBF0FBECDBF48
:100B1000DF91CF911F910F91FF90EF90DF90CF90D9
:100B2000BF90AF909F908F907F906F905F904F900D
:100B30000895F80180819985992319F08160808357
:100B4000C9CF8E7FFCCF8091B7019091B8010E94F0
:100B5000F91E8838934108F43BCF0E94E11E909320
:100B6000B8018093B701A3019201C301B20144CF40
:100B700061EC71E086EB91E00E9432046FEB71E072
:100B800085EB91E00E9432046DEB71E084EB91E023
:100B90000E9432046BEB71E083EB91E00E9432041F
:100BA0008091B601F80181838091B50182838091A3
:100BB000B40183838091B30184838CCFEF92FF9241
:100BC0000F931F93CF93DF9300D000D00F92CDB738
:100BD000DEB70E94780C29833A834B835C836D8354
:100BE0000E944D0C882309F454C06A814B812D81E9
:100BF0000C811A821B821D821C828091C30181118B
:100C00006DC0042E000C550B062E000C770B10E067
:100C100000E030E020E0CE0101960E942A04E0903E
:100C2000AE01F090AF010091B0011091B10120919F
:100C3000B20149815A816B817C818D810E9451046E
:100C4000882309F456C010920001CE0101960E943B
:100C50001A131A821B821C821D8285E0FE013196C6
:100C6000AEEAB1E001900D928A95E1F749815A818F
:100C70006B817C818D810E94980C0F900F900F905A
:100C80000F900F90DF91CF911F910F91FF90EF90F8
:100C900008950E944F0C8111A8CFE090AE01F09012
:100CA000AF010091B0011091B1012091B2014981D1
:100CB0005A816B817C818D810E9451048823E9F0E7
:100CC000109200018091C30181111BC0098120E0B5
:100CD00040E06B818A810E945910BBCF002E000C2E
:100CE000110B022E000C330B50E040E070E060E08E
:100CF00092CF81E080930001ACCF81E0809300012E
:100D0000E1CF00E02C814D8160E080E0E4CFCF9323
:100D1000DF9300D000D00F92CDB7DEB70E94780CE1
:100D200029833A834B835C836D8382E00E94DE1AC1
:100D3000882319F08091A602898320E540E060E0D5
:100D400080E00E94DA030E944D0C81112BC0CE017D
:100D500001960E948F0460918302709184028091B9
:100D60008502909186020E945608813039F18823CD
:100D700011F08230E1F020E540E060E080E00E9488
:100D8000DA0349815A816B817C818D810E94980CA4
:100D90000E94DE050F900F900F900F900F90DF9143
:100DA000CF9108950E944F0C882389F2D4CF20E080
:100DB0004FE569E980E00E94E002E3CF20E040E0F7
:100DC00061E789E9F8CFCF93FB018130910599F074
:100DD000009721F00297E9F0C1E006C0C281CC2360
:100DE00031F081E00E940B038C2FCF91089580E0B9
:100DF0000E940B03F1CFC2818091A602CC2329F07F
:100E000081608093A602C0E0EFCF8E7F8093A60220
:100E1000EBCFC2818091A602CC2311F08260F1CF8A
:100E20008D7FF4CFCF93C62F60918302709184029F
:100E300080918502909186020E945608823091F43A
:100E4000CC2351F08BE291E00E9496078EE40E9441
:100E5000021581E0CF9108958BE293E00E949607FE
:100E60008BE4F5CFCC23E1F3F1CFCF93DF939C015B
:100E70003A9521153F4168F5EC01CC27D170DC0192
:100E8000AA27B270AC01442754709C012227387005
:100E900094FF11C080E1CD2B09F480E0AB2B09F069
:100EA0008062452B09F08064232B09F08068FB01E8
:100EB000DF91CF91099481E0CD2B09F480E0AB2B39
:100EC00009F08260452B09F08460232B81F3886050
:100ED000EECFDF91CF910895CF93DF93EC01805E49
:100EE0009109089720F06EE477E1209711F46AE009
:100EF00075E1CE010E9435078C2FDF91CF910C94C4
:100F00007D14CF93DF93EC010E94C314CE01805E69
:100F10009109089720F065E577E1209711F461E1E8
:100F200075E1CE01DF91CF910C943507CF93DF931C
:100F3000EC010E946C07CE01DF91CF910C948107E8
:100F400081E008950C94E30608950C94A4071F9380
:100F5000CF93DF9300D000D00F92CDB7DEB7498397
:100F60005A836B833091130289819A8131111DC09C
:100F70006623B9F02223A9F00E94EE1B182F682FD8
:100F800089819A810E949A1B69817A81812F0F90B1
:100F90000F900F900F900F90DF91CF911F910C94B5
:100FA000B2080E94C61B182FEFCF0E94EE1B69816A
:100FB0007A81EDCFFC01262F4081518162817381BE
:100FC00084810C94A707CF93DF93EC0160E00E942B
:100FD000DA07BE01DF91CF910C94A5070E948D0A1C
:100FE0000C94B20A0C94B50A08950E946E170E94E0
:100FF000F4072FEF84E39CE0215080409040E1F71C
:1010000000C000000C94351F0F931F93CF93DF9304
:101010008C0161E00E94DA07EC01B8010E94A2078E
:101020008823A9F1B801CE010E94D40D882379F15B
:10103000B801CE010E94260E882349F1B801CE01E5
:101040000E94490F882319F1F8018281882361F0F9
:10105000CB35FDE5DF0721F170F4C115ECE5DE07C6
:10106000A1F0CF3DDC45C9F0C801DF91CF911F91C0
:101070000F910C94A007CC358DE5D807A1F0CD35A4
:10108000DD4591F70E94951CEFCF0E94F50780E0A7
:10109000DF91CF911F910F9108950E94FB1DF7CF13
:1010A0000E949E1CE1CF0E94A11CDECFCF92DF9256
:1010B000EF92FF926C01EE24FF2420E0C114D104D2
:1010C000E104F10419F0C701B60120E1C72ED82EC2
:1010D000E92EFF24C114D104E104F10419F0285FC2
:1010E000C701B6016B017C0154E0F694E794D794F4
:1010F000C7945A95D1F7C114D104E104F10419F051
:101100002C5FC701B6016B017C0142E0F694E794C5
:10111000D794C7944A95D1F7C114D104E104F104DE
:1011200019F02E5FC701B60196958795779567955B
:10113000672B682B692B09F02F5F822FFF90EF90B0
:10114000DF90CF90089508950C94A30881E008954E
:101150000C94A608CF93C82F0E94A4088C2FCF917F
:101160000C94A808972F70E027E0929F600D711DE6
:101170001124FB0194E5899FE00DF11D1124EE0F70
:10118000FF1FE658FE4F859194910895CF93DF930A
:101190000E94B2080E94B209EC01811522E5920773
:1011A000E8F5811531E5930708F0ACC0883E91055C
:1011B00010F5803E910570F5883A910570F4853AF6
:1011C000910508F078C08130910521F1009711F167
:1011D000049700F5D0E0C0E01DC08F3B9105D0F72B
:1011E000C85AD0E0CC0FDD1FC95EDE4F0990D88110
:1011F000C02DD4640FC0811540E5940708F066C087
:10120000C11580E4D80708F05EC0CE019A9581151B
:101210009F4100F7CE01DF91CF910895811536E50A
:10122000930718F5811545E5940708F083C0C115AB
:1012300084E5D80708F079C09C2F969596959E0175
:1012400023703327C115D34508F461C0C1E0D0E055
:1012500002C0CC0FDD1F2A95E2F730E2939FC00158
:101260001124C82BD92BDA68D5CFC1158AE5D80748
:1012700078F4C11599E5D90708F066C0C11528E5CD
:10128000D20708F4A7CFDC2FCC27C06FD06AC2CF1B
:10129000CE0190568115904208F09CCF8D2F8F7112
:1012A0000E94490A90E0982F882788279F719C0107
:1012B0002C2BE90147C0C55AD0E0CB5BDE4FC8817B
:1012C000D0E0D064A7CFDF70D06AA4CFE4E09695D9
:1012D0008795EA95E1F783702C2F26952695237044
:1012E00040E2249F90011124382B8C2F8370C1E0A1
:1012F000D0E002C0CC0FDD1F8A95E2F7C22BD32BC2
:10130000DC6888CFD82FCC27C16FD06A83CFC1E0EB
:10131000D0E002C0CC0FDD1F2A95E2F720E2929FB9
:10132000C0011124C82BD92BEBCFDC2FCC27C46FE5
:10133000D06A70CF0E94490AC82FD0E0DC2FCC279A
:10134000CC27DF71D06266CF8C2F8F700E94490A44
:1013500034E0D695C7953A95E1F7CF709C2FEC0114
:10136000D06958CF82389105B1F1B0F4813391053D
:1013700009F475C048F48932910509F469C08A32CC
:10138000910509F473C008958533910509F459C096
:101390008933910501F10895833E9105A9F138F44F
:1013A000803E9105F9F0823E910549F10895863E0F
:1013B0009105A9F1873E9105C9F1843E910519F582
:1013C0002091A80221FF1FC08091A70284FD14C0B4
:1013D00087EE90E008952091A7022370A1F080EE9F
:1013E00090E008952091A70220FD47C03091A80207
:1013F00030FF09C024FF44C090E080E004C0209189
:10140000A70222FDF7CF08952091A70222FD3BC03D
:101410003091A80230FDE3CF24FFF5CFEDCF20912E
:10142000A70223FFF0CF24FDE7CFD2CF2091A70260
:1014300023FD2CC03091A80231FFEECF84EE90E066
:1014400008952091A70225FFDECF89E290E008955C
:101450002091A70225FFD7CF85E390E00895209142
:10146000A70226FFD0CF8AE290E008952091A7023C
:1014700026FFC9CF81E390E0089589E390E00895C5
:1014800083EE90E0089582EE90E0089586EE90E07D
:1014900008959091A70292FF06C0282F2871283046
:1014A000F9F4877F846093FF06C0282F28712831C4
:1014B000F1F4877E84612091A80220FF06C0382FB6
:1014C00038713830D9F4877F816021FF06C0282F1A
:1014D00028712831D1F4877E816194FD877E08953B
:1014E000282F24712430F9F68B7F8860DCCF282FD9
:1014F0002471243101F78B7E8861DDCF382F317163
:10150000313019F78E7F8860E0CF282F217121318B
:1015100021F78E7E8861E1CF08950E94561D8111CA
:1015200002C00E94FB1D0E94611D809398020E94D0
:10153000691D9093A8028093A7020E948C0A0E94C2
:10154000651D682F70E090E080E00E947C1A609139
:1015500083027091840280918502909186020C949E
:10156000B61A08950C94B10A08950C94B40AE82FA1
:10157000F0E0EB54FD4F80810895089580EA8A954C
:10158000F1F7089500C008950C94BE0AF894E82F6E
:10159000E295EF70F0E031A1282F2F7081E090E00C
:1015A00001C0880F2A95EAF7982F9095932391A36D
:1015B00092A1892B82A37894089508950C94DD0A52
:1015C0000F931F93CF93DF930E94670C80910101CB
:1015D0008091010196E0811190E09093C20286E033
:1015E000891B8093C10286EF0E94C60A87EF0E9482
:1015F000C60A81E30E94C60A83E30E94C60A82E308
:101600000E94C60A86E30E94C60AC8E4D1E00FE43D
:1016100011E089910E94C60A0C171D07D1F7E9EA6B
:10162000F2E0A5EBB2E011921D9282E0E53BF807F3
:10163000D1F786E00E94160C0E94EE07DF91CF9151
:101640001F910F910C94710CFF920F931F93CF93E6
:10165000DF9300D000D000D0CDB7DEB70E944F0C92
:10166000F82E6091C202882309F451C08E010F5FE9
:101670001F4F86E0F80111928A95E9F7862F90E0D6
:10168000B8018B549D4F0E947F0F811123C0809120
:10169000C4018F5F8093C4018630B8F1E091C1022C
:1016A000F0E0EB54FD4FD801CE01079611921D9248
:1016B000A817B907D9F70E94F2078F2D26960FB603
:1016C000F894DEBF0FBECDBFDF91CF911F910F9178
:1016D000FF9008951092C401A091C102B0E0AB54F4
:1016E000BD4F9E01295F3F4FF12C4D91F801919123
:1016F0008F01491731F0AD0141505109FA01908332
:10170000F82E0217130789F7D6CFF12CD4CF70E04B
:101710006B547D4F8091C10290E08B549D4F0E948D
:10172000E40F0E94DE0AC9CFCF92DF92EF92FF92C0
:101730000F931F93CF93DF930FE411E089EAE82E14
:1017400082E0F82EC0E0CC24C394D12CF801819122
:101750008F01F894E82FE295EF70F0E021A18F70EF
:10176000A60102C0440F551F8A95E2F7CA01922FC5
:10177000982B91A392A18095892382A378940E94AB
:10178000C20AE8E4F1E030E020E0D0E04191A42F8B
:10179000A295AF70B0E090968C9190E04F7002C02F
:1017A000959587954A95E2F780FD3CC08C2D022ED9
:1017B00001C0880F0A94EAF7D82B2F5F3F4F2730DC
:1017C000310521F7F801319780810E94C60A0E94F5
:1017D000C40AF7018081D81739F1D08381E0C82B82
:1017E000FFEFEF1AFF0A41E00535140709F0AECF0D
:1017F0006091C20270E06B547D4F2C2F46E089EA65
:1018000092E00E94170C0E94240BC11101C0C82F46
:101810008C2FDF91CF911F910F91FF90EF90DF9070
:10182000CF90089580E0C8CF80E0D9CF0895FF928F
:101830000F931F93CF93DF93F82E092F162FD72FD7
:10184000C42F222349F081E08093C7010E94E11E4A
:101850009093C6018093C5018091C7018823A1F0B0
:101860008091C5019091C6010E94F91E069760F013
:10187000EF2DF02FA12FBD2FCE0FDF2FD11DEC1795
:10188000FD0741F41092C701DF91CF911F910F9195
:10189000FF90089581918D93F2CF0C94FD1D80915E
:1018A000C801811107C00E940126882351F081E000
:1018B0008093C80181E09091C801913009F080E0E7
:1018C000089582E08093C8010E94FC25F3CF0E9416
:1018D0004D0C809301010E944F0C81110C94730FE9
:1018E00008950E944F0C811102C00C94790F089545
:1018F000CF93DF9300D000D00F92CDB7DEB785E055
:10190000E9ECF1E0DE01119601900D928A95E1F784
:1019100029813A814B815C816D8170E080E090E0AB
:101920000F900F900F900F900F90DF91CF9108952F
:10193000CF93DF9300D000D00F92CDB7DEB74983AD
:101940005A836B837C838D8385E0FE013196A9ECFD
:10195000B1E001900D928A95E1F70F900F900F90F2
:101960000F900F90DF91CF9108950C9412078498F7
:101970008C9A85988D9A8FB1829581707D990EC0D1
:1019800090E0892B8093D3019091010181E0982709
:101990009093CF01891B8093CE01089592E0F1CFFF
:1019A000CF93E091D301EE0FEE0FE093D3014FB14F
:1019B00044FB882780F94FB145FB222720F945FFDA
:1019C00002C022E030E0822BE82BE093D301C091EB
:1019D000CF01EF70F0E0E55AFE4F80819091D20187
:1019E000890F8093D20120E0843064F0EC2FF0E086
:1019F000E053FE4F80818F5F808360E08C2F0E94D8
:101A0000B50C21E08091D2018D3F64F4EC2FF0E021
:101A1000E053FE4F80818150808361E08C2F0E94D3
:101A2000B50C21E08091D201082E000C990B64E0E6
:101A300070E00E94EF2A8093D201822FCF91089507
:101A4000E091CF01F0E0E053FE4F2081FC012083C4
:101A50000895FF920F931F93CF93DF93D091CE0100
:101A60000D2F10E000531E4FFC01C081F801808152
:101A7000C81BFC2E80E01F147CF09C2FC7FD90E05B
:101A8000C91BC11114C08823E9F0DF91CF911F91C8
:101A90000F91FF900C946413FA94F80180818F5F8A
:101AA000808360E08D2F0E94B50C81E0E4CFCF5F92
:101AB000F80180818150808361E08D2F0E94B50CF8
:101AC00081E0DFCFDF91CF911F910F91FF900895BB
:101AD0000F931F93CF93DF93C42FD22FFC018281EA
:101AE0008823C9F04093D6010E94E11E9093D5014E
:101AF0008093D40180E28C0F883008F050C0C7700A
:101B000081E001C0880FCA95EAF7DF91CF911F915C
:101B10000F910C940A151091D601141335C08091C1
:101B2000D4019091D5010E94F91E883C910560F581
:101B3000C0E2CD0F1D17B9F080E2810F883040F46C
:101B4000177081E001C0880F1A95EAF70E941115FD
:101B5000C83048F481E09D2F977001C0880F9A9596
:101B6000EAF70E940A15802F0E940215C830B8F4C7
:101B7000D77081E001C0880FDA95EAF7DF91CF9145
:101B80001F910F910C94111580E28C0F883038F45E
:101B9000C77081E001C0880FCA95EAF7EFCFDF91E7
:101BA000CF911F910F9108950F939C01CB01243F7A
:101BB0004CE5340759F1A8F4293DFCE53F0701F154
:101BC0002A3D4CE53407D1F1283D3C4591F406E22D
:101BD00021EE41EE68ED7CE50E94680D80E00F91FA
:101BE0000895263FFCE53F07E9F0B0F0273F3C456C
:101BF000F9F0FC018281882339F11092D601EFCFF0
:101C000007E225EE45EE69ED7CE5E6CF06E221EE42
:101C100040EE64EF7CE5E0CF07E225EE44EE65EFB1
:101C20007CE5DACF06E221EE42EE66EF7CE5D4CF2A
:101C300007E225EE46EE67EF7CE5CECF08E221E035
:101C400045EE6AED7CE5C8CF81E0C9CFCF93DF9345
:101C5000EC01FB018281882309F419C1C230FCE543
:101C6000DF07C0F1C6319CE5D90730F09E012B5F3C
:101C70003C452930310570F50E94691D9093A802FA
:101C80008093A702C031ECE5DE0709F4CFC008F06D
:101C90005BC0C8308CE5D80709F4B6C088F5C430FD
:101CA000ECE5DE0709F4A8C0C0F4C2308CE5D80723
:101CB00009F49CC08091A7028260C330DC4509F41E
:101CC00098C08091A7029091A8020E94771D0E945F
:101CD0006E1780E0DF91CF9108958091A702806117
:101CE000C630ECE5DE0709F484C08091A702886065
:101CF000C730DC4508F47DC08091A702806279C0BE
:101D0000CC308CE5D80709F489C070F48091A70223
:101D10008C60CA30ECE5DE0709F46BC008F478C0CB
:101D20008091A7028E7F65C0CE308CE5D80709F47C
:101D300079C08091A7028B7FCF30DC4508F459C071
:101D40008091A7028F7E55C0CC3FECE5DE0709F4F9
:101D500057C030F5C3318CE5D80709F46FC078F46B
:101D6000C131ECE5DE0709F465C0C231DC4509F09C
:101D7000A8CF0E946E178091A7028F773AC0C53115
:101D80008CE5D80709F462C008F476C08091A802F7
:101D90008160CB3FDC4509F094CF8093A80291CFBE
:101DA000C115FDE5DF0709F44DC088F48091A80254
:101DB0008D7FCE3F9CE5D90781F38091A8028E7F6D
:101DC000CF3FDC4550F38091A8028360E6CFC2305C
:101DD000FDE5DF0709F459C008F444C080E0C330D2
:101DE000DD4509F06ECF0E94071E6BCF8091A702E0
:101DF00081608093A70265CF8091A7028460F9CFAC
:101E00008091A8028260C9CF8091A7028064F1CF3F
:101E10000E946E178091A7028068EBCF8091A70285
:101E20008D7FE7CF8091A702877FE3CF8091A702C4
:101E30008F7DDFCF8091A7028F7BDBCF8091A702C0
:101E4000837FD7CF8091A8028C7FA7CF8091A702F4
:101E500082FB992790F921E0922790FB82F990FB71
:101E600083F9C7CF8091A802982F909591708E7FAB
:101E7000892B90FB81F991CF0E946E179091A70258
:101E8000892F97FB87F98058B4CF81E0ACCF81E0F0
:101E900021CFCF93DF93EB0186319C4511F50E9452
:101EA000A41C9A81992399F08A7A91E009F490E030
:101EB0009093D701811109C089E20E945E1C0E94A3
:101EC000E71C80E0DF91CF91089585E3F6CF809104
:101ED000D701811104C089E20E94651CF0CF85E31F
:101EE000FBCF81E0EFCF61E070E082E091E00C9405
:101EF000C71061E070E082E091E00C94CE100F9387
:101F00001F93CF93DF9300D000D00F92CDB7DEB7F1
:101F10008C010E946811009709F054C0F801DC019F
:101F2000AF51BE4F2C912193019686309105B9F7A0
:101F300087EE91E00E94290D0E944D0C8823B9F094
:101F40000E94780C29833A834B835C836D83509184
:101F5000E8015A836091E9016B838091EA018D83E6
:101F60007091EB017C834091EC010E94980C809170
:101F7000830290918402A0918502B09186028093A1
:101F8000D9019093DA01A093DB01B093DC01809139
:101F9000870290918802A0918902B0918A02809371
:101FA000DD019093DE01A093DF01B093E00181E0B9
:101FB0000F900F900F900F900F90DF91CF911F9186
:101FC0000F91089580E0F4CF30E020E0FC014191D2
:101FD000CF01F901EF51FE4F40832F5F3F4F263075
:101FE0003105A1F787EE91E00E94200D0E944D0C73
:101FF000811114C08091F1018093E8018091F0017A
:102000008093E9018091EF018093EA018091EE01D4
:102010008093EB018091ED018093EC014091D90117
:102020005091DA016091DB017091DC0180918302B3
:1020300090918402A0918502B091860248175907B9
:102040006A077B0781F08091D9019091DA01A09114
:10205000DB01B091DC018093830290938402A09312
:102060008502B09386024091DD015091DE016091BE
:10207000DF017091E0018091870290918802A09128
:102080008902B0918A02481759076A077B0781F0D5
:102090008091DD019091DE01A091DF01B091E0011E
:1020A0008093870290938802A0938902B0938A025A
:1020B00008950F938093F1016093F0014093EF0135
:1020C0002093EE010093ED010F9108958EE14A9B5C
:1020D00002C08150E1F74A9BFECF08955A9880E2F2
:1020E0008A95F1F75A9A0895FC013BE03A95F1F789
:1020F00098E020E080E031E040E14A95F1F7880F78
:102100004A9B02C08160232742E04A95F1F7000014
:1021100040E14A95F1F7915079F790E19A95F1F7FE
:1021200099B132E03A95F1F7000040E14A95F1F7B4
:1021300092FB992790F992272081920F908308951E
:10214000EF92FF920F931F93CF93DF930F92CDB730
:10215000DEB719828C017C01E60EF11C0E151F05FD
:1021600061F481E09981911180E00F90DF91CF912E
:102170001F910F91FF90EF9008950E946610CE017D
:1021800001960E947410F80181938F01E7CF90931C
:10219000F3018093F201529A5A9A08959093F301B1
:1021A0008093F20152985A9AEA9AE9E6F0E0808127
:1021B0008F7C808308956150770B91E001C0990F67
:1021C0006A95EAF720E031E0911108C0222391F0EE
:1021D0005A9A80E28A95F1F75A980895492F482330
:1021E00039F05A9A232740E24A95F1F79695ECCFB9
:1021F0005A98F9CF5A98EDCFFF920F931F93CF9330
:10220000DF93EC018C01060F111DC017D10731F4CB
:10221000DF91CF911F910F91FF900895F9900E9447
:102220006E1068E08F2D0E94DB10EFCF1F920F928F
:102230000FB60F9211242F933F934F935F936F9399
:102240007F938F939F93AF93BF93CF93DF93EF933E
:10225000FF935A98529AC091F201D091F3016D8187
:10226000662321F08E819F810E94FC100E946E10D7
:1022700080E18A95F1F75A9852985A9A80E18A95A6
:10228000F1F76A81662309F18B819C810E94A0107D
:10229000E881F981882311F088E001C082E0808321
:1022A0000E946610FF91EF91DF91CF91BF91AF91A6
:1022B0009F918F917F916F915F914F913F912F915E
:1022C0000F900FBE0F901F901895E881F981E4CF11
:1022D000CF93DF93C091F201D091F301F894529A19
:1022E0005A9885E08A95F1F7000052985A9A80E250
:1022F0008A95F1F74A9B0CC0529A5A9AE881F98163
:1023000081E08083789481E090E0DF91CF9108951F
:102310006D81662381F08E819F810E94A0108111C2
:102320000AC0529A5A9AE881F98182E080837894AF
:1023300082E090E0EACF0E94661080E28A95F1F791
:102340005A98529A80E18A95F1F76A81662321F0C2
:102350008B819C810E94FC100E946E10E881F981A3
:102360001082789490E080E0D0CFEF92FF920F93AC
:102370001F93CF93DF93182FEB011092BC0084EAD8
:102380008093BC000E94E11E7C018091BC0087FF0D
:1023900027C08091B900887F883029F08091B900EA
:1023A000887F8031D9F51093BB0084E88093BC000E
:1023B0000E94E11E8C018091BC0087FF24C0209107
:1023C000B900287F90E080E02831B1F081E090E012
:1023D000203411F490E080E09195819591090CC032
:1023E000CF3FDC0791F20E94E11E8E199F098C17E6
:1023F0009D0758F28EEF9FEFDF91CF911F910F91C4
:10240000FF90EF900895CF3FDC07A9F20E94E11EF4
:10241000801B910B8C179D0770F2ECCF8FEF9FEF15
:10242000EBCF0F931F93CF93DF93EB018093BB0010
:1024300084E88093BC000E94E11E8C018091BC0066
:1024400087FF11C02091B900287F81E090E02832F9
:1024500011F490E080E0919581959109DF91CF9101
:102460001F910F910895CF3FDC0741F30E94E11EB9
:10247000801B910B8C179D0708F38EEF9FEFEECF1B
:102480000F931F93CF93DF93EC0184EC8093BC00F8
:102490000E94E11E8C018091BC0087FF08C08091E2
:1024A000BB0090E0DF91CF911F910F910895CF3F36
:1024B000DC0789F30E94E11E801B910B8C179D079E
:1024C00050F38EEF9FEFEECF0F931F93CF93DF93D9
:1024D000EC0184E88093BC000E94E11E8C01809195
:1024E000BC0087FF08C08091BB0090E0DF91CF91D6
:1024F0001F910F910895CF3FDC0789F30E94E11EE1
:10250000801B910B8C179D0750F38EEF9FEFEECF42
:10251000CF92DF92EF92FF920F931F93CF93DF93AF
:102520006B018A017901B9010E94B511E6010C0D18
:102530001D1DC017D10761F424E92093BC00DF9171
:10254000CF911F910F91FF90EF90DF90CF90089562
:1025500097FDF2CFB70189910E941112EACFCF9275
:10256000DF92EF92FF920F931F93CF93DF93F82E9A
:10257000E62EEA016901B8010E94B51197FD15C068
:10258000B8018E2D0E94111297FD0FC0B8018F2D3A
:1025900081600E94B511F12CE12C21E0C21AD10812
:1025A000EC14FD0400F597FF11C024E92093BC0052
:1025B0001816190614F490E080E0DF91CF911F9176
:1025C0000F91FF90EF90DF90CF900895C8010E9487
:1025D000401297FD04C0FE01EE0DFF1D80832FEF1A
:1025E000E21AF20ADDCF97FDE0CFC8010E94641223
:1025F00097FDDBCFCC0DDD1D8883D7CF9093F901FC
:102600008093F8010895E091F801F091F901309775
:1026100021F00190F081E02D099480E00895E0918F
:10262000F801F091F901309721F00280F381E02D5B
:1026300009940895E091F801F091F901309721F0A3
:102640000480F581E02D099408952091F6013091E0
:10265000F7012817390771F09093F7018093F6017D
:10266000E091F801F091F901309721F00680F781AF
:10267000E02D099408952091F4013091F501281777
:10268000390771F09093F5018093F401E091F8011E
:10269000F091F901309721F00084F185E02D099443
:1026A00008950E94ED1E60930F02709310028093B4
:1026B00011029093120260930B0270930C028093AC
:1026C0000D0290930E0208950E94ED1E60930F027A
:1026D000709310028093110290931202609307028C
:1026E000709308028093090290930A02089585B7B7
:1026F000806885BF85B7806885BF0895089508956F
:102700000C947E1308950C9482130E94771384E531
:102710009DE10E94461F0E947F130C9480130C942D
:102720004F0C089508950E9491130C9492130E94E7
:10273000D81E0E942C1F0E94E00A0E94B70C0E9423
:1027400024040C948313AF92BF92CF92DF92EF9246
:10275000FF920F931F93CF93DF93CDB7DEB72A97E6
:102760000FB6F894DEBF0FBECDBF0E94940B81114F
:102770000E9451138BEFA82E81E0B82E10E000E0EC
:10278000C02E802F0E94B70AE82EF501F1905F015C
:10279000F81609F453C08091980281FD0E94BD0A89
:1027A0008F2D8E25D12CFF24F394982F9F2109F48F
:1027B00040C00E948F13882399F0DE82CF82EF20E1
:1027C00081E009F480E088870E94E11E8160782F13
:1027D0009A8789874E815F8168858A850E94461421
:1027E000F801E550FE4F8081F826F0820E94D00C5F
:1027F00081110E9464130E9487060E940313909126
:10280000FA01891791F10E9403138093FA012A9625
:102810000FB6F894DEBF0FBECDBFDF91CF911F91F1
:102820000F91FF90EF90DF90CF90BF90AF900C94FE
:10283000AA08D394FF0CF7E0DF12B7CF0F5F1F4F4A
:102840000C30110509F09CCF8FEF89838A831B829E
:102850000E94E11E8160782F9D838C8349815A817B
:102860006B818D810E944614C1CF2A960FB6F894D1
:10287000DEBF0FBECDBFDF91CF911F910F91FF90B3
:10288000EF90DF90CF90BF90AF900895DF92EF92DE
:10289000FF920F931F93CF93DF93CDB7DEB72B97A4
:1028A0000FB6F894DEBF0FBECDBF7A878B87F42EAC
:1028B000052F162FE72ED82E61110E94C41C1E82F0
:1028C0001D827E2DEC82DD824F2D502F612F8D2DAC
:1028D0009E812B960FB6F894DEBF0FBECDBFDF9161
:1028E000CF911F910F91FF90EF90DF900C94D21930
:1028F000FC01808191810C94301CCF93C82F8823D8
:1029000009F43FC08CEF8C0F813AA0F46C2F8091BA
:102910000A0190910B010E941E1E882329F08C2F22
:102920000E94651C0E94E71C8C2F0E945E1CCF91A8
:102930000C94E71C80E28C0F883048F4C77081E06B
:1029400001C0880FCA95EAF70E94A71CF0CFEBE5FB
:10295000EC0FE33040F4F0E0E756FE4F808190E06A
:10296000CF910C942513C85AC73158F4EC2FF0E0DE
:10297000EE0FFF1FE559FE4F80819181CF910C949E
:102980003B13CF910895882329F19CEF980F913A3A
:1029900020F40E94651C0C94E71C90E2980F98307C
:1029A00050F4877091E001C0990F8A95EAF7892F5A
:1029B0000E94AD1CF0CF9BE5980F933020F490E07F
:1029C00080E00C942513885A873120F490E080E051
:1029D0000C943B1308951F93CF93DF93182FEB01B3
:1029E0000E947D14209731F4812FDF91CF911F91A8
:1029F0000C94C3148FE99FE00197F1F700C0000029
:102A00002197F0CF70E060E0893311F460E570E069
:102A10000C94EB14882321F00E94A71C0C94E71C53
:102A20000895882321F00E94AD1C0C94E71C0895A2
:102A3000BF92CF92DF92EF92FF920F931F93CF93AB
:102A4000DF937C01D62FC72FFC01128105810295EF
:102A50000F700E947C1CD82E8823A1F0D12E112348
:102A600089F08C2F807F803429F080E28D0FD12C6B
:102A7000883040F082E00E94381D0E947C1C91E06A
:102A8000D82ED926CC2EC2949FE0C922FBE0FC159B
:102A900098F1EC2DF0E0EF59F44D0C94032B0C2F32
:102AA0000F70C07F11F00295007F1123A9F0002361
:102AB00059F080E28D0F883010F0D11109C0802FBD
:102AC0000E94A71C0E94E71C8D2F0E947D1414C039
:102AD000802F0E94B71CF6CF8D2F0E94C3140023B5
:102AE00059F080E28D0F883010F0D1112BC0802F6B
:102AF0000E94AD1C0E94E71CEC2DE850FF0B3497A0
:102B000020F40E9403130E94AA08DD2009F47DC16D
:102B10000E94781C80FD79C1F70112820E94721C0C
:102B20000E94FE1AC7010E9426170E94721CDF91A4
:102B3000CF911F910F91FF90EF90DF90CF90BF90BA
:102B40000C941F1B802F0E94BD1CD4CF2C2F2F70E4
:102B5000B22EC07FC03219F0B29480EFB822DD23CC
:102B600039F0D13019F1112361F1002321F1ACCFFB
:102B7000112381F0011106C00E94CA1C8B290E94FA
:102B80000A15BACF0130C1F70E94CA1C8B290E94D6
:102B9000D01CB2CF011106C00E94DD1C8B2D0E94FB
:102BA0001115AACF013009F4A7CFF6CF112329F0D0
:102BB000063008F0A1CF8B2DE2CF053008F09CCF76
:102BC000EDCF002359F3D93349F43FEF87EE93E07B
:102BD000315080409040E1F700C000008D2F0E94EE
:102BE000C3148ACF8C2F86958695837069F08130C7
:102BF00009F082CF8D2F9C2F9370111102C090E0AD
:102C000080E00E943B1378CF8D2F9C2F9370111181
:102C100002C090E080E00E9425136ECF8C2F83705D
:102C200009F041C0111168CF4D2F4295469547706C
:102C3000440F440F0D2F0F7010E030E020E0042E01
:102C400004C0000F111F221F331F0A94D2F760E047
:102C500070E0CB01D4FF0FC06FE070E080E090E047
:102C600004C0660F771F881F991F4A95D2F7609599
:102C7000709580959095C695C695C370602B712B05
:102C8000822B932BC23049F058F4C13019F00E94C6
:102C9000901A32CF0E947E1A2FCF0E94A21A2CCFF8
:102CA0000E947C1A29CF8695112311F08C2F8170F8
:102CB000882309F421CF4D2F429546954770440F44
:102CC000440F0D2F0F7010E030E020E0042E04C000
:102CD000000F111F221F331F0A94D2F760E070E02B
:102CE000CB01D4FF0FC06FE070E080E090E004C043
:102CF000660F771F881F991F4A95D2F760957095C8
:102D000080959095C695C695C370602B712B822BCC
:102D1000932BC23049F058F4C13019F00E94751B52
:102D2000EBCE0E94631BE8CE0E94871BE5CE0E947B
:102D3000B81AE2CECF70112329F08C2F0E94FE1A10
:102D40008D2F1DCF8D2F0E9411158C2F0E941F1BC0
:102D5000D3CED23F89F160F4D03FC9F0D13F29F101
:102D6000112309F442C00111AFCE8C2F8F7121C005
:102D7000D33F39F1D43FA1F7112369F1CF718C2FE3
:102D80000E94FE1A63E08C2F0E941D1DB5CE1123F8
:102D900041F0053008F0B0CE8C2F8F710E94421B9D
:102DA000ABCE063008F0A8CEF7CF8C2F8F71112351
:102DB00069F20E94FE1AA0CE8C2F8F711123C9F3E5
:102DC000C5CF112329F08C2F8F710E94E91A94CE60
:102DD0000E94C41A91CE81E00E94381D023008F48E
:102DE0008BCE82E00E94381D87CE002359F0D93364
:102DF00009F0F4CEEFEFF7EE23E0E150F040204091
:102E0000E1F7EACE8C2F8F71A1CFDF91CF911F9187
:102E10000F91FF90EF90DF90CF90BF9008950F93A8
:102E20001F93CF93DF93EC01688179818A810E949F
:102E30003A1C8C010E94991B0E947B1AB801CE019A
:102E4000DF91CF911F910F910C941815CF93DF93C1
:102E5000EC018B819C81892B29F0888199818923C0
:102E60008F3F59F4DF91CF910895CE010E940F1743
:102E7000CE01DF91CF910C94E307CE010E940408AC
:102E80008111F3CF0E947C1C882361F38A818823FF
:102E900049F382E0DF91CF910C94381D882321F013
:102EA0000E94B71C0C94E71C0895882321F00E940F
:102EB000BD1C0C94E71C089590E080E00E9425134F
:102EC00090E080E00E943B130E94C41C0E94C71C3B
:102ED0000C94E71C0E946C1C0C945C170E94B41CA0
:102EE0000C946A17E92FE295EF70E250EE3070F41F
:102EF000F0E0E359F44D0C94032B803F19F020F4DB
:102F0000883E20F481E00895843FE1F380E0089555
:102F1000883EC0F3813FD1F7F5CF93FB882780F936
:102F200008950E94301C0C947217CF93DF9300D049
:102F300000D00F92CDB7DEB70F900F900F900F908B
:102F40000F90DF91CF910895CF93DF9300D000D001
:102F500000D0CDB7DEB726960FB6F894DEBF0FBE11
:102F6000CDBFDF91CF9108951F93CF93DF93C09191
:102F7000140216E0809115028C1304C0DF91CF91EA
:102F80001F910895D0E01C9FF0011D9FF00D1124AA
:102F9000EA5EFD4F40815181628173818481958118
:102FA0000E94A4172196C770E5CF40914602509128
:102FB0004702609148027091490280914A029091C3
:102FC0004B020C94A4171F93CF93DF9380914B0275
:102FD000807FA9F480914802882389F080911402AF
:102FE000C09115026091460270914702A09149027A
:102FF000B0914A02D62FD72316E0C81304C0DF9140
:10300000CF911F91089590E0109711F0DF3F19F4D0
:1030100001968770F2CF189F9001199F300D1124EF
:10302000F901EA5EFD4F41814713F2CF408146131B
:10303000EFCF42814111ECCF438154814A1B5B0B9E
:10304000483C510528F780914B028F708061809336
:103050004B02F901E55EFD4F80818F7080618083B6
:1030600086E492E00E942617DF91CF911F910C9485
:10307000B417AF92BF92CF92DF92EF92FF920F936D
:103080001F93CF93DF93CDB7DEB761970FB6F89458
:10309000DEBF0FBECDBF8C0185E0F801DE011D96BD
:1030A00001900D928A95E1F7F80140815181E2800B
:1030B00086E4C82E82E0D82E6091490270914A02BF
:1030C0006115710509F44FC19091460220914702A4
:1030D000892F82238F3F09F446C1A380B480F090EA
:1030E0004802F501E61BF70BFF2009F40AC18091A5
:1030F0004B02382F307FE83CF10508F0C0C0311199
:1031000079C0FE2C251323C0941321C0E1101FC0E9
:103110008F70806180934B020E94D517C6010E9478
:10312000261780914B02F80185838F2D61960FB68B
:10313000F894DEBF0FBECDBFDF91CF911F910F91ED
:10314000FF90EF90DF90CF90BF90AF900895AB28A5
:1031500029F0842F85238F3F09F021C180E0F82FCB
:10316000F170DF2E80FF3CC0809114022091150287
:1031700036E0821315C04D875E878D859E850E943F
:10318000301C292F22952F702230F0F0243018F5B2
:103190009F70F1F0F8019581907FD1F4D12C1EC081
:1031A00090E0389FF001399FF00D1124EA5EFD4F49
:1031B0006181651306C06081641303C062816E1172
:1031C0000FC001968770D5CF9F7011F0882331F31F
:1031D000805E883018F3C8010E942617FD2CA5CF09
:1031E000EE2009F4A2CF80914B02816080934B02C4
:1031F000F12C9BCF251314C0941312C0E11010C002
:10320000F8018583C8010E94261786E0F801A6E42C
:10321000B2E001900D928A95E1F70E94D51785CF13
:103220004D875E878D859E850E949117882319F1B1
:10323000EE2009F180914B02803270F0209146021D
:103240003091470238872F831986BB86AA868C87E0
:10325000CE0107960E94261786E0F801A6E4B2E0A8
:1032600001900D928A95E1F70E94E3170E94D5170D
:10327000FF24F3945ACFC8010E942617F9CF3111C9
:1032800013C07A2DB98AA88A6E2D89890E94951754
:1032900086E492E00E94261786E0F60111928A9554
:1032A000E9F70E94D517A4CF25130FC094130DC0C2
:1032B000E1100BC0F8018583C8010E94261786E043
:1032C000F60111928A95E9F730CF4D875E878D859B
:1032D0009E850E949117882371F2EE2061F2809101
:1032E0004B02803208F4B8CF209146023091470259
:1032F0003A8329831B82BD82AC828E83CE010196E4
:10330000A9CFE83CF10510F5FE2CEE2009F4B3CF6F
:1033100025130BC0941309C086E0F801A6E4B2E0BF
:1033200001900D928A95E1F700CF4D875E878D85DC
:103330009E850E94911781118FCF80914B028160F1
:1033400080934B02C8010E942617EFCE7A2DB98ACE
:10335000A88A6E2D89890E94951786E0F601119240
:103360008A95E9F75ACFEE2009F485CF4D875E871D
:103370008D859E850E949117F82E882309F47BCFB6
:1033800086E0F801A6E4B2E001900D928A95E1F79B
:1033900086E492E00E9478140E94E3173ECF81E019
:1033A0008E25DDCE1F93CF93DF93CDB7DEB72C975D
:1033B0000FB6F894DEBF0FBECDBF4F835887698725
:1033C0007A878B879C87CE0107960E9439188823BD
:1033D00069F08A859B85892B39F04F815885842F28
:1033E00085238F3F09F071C016E05FC086E0FE01C3
:1033F0003796DE01119601900D928A95E1F78A8544
:103400009B85892B89F38F81988589238F3F61F371
:103410002091150230E0C9010196877099274091EB
:1034200014024817190671F40E946E1710921502C3
:103430001092140286E0E6E4F2E0DF011D928A9524
:10344000E9F7D2CF96E0929FD001939FB00D11245F
:10345000AA5EBD4FFE01319601900D929A95E1F75B
:10346000809315020E94B417BFCF819FC001112421
:103470008A5E9D4F0E9439188823E9F0E09114027A
:103480001E9FF0011124EA5EFD4F4081518162814F
:103490007381848195810E94A4178091140290E029
:1034A000019687709927809314028091140290915D
:1034B00015028913DACF2C960FB6F894DEBF0FBE33
:1034C000CDBFDF91CF911F91089569857A858B8556
:1034D0009C850E94A41788CF08950C946C1A0E94B2
:1034E0006D1A60938702709388028093890290938B
:1034F0008A020C945C1708950C946F1A0F931F9313
:1035000000918702109188022091890230918A02ED
:10351000602B712B822B932B1F910F910C946F1AA0
:103520000F931F93009187021091880220918902C6
:1035300030918A0260237123822393231F910F917C
:103540000C946F1A0F931F930091870210918802B9
:103550002091890230918A02602771278227932760
:103560001F910F910C946F1A0C946C1A0C94B41A4E
:103570000E94B61A6093830270938402809385023E
:10358000909386020C945C1760E070E0CB010C9481
:10359000B81A611571058105910529F481E044236C
:1035A00061F080E00895DC01CB0104C0B695A795D9
:1035B000979587954A95D2F781700895482F609125
:1035C00083027091840280918502909186020C940E
:1035D000C91A0F931F9341E050E060E070E08A0148
:1035E0009B0104C0000F111F221F331F8A95D2F7C1
:1035F000C901B8011F910F910C94B81A0F931F9332
:1036000041E050E060E070E004C0440F551F661FC9
:10361000771F8A95D2F78091830290918402A091BE
:103620008502B09186028A019B01082B192B2A2B57
:103630003B2BC901B8011F910F910C94B81A0F933D
:103640001F9341E050E060E070E004C0440F551F5C
:10365000661F771F8A95D2F7CB01BA0160957095E6
:1036600080959095009183021091840220918502AB
:103670003091860260237123822393231F910F913F
:103680000C94B81A0F931F9341E050E060E070E093
:1036900004C0440F551F661F771F8A95D2F780918B
:1036A000830290918402A0918502B09186028A01E2
:1036B0009B01082719272A273B27C901B8011F9119
:1036C0000F910C94B81A0F931F93009183021091DD
:1036D00084022091850230918602602B712B822B0F
:1036E000932B1F910F910C94B81A0F931F93009175
:1036F000830210918402209185023091860260231A
:103700007123822393231F910F910C94B81A0F9366
:103710001F930091830210918402209185023091C1
:10372000860260277127822793271F910F910C949F
:10373000B81A089527E0929F800D1124982F977052
:1037400041E001C0440F9A95EAF7869586958695E3
:1037500095E0899FF0011124E45BFD4F90E080E04B
:1037600070E05191DF0111979B01082E02C0369540
:1037700027950A94E2F721702195252724232527F0
:103780002C9301968530910561F7089527E0929F6B
:10379000800D1124982F977086958695869525E043
:1037A000829FF0011124E45BFD4F50E040E080E097
:1037B000219130E0092E02C0369527950A94E2F750
:1037C00021703327042E01C0220F0A94EAF7822BBE
:1037D0004F5F5F4F4530510559F70895BF92CF9223
:1037E000DF92EF92FF920F931F93CF93DF938C01A1
:1037F000C0908302D0908402E0908502F09086020F
:103800008091870290918802A0918902B0918A02EA
:10381000C82AD92AEA2AFB2ACFE1D0E0BC2ED70158
:10382000C6010C2E04C0B695A795979587950A9466
:10383000D2F780FD0EC0219788F7B12C8B2DDF9138
:10384000CF911F910F91FF90EF90DF90CF90BF909D
:103850000895B8018C2F0E94C608019761F3EECF3E
:10386000CF93DF93EC010E94EE1BBE01DF91CF915D
:103870000C94C6081F93CF93DF93EB019091130232
:10388000992331F0CB01DF91CF911F910C94301C23
:10389000882379F0CB010E94EE1B182F682FCE01F0
:1038A0000E949A1BBE01812FDF91CF911F910C9432
:1038B000C608CB010E94C61B182FF4CF682F809139
:1038C0000A0190910B010C94541E682F80910A01FB
:1038D00090910B010C94561E80910A0190910B015E
:1038E0000C94581E80918B02859585958595089539
:1038F00080918B028770089590918B02977081E080
:1039000009F480E008959091A80292FB222720F903
:10391000281751F080FB92F99093A8028091A7029A
:103920009091A8020C94771D08958091A80282FBC3
:10393000882780F991E089270C94831C81E00C94FE
:10394000831C80E00C94831C8091970208959091D1
:103950009702892B80939702089580959091970202
:10396000982390939702089510929702089590914A
:103970009602892B809396020895809590919602E5
:1039800098239093960208951092960208951092AB
:103990009502089580918C02089508950C94CD1C91
:1039A0009091A80292FD08C090918C02981721F086
:1039B00080938C020C94CE1C089580918C028823F5
:1039C00029F010928C0280E00C94CE1C0895E091B6
:1039D0000A01F0910B01809197028083E0910A0126
:1039E000F0910B01808190919602892B8083E09168
:1039F0000A01F0910B01808190919502892B8083BF
:103A000090918C02992381F0E0910A01F0910B01D1
:103A10008081892B808380910A0190910B010E9403
:103A20000C1E81110E94DD1C80910A0190910B01F6
:103A30000C940F1308950C941A1D9091A80292FDF6
:103A400010C098E0899F90011124622B60938B0233
:103A50000E94FE1A80918B028595859585950C9420
:103A60001B1D0C94FE1A10928B0280E00C941B1DFF
:103A700090918B028095892380938B02282F277049
:103A800039F4282F082E000C330B9217130621F45B
:103A90009091A80292FF07C08595859585950E9413
:103AA0001F1B0C94331D089580E0089590E080E082
:103AB0000E94252B21E08A3E9E4F09F020E0822FB4
:103AC000089582E090E00C941D2B83E090E00C942C
:103AD0001D2BCF9384E090E00E941D2BC82F82E223
:103AE00090E00E941D2B982F8C2FCF910895CF939B
:103AF000C92F682F84E090E00E942B2B6C2F82E26C
:103B000090E0CF910C942B2BAB01BC018FE090E0A7
:103B10000C943D2BAB01BC0183E190E00C943D2B58
:103B200060E070E0CB010C948A1D60E070E0CB0196
:103B30000E94841D0C94901D6AEE7EEF90E080E060
:103B40000E94492B60E082E090E00E942B2B60E015
:103B500083E090E00E942B2B109287021092880243
:103B60001092890210928A0260E084E090E00E9444
:103B70002B2B60E082E290E00E942B2B60E085E03E
:103B800090E00E942B2B60E086E090E00E942B2BBF
:103B90006FEF87E090E00E942B2B40E050E0BA01ED
:103BA00088E090E00E943D2B60E08DE090E00E9474
:103BB0002B2B40E050E0BA0188E190E00E943D2BC1
:103BC00060E087E190E00E942B2B40E050E0BA01DA
:103BD0008CE190E00E943D2B70E060E080E290E09C
:103BE0000E94492B40E050E0BA0188E190E00E9439
:103BF0003D2B0C94951D0C949C1D8EE090E00E9432
:103C00001D2B91E0811101C090E0892F0895682F4C
:103C10008EE090E00C942B2B9C012E5F3F4FAC016B
:103C2000485F5F4F80E02417350709F40895F901D4
:103C300091919F019923B9F38F5FF5CF662349F0E6
:103C4000FC01329608962191261729F0E817F9070A
:103C5000D1F780E0089581E008959C01FC0132963F
:103C60009FEF80E04191461751F09F3F19F44111B9
:103C700001C0982F8F5F8630A9F79F3F09F4089500
:103C8000290F311D97FD3A95F90162830895FC01D2
:103C9000329608962191261303C0DF0111971C92DA
:103CA000E817F907B9F708950C942D1E0C94471ED8
:103CB000029626E0FC0111922A95E9F708950895ED
:103CC00008950C94601E8091CF02843049F10E94C7
:103CD000611E80E00E94AA081092990288E190E09B
:103CE00020E40FB6F894A895809360000FBE20934F
:103CF000600083B7817F846083BF83B7816083BFA7
:103D00007894889583B78E7F83BF0FB6F894A89573
:103D100080916000886180936000109260000FBE07
:103D200008950895CF930E945F1E0E94940B0E94F5
:103D3000911EC0E08C2F0E94B70A811105C0CF5F91
:103D4000CC30C1F7CF91089581E0FCCF08950C9459
:103D5000A61E0E946E170E9403130E94AA080C94CC
:103D6000A71E1F921FB61F9211248F939F93AF938C
:103D7000BF9380919902811113C08091C3029091E9
:103D8000C402A091C502B091C6024196A11DB11D09
:103D90008093C3029093C402A093C502B093C6025D
:103DA000BF91AF919F918F911F901FBE1F9018954B
:103DB00082E084BD93E095BD9AEF97BD80936E003D
:103DC00008952FB7F8948091C3029091C402A091F6
:103DD000C502B091C6022FBF08952FB7F894609125
:103DE000C3027091C4028091C5029091C6022FBF98
:103DF00008959C014FB7F8948091C3029091C4023A
:103E0000A091C502B091C6024FBF821B930B0895CB
:103E100078941F921FB61F9211248F939F93AF9394
:103E2000BF938091C3029091C402A091C502B0914A
:103E3000C6020196A11DB11D8093C3029093C402D6
:103E4000A093C502B093C602BF91AF919F918F918D
:103E50001F901FBE1F9018951092C7021092C802A3
:103E60001092C9021092CA02089587E797E79093CB
:103E700001088093000888E19AE00FB6F894A895AD
:103E8000809360000FBE90936000FFCF9093AD01D0
:103E90008093AC0108958091A2020895CF93DF939F
:103EA00000D00F92CDB7DEB79091CF02943019F5C4
:103EB00089837B836A8383E08093E9008FEF90910D
:103EC000E800815095FD06C095ED9A95F1F7000048
:103ED0008111F5CF8091E80085FF0DC050E040E0F2
:103EE00063E070E0CE0101960E946B218091E800B2
:103EF0008E778093E8000F900F900F90DF91CF9115
:103F00000895BC0184E00C944E1FBC0183E00C9426
:103F10004E1F9C0182E08093E9009FEF8091E800B2
:103F2000915085FD06C085ED8A95F1F7000091114D
:103F3000F5CF8091E80085FF0CC050E040E065E0DF
:103F400070E0C9010E946B218091E8008E77809318
:103F5000E8000895CF93DF93EC0181E08093E900BE
:103F60008FEF9091E800815095FD06C095ED9A95F0
:103F7000F1F700008111F5CF8091E80085FF14C0B2
:103F800050E040E068E070E0CE010E946B2180913B
:103F9000E8008E778093E80088E0FE01AAE9B2E0AD
:103FA00001900D928A95E1F7DF91CF91089580916C
:103FB000CE02811109C00E94FB220E9458238091E9
:103FC000E20084608093E20008951092CE0208958A
:103FD00008950895089542E061EC81E00E947722FF
:103FE00042E061EC82E00E94772242E261EC83E0F1
:103FF0000C9477228091D102833009F461C030F4AF
:104000008130D1F1823009F49DC008958A3009F4DD
:1040100089C08B3009F46FC0893009F050C080919D
:10402000D002813209F04BC08091D4029091D50228
:10403000009719F0029709F042C08091E800877F4D
:104040008093E8008091E80082FF35C09091F300F2
:104050008091F200029729F48091F1008B7F8130EA
:1040600021F48091F1008093A2028091E8008B7787
:104070008093E8000C94AB228091D002813AF9F44D
:104080008091E800877F8093E8008091D40290912E
:10409000D502892B61F468E08AE992E070E00E9421
:1040A000BA218091E8008B778093E800089560E062
:1040B00090E080E0F3CF8091CF028111C3CF0895CB
:1040C0008091D002813AD9F78091D4029091D502A3
:1040D000892BA9F78091E800877F8093E800809181
:1040E000E80080FFFCCF809116018093F100809161
:1040F000E8008E77BDCF8091D002813201F78091A8
:10410000D4029091D502892BD1F68091E800877F67
:104110008093E8000E94AB228091D2028093160126
:104120000C946E178091D002813249F68091E8009C
:10413000877F8093E8000E94AB228091D302809316
:10414000A30208958091D002813A09F0B8CF8091FE
:10415000E800877F8093E8008091E80080FFFCCF33
:104160008091A302C2CF84B7877F84BF0FB6F89433
:10417000A895809160008861809360001092600033
:104180000FBE80E890E00FB6F894809361009093A2
:1041900061000FBE0E9485130E94FB220E945823DB
:1041A0008091E20084608093E20078940E94E1258F
:1041B0000E9497138CE091E00E94FE128091CF0242
:1041C000853099F00E94A3130E949313F7CF0E94A9
:1041D000631E8091CD02882341F00E94921E8823A5
:1041E00021F00E9455210E946E178091CF028530E8
:1041F00071F30E94A91EE6CF0C94FE20292F3327CD
:104200002330310521F168F42130310509F443C030
:104210002230310509F444C090E080E030E020E035
:1042200026C02132310551F122323105A9F7633020
:10423000710590F7FB01EE0FFF1FE156FE4F208145
:10424000318164567E4FFB01808190E010C0992738
:104250008130910581F0009729F00297E9F6E2E7B5
:10426000F3E002C0E4EDF3E0849190E09F01FA01F5
:10427000318320830895E4ECF3E0F6CF63307105D9
:1042800058F6660F771FFB01EB55FE4F20813181F9
:1042900089E090E0ECCF82E190E02CE234E0E7CFDF
:1042A00084E590E028ED33E0E2CF80E189BD82E152
:1042B00089BD09B400FEFDCF8091D8008F7D809329
:1042C000D8008091E00082608093E0008091E0005F
:1042D00081FDFCCF0895AF92BF92CF92DF92FF9203
:1042E0000F931F93CF93DF936C01EB018A010E9420
:1042F000CA22F82E811123C00115110539F0F801E9
:1043000080819181C81BD90BC80ED91EB12CA12C5C
:104310002097A9F08091E80085FD22C08091E800F7
:104320008E778093E80001151105A1F0F8018081D6
:104330009181A80EB91EB182A08285E0F82E8F2D42
:10434000DF91CF911F910F91FF90DF90CF90BF90A1
:10435000AF9008950E94CA228823D1F2F82EEFCFA1
:10436000F60181916F018093F1002197FFEFAF1A61
:10437000BF0ACECFFC018091D6029091D70286175A
:104380009707A0F06115710529F49091E8009E77D8
:104390009093E80090E06115710551F4911108C007
:1043A0008091E80082FF34C080E00895BC01F2CF24
:1043B0008091CF028823C1F18530C1F18091E8005E
:1043C00083FD30C08091E80082FDEACF8091E80053
:1043D00080FFE1CF8091F3002091F200382F61152A
:1043E000710519F02830310558F091E02830310579
:1043F00009F090E02091E8002E772093E800CBCFE1
:1044000081918093F100615071092F5F3F4FE7CF99
:104410008091CF02882341F0853041F08091E800FF
:1044200083FFBECF81E0089582E0089583E0089580
:10443000FC018091D6029091D70286179707A0F0D1
:104440006115710529F48091E8008E778093E8006A
:1044500090E06115710551F4911108C08091E80058
:1044600082FF35C080E00895BC01F2CF8091CF0279
:104470008823C9F18530C9F18091E80083FD31C0FE
:104480008091E80082FDEACF8091E80080FFE1CFD3
:104490008091F3002091F200382F6115710519F019
:1044A0002830310558F091E02830310509F090E0CE
:1044B0008091E8008E778093E800CBCF8491809341
:1044C000F1003196615071092F5F3F4FE6CF809127
:1044D000CF02882341F0853041F08091E80083FFCE
:1044E000BDCF81E0089582E0089583E00895982F7C
:1044F000973028F08F708093E90081E008959093C1
:10450000E900242F762F50E0981731F07091EC00DD
:104510002091ED005091F00021FD02C09F5FE8CF97
:104520003091EB003E7F3093EB003091ED003D7F0A
:104530003093ED003091EB0031603093EB007093DD
:10454000EC002093ED005093F0002091EE0027FD49
:10455000E5CF80E008958091D00287FF13C080915D
:10456000E80082FF06C08091E8008B778093E80026
:1045700004C08091CF028111F2CF08958091CF02C3
:104580008823D9F38091E80080FFF8CF8091E8007C
:104590008E77ECCF2091E4003091E50095E6A901FB
:1045A0002091EC00822F817020FF06C08091E800EE
:1045B00080FF06C080E008952091E80022FD1AC027
:1045C0008091CF02882389F0853089F08091EB00BB
:1045D00085FD0FC02091E4003091E500421753079C
:1045E000F9F29150E1F684E0089582E0089583E0C5
:1045F000089581E008950E9469230E947123E0EEEE
:10460000F0E0808181608083E8EDF0E080818F7749
:10461000808319BCA7EDB0E08C918E7F8C93808154
:104620008F7E80831092CE0208950F931F93CF93B5
:10463000DF930E9469230E947123C8EDD0E0888136
:104640008F77888388818068888388818F7D88833D
:1046500019BC1092CF021092CB021092CD02109290
:10466000CC0200EE10E0F80180818B7F808388818E
:104670008160888342E060E080E00E947722E1EE82
:10468000F0E080818E7F8083E2EEF0E080818160C7
:104690008083808188608083F80180818E7F808321
:1046A000888180618883DF91CF911F910F91089558
:1046B000E8EDF0E080818F7E8083E7EDF0E080819F
:1046C0008160808384E082BF81E08093CE020C947D
:1046D0001523E8EDF0E080818E7F80831092E20068
:1046E00008951092DA001092E10008951F920F923F
:1046F0000FB60F9211242F933F934F935F936F93B5
:104700007F938F939F93AF93BF93EF93FF9380918A
:10471000E10082FF0BC08091E20082FF07C0809120
:10472000E1008B7F8093E1000E94E0258091DA0018
:1047300080FF19C08091D80080FF15C08091DA00F9
:104740008E7F8093DA008091D90080FF96C080E14F
:1047500089BD82E189BD09B400FEFDCF81E080936F
:10476000CF020E94D71F8091E10080FF19C0809185
:10477000E20080FF15C08091E2008E7F8093E2000E
:104780008091E20080618093E2008091D800806295
:104790008093D80019BC85E08093CF020E94E91F66
:1047A0008091E10084FF2BC08091E20084FF27C04C
:1047B00080E189BD82E189BD89B5982F917080FF24
:1047C000FBCF8091D8008F7D8093D8008091E1004D
:1047D0008F7E8093E1008091E2008F7E8093E200E3
:1047E0008091E20081608093E2008091CB02882377
:1047F00009F449C084E08093CF020E94EA1F8091AF
:10480000E10083FF29C08091E20083FF25C08091F1
:10481000E100877F8093E10082E08093CF021092D5
:10482000CB028091E1008E7F8093E1008091E200D5
:104830008E7F8093E2008091E20080618093E200AD
:1048400042E060E080E00E9477228091F000886082
:104850008093F0000E94E81FFF91EF91BF91AF910C
:104860009F918F917F916F915F914F913F912F9188
:104870000F900FBE0F901F90189519BC1092CF0289
:104880000E94E51F70CF8091E30087FD93E0909335
:10489000CF02B3CF1F920F920FB60F9211242F9316
:1048A0003F934F935F936F937F938F939F93AF93B8
:1048B000BF93CF93DF93EF93FF93D091E900DF7025
:1048C0008091EC00C82FC17080FDC0E81092E90013
:1048D0008091F000877F8093F00078940E948E246E
:1048E0001092E9008091F00088608093F000CD2B59
:1048F000CF70C093E900FF91EF91DF91CF91BF910D
:10490000AF919F918F917F916F915F914F913F9167
:104910002F910F900FBE0F901F9018951F93CF935C
:10492000DF93CDB7DEB7AA970FB6F894DEBF0FBE00
:10493000CDBF80ED92E02091F100FC012193CF01E9
:10494000F2E0883D9F07B9F70E94FA1F8091E800C6
:1049500083FF1EC18091D0029091D1029A3008F05D
:1049600017C1E92FF0E0E558F44D0C94032B803883
:1049700099F0823809F00CC18091D4028F70873091
:1049800008F006C18093E9008091EB0085FB882741
:1049900080F91092E90006C08091CC029091CD027E
:1049A000911182609091E800977F9093E800809346
:1049B000F1001092F1008091E8008E77E5C0882325
:1049C00009F4D3C0823009F0E3C08091D202811192
:1049D000D6C08091D4028F702FEF280F263008F0B8
:1049E000D7C08093E9002091EB0020FFC8C093302E
:1049F00031F48091EB0080628093EB00C0C0909115
:104A0000EB0090619093EB0021E030E001C0220FB9
:104A10008A95EAF72093EA001092EA008091EB0071
:104A20008860EACF8111B4C01091D2021F778091C3
:104A3000E3008078812B8093E3008091E800877FFA
:104A40008093E8000E94AB228091E80080FFFCCFB9
:104A50008091E30080688093E30082E0111183E09D
:104A60008093CF0295C08058823008F091C0809129
:104A7000D2029091D3028C3D23E09207A1F583E00E
:104A80008A838AE289834FB7F894DE01139620E087
:104A90003EE051E2E32FF0E050935700E49120FF15
:104AA00003C0E295EF703F5FEF708E2F90E0EA3029
:104AB000C0F0C7968D939D932F5F243159F74FBF58
:104AC0008091E800877F8093E8006AE270E0CE0181
:104AD00001960E94BA218091E8008B778093E800CC
:104AE00057C0C096E7CF6091D4027091D502AE0155
:104AF0004F5F5F4F0E94FC20BC01892B09F448C026
:104B00009091E800977F9093E80089819A810E94B4
:104B10001822E1CF8038E1F58091E800877F80930B
:104B2000E8008091CB028093F10045CF811130C025
:104B30009091D202923060F58091E800877F809357
:104B4000E8009093CB020E94AB228091CB02882395
:104B500011F084E005C08091E30087FDFACF81E089
:104B60008093CF020E94EB1F13C08091D20281304C
:104B700079F481E0933009F080E08093CD021092C7
:104B8000E9008091E800877F8093E8000E94AB22D3
:104B90008091E80083FF0AC08091E800877F8093BE
:104BA000E8008091EB0080628093EB00AA960FB63C
:104BB000F894DEBF0FBECDBFDF91CF911F91089556
:104BC0000895CF938091CF028823A1F0C091E9008E
:104BD000CF709091EC00892F817090FD80E8C82BF8
:104BE0001092E9008091E80083FD0E948E24CF702E
:104BF000C093E900CF9108950E94FB221092CF024A
:104C00000895E8EDF0E08081806180838AE18A95F3
:104C1000F1F700C08091D900817008955058BB27EA
:104C2000AA270E9426260C943C280E94032838F0CC
:104C30000E940A2820F039F49F3F19F426F40C94BE
:104C4000D9270EF4E095E7FB0C94D327E92F0E94B7
:104C5000612858F3BA17620773078407950720F095
:104C600079F4A6F50C9483280EF4E0950B2EBA2F58
:104C7000A02D0B01B90190010C01CA01A001112462
:104C8000FF27591B99F0593F50F4503E68F11A160E
:104C9000F040A22F232F342F4427585FF3CF46959F
:104CA00037952795A795F0405395C9F77EF41F16C1
:104CB000BA0B620B730B840BBAF09150A1F0FF0F8B
:104CC000BB1F661F771F881FC2F70EC0BA0F621F77
:104CD000731F841F48F4879577956795B795F79567
:104CE0009E3F08F0B0CF9395880F08F09927EE0FFC
:104CF0009795879508950E94032860F080E891E0D9
:104D000009F49EEF0E940A2828F040E851E071F46F
:104D10005EEF0CC00C94D9270C948328E92FE0781F
:104D20000E94612840F3092E052AB1F326173707A0
:104D30004807590738F00E2E07F8E02569F0E025FE
:104D4000E0640AC0EF6307F8009407FADB01B901D9
:104D50009D01DC01CA01AD01EF930E9405270E946D
:104D60003C280E94BE265F91552339F02BED3FE091
:104D700049E450FD49EC0C940F260895DF93DD279C
:104D8000B92FBF7740E85FE31616170648075B07A1
:104D900018F4D92F0E948F289F938F937F936F933E
:104DA0000E94A229ECEAF0E00E94DC270E943C2845
:104DB0002F913F914F915F910E94AA28DD2351F0DE
:104DC0009058A2EA2AED3FE049EC5FE3D0785D27F6
:104DD0000E942626DF910C943C280E941328E3951C
:104DE0000C944D280E940A2858F00E94032840F095
:104DF00029F45F3F29F00C94D32751110C94842897
:104E00000C94D9270E94612868F39923B1F35523A4
:104E100091F3951B550BBB27AA27621773078407CD
:104E200038F09F5F5F4F220F331F441FAA1FA9F363
:104E300035D00E2E3AF0E0E832D091505040E69551
:104E4000001CCAF72BD0FE2F29D0660F771F881FB2
:104E5000BB1F261737074807AB07B0E809F0BB0BA5
:104E6000802DBF01FF2793585F4F3AF09E3F5105B9
:104E700078F00C94D3270C9484285F3FE4F3983E99
:104E8000D4F3869577956795B795F7959F5FC9F7A2
:104E9000880F911D9695879597F90895E1E0660F23
:104EA000771F881FBB1F621773078407BA0720F09C
:104EB000621B730B840BBA0BEE1F88F7E095089505
:104EC0000E9467276894B1110C94842808950E9469
:104ED000692888F09F5798F0B92F9927B751B0F0FB
:104EE000E1F0660F771F881F991F1AF0BA95C9F76E
:104EF00014C0B13091F00E948328B1E008950C9461
:104F00008328672F782F8827B85F39F0B93FCCF313
:104F1000869577956795B395D9F73EF490958095EA
:104F2000709561957F4F8F4F9F4F0895E89409C00A
:104F300097FB3EF490958095709561957F4F8F4FCC
:104F40009F4F9923A9F0F92F96E9BB279395F695E2
:104F5000879577956795B795F111F8CFFAF4BB0F60
:104F600011F460FF1BC06F5F7F4F8F4F9F4F16C0C4
:104F7000882311F096E911C0772321F09EE8872F4E
:104F8000762F05C0662371F096E8862F70E060E00A
:104F90002AF09A95660F771F881FDAF7880F969583
:104FA000879597F9089597F99F6780E870E060E02A
:104FB00008959FEF80EC0895DF93CF931F930F9395
:104FC000FF92EF92DF927B018C01689406C0DA2E8B
:104FD000EF010E94AA28FE01E894A5912591359140
:104FE00045915591A6F3EF010E942626FE019701F7
:104FF000A801DA9469F7DF90EF90FF900F911F916D
:10500000CF91DF91089500240A941616170618060A
:105010000906089500240A941216130614060506BC
:1050200008950C94D9270E946928D8F3E894E0E009
:10503000BB279F57F0F02AED3FE049EC06C0EE0F8A
:10504000BB0F661F771F881F28F0B23A62077307ED
:10505000840728F0B25A620B730B840BE3959A9580
:1050600072F7803830F49A95BB0F661F771F881F40
:10507000D2F790480C940A2A092E0394000C11F4DC
:10508000882352F0BB0F40F4BF2B11F460FF04C023
:105090006F5F7F4F8F4F9F4F0895EF93E0FF07C0E3
:1050A000A2EA2AED3FE049EC5FEB0E9426260E942F
:1050B0003C280F90039401FC9058E9EDF0E00C942B
:1050C0001D2A57FD9058440F551F59F05F3F71F04E
:1050D0004795880F97FB991F61F09F3F79F087955F
:1050E0000895121613061406551FF2CF4695F1DFE8
:1050F00008C0161617061806991FF1CF8695710578
:10510000610508940895E894BB2766277727CB01AB
:1051100097F908950E94E42908F48FEF08959B0100
:10512000AC0160E070E080E89FE30C94A6290E9447
:10513000AA280C943C280E94032838F00E940A28D0
:1051400020F0952311F00C94D3270C94D927112427
:105150000C9484280E94612870F3959FC1F3950FE9
:1051600050E0551F629FF001729FBB27F00DB11DEB
:10517000639FAA27F00DB11DAA1F649F6627B00D7B
:10518000A11D661F829F2227B00DA11D621F739F64
:10519000B00DA11D621F839FA00D611D221F749F72
:1051A0003327A00D611D231F849F600D211D822FB9
:1051B000762F6A2F11249F5750409AF0F1F08823E0
:1051C0004AF0EE0FFF1FBB1F661F771F881F91500D
:1051D0005040A9F79E3F510580F00C94D3270C94C2
:1051E00084285F3FE4F3983ED4F3869577956795DE
:1051F000B795F795E7959F5FC1F7FE2B880F911D37
:105200009695879597F90895FA01EE0FFF1F30964E
:1052100021053105A1F16115710561F48038BFE305
:105220009B0749F168949038810561F08038BFEFA1
:105230009B0741F099234AF5FF3FE1053105210520
:1052400019F1E8940894E795D901AA2329F4AB2F22
:10525000BE2FF85FD0F310C0FF5F70F4A695E0F7A3
:10526000F73950F019F0FF3A38F49F779F930DD03B
:105270000F9007FC9058089546F00C94D92760E0F1
:1052800070E080E89FE308954FE79F775F934F9327
:105290003F932F930E94732A2F913F914F915F91DB
:1052A0000E9497280C94B2299F930E9413280F9074
:1052B00007FCEE5F0C944D2819F416F40C94D927D2
:1052C0000C94082A0E946928B8F39923C9F3B6F30D
:1052D0009F57550B87FF0E94162A0024A0E640EA3C
:1052E000900180585695979528F4805C660F771F3B
:1052F000881F20F026173707480730F4621B730B0E
:10530000840B202931294A2BA69517940794202530
:1053100031254A2758F7660F771F881F20F0261778
:105320003707480730F4620B730B840B200D311DD7
:10533000411DA09581F7B901842F9158880F96954A
:10534000879508959B01AC010C9497280E94022731
:105350000C943C2829F416F00C94D3270C94832841
:105360000C94D9270E946928A8F39638A0F707F86B
:105370000F92E8942BE33AEA48EB5FE70E94AD28EE
:105380000F920F920F924DB75EB70F920E94BB2AF9
:10539000E7EFF0E00E94DC274F915F91EF91FF91E2
:1053A000E595EE1FFF1F49F0FE57E0684427EE0F1A
:1053B000441FFA95E1F74195550B0E94352A0F904D
:1053C00007FE0C948F280895990F0008550FAA0B1B
:1053D000E0E8FEEF16161706E807F907C0F0121608
:1053E0001306E407F50798F0621B730B840B950B0B
:1053F00039F40A2661F0232B242B252B21F4089560
:105400000A2609F4A140A6958FEF811D811D0895FC
:105410009F3F31F0915020F4879577956795B79528
:10542000880F911D9695879597F908959150504052
:10543000660F771F881FD2F708959F938F937F93EE
:105440006F93FF93EF939B01AC010E949728EF911C
:10545000FF910E94DC272F913F914F915F910C9417
:1054600097280C94D3270C94082A0E946928D8F313
:105470009923C9F3940F511DA3F39150504094F018
:1054800059F0882332F0660F771F881F91505040E3
:10549000C1F79E3F51052CF7880F911D9695879572
:1054A00097F908955F3FACF0983E9CF0BB27869536
:1054B00077956795B79508F4B1609395C1F7BB0FE1
:1054C00058F711F460FFE8CF6F5F7F4F8F4F9F4F0A
:1054D000E3CF0C94842816F00C94082A0C94D92756
:1054E00068940C94D3270E946928A8F39923C1F3E8
:1054F000AEF3DF93CF931F930F93FF92C92FDD2756
:1055000088232AF02197660F771F881FDAF720E09B
:1055100030E040E85FEB9FE3883920F0803E38F0D0
:1055200021968F770E940F26EFE1F1E004C00E94E0
:105530000F26ECE4F1E00E94DC278B01BE01EC01B8
:10554000FB2E6F5771097595771F880B990B0E9479
:10555000982728E132E741E35FE30E94AA28AF2DB4
:105560009801AE01FF900F911F91CF91DF910E94A2
:1055700026260C943C28FA01DC01AA0FBB1F9B01D4
:10558000AC01BF5728F4222733274427507820C086
:10559000B75190F4AB2F0024469537952795011C01
:1055A000A395D2F3002071F0220F331F441FB3954F
:1055B000DAF30ED00C940E2661307105A0E88A074C
:1055C000B94630F49B01AC0166277727882790788D
:1055D000309621F02083318342835383089597FBD3
:1055E000072E16F4009407D077FD09D00E94092BEE
:1055F00007FC05D03EF4909581959F4F08957095D6
:1056000061957F4F0895EE0FFF1F0590F491E02DF7
:105610000994AA1BBB1B51E107C0AA1FBB1FA617F9
:10562000B70710F0A61BB70B881F991F5A95A9F74B
:1056300080959095BC01CD010895F999FECF92BD5A
:1056400081BDF89A992780B50895A8E1B0E042E0BD
:1056500050E00C94512B262FF999FECF92BD81BDBD
:10566000F89A019700B4021639F01FBA20BD0FB6A0
:10567000F894FA9AF99A0FBE08950396272F0E947C
:105680002C2B0E942B2B252F0E942C2B242F0C948B
:105690002C2B0196272F0E942C2B0C942B2BDC01FA
:1056A000CB01FC01F999FECF06C0F2BDE1BDF89A2D
:1056B000319600B40D9241505040B8F70895F894D7
:1056C000FFCF4F154F15A615A615F2157C157C15A5
:1056D0007C150E169A16A916A9167D177D17861722
:1056E000861788178617861786177D177D178D17DB
:1056F000861786178D17B724DF24C825DF24C82511
:0A57000012253325C8258A259625B9
:10570A000101D80108D9010CE1018D024B1FAA1F22
:10571A00891F851F811F01E200E900EA00B500B672
:10572A0000B700CD008301CC008A019201940121C7
:10573A0002230224022502260227022A02B300B407
:10574A00006F007000818283946697C6343595F69F
:10575A00F73133323600000000000000FF0100017B
:10576A000000FFFF0000010001FF00E200E900EA7B
:10577A0000B500B600B700CD008301CC008A0192C3
:10578A000194012102230224022502260227022A69
:10579A0002B300B4006F007000818283404732B7C1
:0C57AA000470043E04EA0303041C040025
:00000001FF
