:100000000C9403020C944A020C944A020C949F0F25
:100010000C944A020C944A020C944A020C944A0230
:100020000C944A020C944A020C94F3210C94C722BB
:100030000C94F61C0C944A020C944A020C944A024A
:100040000C944A020C944A020C944A020C944A0200
:100050000C944A020C944D1D0C944A020C944A02D2
:100060000C944A020C944A020C944A020C944A02E0
:100070000C944A020C944A020C944A020C944A02D0
:100080000C944A020C944A020C944A020C944A02C0
:100090000C944A020C944A020C944A020C944A02B0
:1000A0000C944A020C944A020C944A0229001E0045
:1000B0001F0020002100220050002B0014001A0015
:1000C0000800150017005200E100040016000700A8
:1000D00009000A005100E0001D001B000600190085
:1000E00005004F00000000002F00300001512800E3
:1000F0002800000000004C0035002B004A000000E2
:100100005200230024002500260027002D00500067
:100110001C0018000C00120013002A0028000B001D
:100120000D000E000F0033003400510011001000CC
:1001300036003700380031004F002C0002512E02EB
:100140002E000000000000004D004C00E300E20023
:100150000000000035021E021F02200221022202BE
:10016000500001004B0052004E0001002F005200D1
:100170004A00500051004F004D002602510001007E
:10018000010001000100010001004F00000000001B
:100190000100010001000100280000000000010032
:1001A0000100010001000000520023022402250288
:1001B000260227024C002B0330005F006000610024
:1001C0002E020100280027025C005D005E002D0069
:1001D00031005100620059005A005B002E002D02D0
:1001E0002B010100010001000100000000000000DF
:1001F00001000100010001000000000045003A007C
:100200003B003C003D003E005000000001000100AA
:10021000010003002F00520002000100060005004B
:10022000040026025100010001000100010001004C
:1002300001004F000000000001000100010001006A
:100240002800000000000100010001000100000082
:1002500052003F0040004100420043004400500073
:100260003000010001000100010001002800270208
:100270000100010001000100A9005100010001007E
:1002800001000100A800AA004F00010001000100C8
:100290000100000000000000010001000100010059
:1002A000000000002C03440061006300740079002A
:1002B0006C002D004D0061006E00750066006F003F
:1002C00072006D00200028003500780036002900FB
:1002D00000000E037400730068006F007200740069
:1002E00000000403090409025400030100A0FA09F4
:1002F0000400000103010100092111010001224055
:10030000000705810308000A090401000103010236
:10031000000921110100012247000705820308009E
:100320000A09040200010300000009211101000173
:100330002232000705830320000A12011001000089
:1003400000084D4436350100010200010501098015
:10035000A101850319012AB700150126B7009501EF
:1003600075108100C0050C0901A101850419012A3D
:10037000A002150126A002950175108100C005019B
:100380000902A1010901A1000509190129081500A7
:100390002501950875018102050109300931158192
:1003A000257F95027508810609381581257F9501FD
:1003B00075088106050C0A38021581257F9501759F
:1003C000088106C0C005010906A101050719E02939
:1003D000E7150025019508750181029501750881D1
:1003E000010507190029FF150026FF00950675086D
:1003F00081000508190129059505750191029501EE
:1004000075039101C00011241FBECFEFDAE0DEBFFB
:10041000CDBF04B603FE27C08091B1029091B20215
:10042000A091B302B091B4028730904BA740B04B7B
:10043000D1F41092B1021092B2021092B302109253
:10044000B40214BE84B7877F84BF0FB6F894A89512
:1004500080916000886180936000109260000FBE00
:10046000E0E0F8E3099511E0A0E0B1E0EAE6FCE4A1
:1004700002C005900D92A03AB107D9F722E0A0EA98
:10048000B1E001C01D92A13BB207E1F70E94301F0D
:100490000C9404260C940000CF93DF9300D000D07E
:1004A0000F92CDB7DEB719828A836B834C832D837D
:1004B00024E630E045E050E0BE016F5F7F4F84E10D
:1004C0000E94280E0F900F900F900F900F90DF91C9
:1004D000CF910895CF93DF93282F261B330BE9018B
:1004E000249FC001259F900D349F900D1124829F61
:1004F000B001839F700D929F700D1124072E000C88
:10050000880B990B0E94C3242091000130910101B6
:1005100040910201509103010E9427250E948B24E3
:100520009B01D7FF04C022273327261B370BC901A5
:10053000DF91CF910895DC01FB01808191818038AA
:1005400091054CF08FE78C93808191818F579109B1
:1005500091838083089581382FEF92073CF481E8DE
:100560008C938081918181589F4FF2CF8C9311821F
:1005700010820895FB019081882319F09160908387
:1005800008959E7FFCCFDF92EF92FF920F931F930F
:10059000CF93DF9300D000D00F92CDB7DEB78C01A0
:1005A0007B010E946404D82E8823F1F0015F1109B9
:1005B00008301105C8F40E94070B3A834B835C8313
:1005C0006D8341E050E001C0440F0A95EAF7F7015E
:1005D00082818823B9F0422B5A816B817C818D8185
:1005E0000E94270B0E94D10A8D2D0F900F900F9023
:1005F0000F900F90DF91CF911F910F91FF90EF908F
:10060000DF90089540954223E7CF8093AF0108958E
:1006100020E040E060E080E80C944C02EF92FF9212
:100620000F931F93CF93DF93CDB7DEB72A970FB603
:10063000F894DEBF0FBECDBF7E0126E0E20EF11CB6
:1006400085E0F70111928A95E9F78091A5019091D3
:10065000A6010E943E1D893E9340D0F104E610E0C1
:1006600025E030E0A70164E084E10E944F0E892B71
:1006700009F09FC08A85811192C08091A4018111E7
:1006800027C0698588850E811F819091AF019923CC
:1006900009F466C041E050E00E946A022091A9017D
:1006A0003091AA01820F931F9093AA018093A90110
:1006B00041E050E0602F812F0E946A022091A70143
:1006C0003091A801820F931F9093A8018093A701F6
:1006D0008091A2019091A3010E943E1D069710F007
:1006E0001092A4010E94070B29833A834B835C83F9
:1006F0006D838A85BE016F5F7F4F881F8827881FA3
:100700000E94BA026DEA71E0CE0102960E949B023D
:100710006BEA71E0CE0103960E949B0269EA71E0E8
:10072000CE0105960E949B0267EA71E0CE01049615
:100730000E949B0249815A816B817C818D810E943C
:10074000270B0E94D10A2A960FB6F894DEBF0FBE7F
:10075000CDBFDF91CF911F910F91FF90EF90089542
:1007600045E050E00E946A022091AD013091AE0157
:10077000281B390B3093AE012093AD0145E050E0CA
:10078000602F812F0E946A022091AB013091AC0151
:10079000281B390B3093AC012093AB0199CF81E03A
:1007A0008093A4010E94261D9093A3018093A2012F
:1007B0008FCF0E94261D9093A6018093A50188CF1C
:1007C0000C944F0D8091B1012091B00190910401E2
:1007D0009F3F39F08F3F29F02F3F19F09FEF909303
:1007E0000401909104019F3F89F48F3F89F021110A
:1007F00021C0815F8093B1012091B2014091B0018D
:100800006091B101809104010C944C028F3F41F43E
:10081000211106C0992351F09F5090930401ECCF11
:10082000911108C02F3FD1F08F3F81F4215F2093B9
:10083000B001E2CF2F3F51F4882321F09111DCCF9A
:100840008F50D8CF9F3F41F0915FE7CF8111D4CF38
:10085000222391F29F3F81F62F50E9CF8823A1F305
:10086000EFCF8091B101882319F08F508093B101AF
:1008700080910401882319F08F50809304018091A6
:10088000B001882319F08F508093B0012091B201FC
:100890004091B0016091B101809104010C944C022F
:1008A0008091B2018F3F69F0815F8093B201209106
:1008B000B2014091B0016091B101809104010C94AA
:1008C0004C021092B201F3CF8730910558F4FC012D
:1008D000EA5FF94DDB0112969C910C94BC259111B5
:1008E0000E94E20381E008959923E1F30E945004FD
:1008F000F9CF9923B9F30E943104F4CF81E091112B
:1009000001C080E00E940503EDCF81EF992339F00B
:100910000E94A111E7CF82EFF9CF83EFF7CF0E94BA
:100920003012E0CFCF92DF92EF92FF926B017C0109
:1009300060915F0270916002809161029091620209
:100940000E947405813091F0882349F0823099F03B
:10095000C701B601FF90EF90DF90CF90089520E09F
:100960004BE860E08BE80E944C02F2CF20E04BE8BD
:1009700061E288E2F8CF20E045E161E281E0F3CF77
:1009800081E0089508950C94C2041F93CF93DF93E0
:1009900000D000D00F92CDB7DEB749835A836B8366
:1009A0003091EF0189819A8131111DC06623B9F020
:1009B0002223A9F00E94261A182F682F89819A8174
:1009C0000E94D21969817A81812F0F900F900F9028
:1009D0000F900F90DF91CF911F910C94D4050E943E
:1009E000FE19182FEFCF0E94261A69817A81EDCF68
:1009F000FC01262F408151816281738184810C9496
:100A0000C504CF93DF93EC0160E00E94F804BE01BF
:100A1000DF91CF910C94C3040E94D7070C94FC077C
:100A20000C94FF0708950E9402150E9412052FEFF3
:100A300084E39CE0215080409040E1F700C000003A
:100A40000C94B21D0F931F93CF93DF938C0161E041
:100A50000E94F804EC01B8010E94C3028823A9F1A6
:100A6000B801CE010E94B00B882379F1B801CE0104
:100A70000E94020C882349F1B801CE010E94250D85
:100A8000882319F1F8018281882361F0CB35FDE5D7
:100A9000DF0721F170F4C115ECE5DE07A1F0CF3DD1
:100AA000DC45C9F0C801DF91CF911F910F910C94E3
:100AB000C004CC358DE5D807A1F0CD35DD4591F7E3
:100AC0000E94CD1AEFCF0E94130580E0DF91CF91F5
:100AD0001F910F9108950E94401CF7CF0E94D61AD3
:100AE000E1CF0E94D91ADECFCF92DF92EF92FF9230
:100AF0006C01EE24FF2420E0C114D104E104F104D0
:100B000019F0C701B60120E1C72ED82EE92EFF2427
:100B1000C114D104E104F10419F0285FC701B60142
:100B20006B017C0154E0F694E794D794C7945A95EE
:100B3000D1F7C114D104E104F10419F02C5FC7010D
:100B4000B6016B017C0142E0F694E794D794C79418
:100B50004A95D1F7C114D104E104F10419F02E5FD4
:100B6000C701B6019695879577956795672B682B92
:100B7000692B09F02F5F822FFF90EF90DF90CF90CD
:100B8000089508950C94C10581E008950C94C4055E
:100B9000CF93C82F0E94C2058C2FCF910C94C6050D
:100BA00090E080E008950895972F70E027E0929FED
:100BB000600D711D1124FB0194E5899FE00DF11D6D
:100BC0001124EE0FFF1FE455FF4F85919491089576
:100BD000FC01EE0FFF1FEC55FD4F85919491089598
:100BE000CF93DF930E94D4050E94FC06EC0181158F
:100BF00020E5920708F041C0811530E4930708F022
:100C0000B4C0803E910518F5803C910508F09DC068
:100C1000883A910570F4853A910508F08EC08130CC
:100C20009105F9F00097E9F00497D8F4D0E0C0E01E
:100C300018C08F3B9105D0F7C85AD0E0CC0FDD1F0C
:100C4000C55EDE4F0990D881C02DD4640AC08115DD
:100C5000904258F4C11581E0D80718F4C83ED10578
:100C600028F7CE01DF91CF910895C11590E3D90700
:100C700008F071C0CE019F706AC0811525E592070A
:100C800058F5811534E5930708F09EC0811542E5BB
:100C9000940750F4C11581E5D80708F469C0DC2F2A
:100CA000CC27C16FD06ADDCF982F969596959E017F
:100CB00023703327C115D34508F077C0C1E0D0E0D9
:100CC00002C0CC0FDD1F2A95E2F720E2929FC001FF
:100CD0001124C82BD92B67C0C11589E5D807A8F402
:100CE000C11598E5D90708F074C0C11526E5D207EB
:100CF00008F09CCF8C2F0E949307C82FD0E0DC2FE8
:100D0000CC27CC27DF71D062ACCFC1153AE5D30731
:100D100008F464C0CE0190568115904208F086CF49
:100D20008D2F8F710E94930790E0982F8827882736
:100D30009F719C012C2BE901E6CFC55AD0E0C75B1F
:100D4000DE4FC881D0E0D0648CCF805C91090E94D6
:100D5000E805EC0186CFCE019927D3FF03C0EC0153
:100D6000D86C7FCFEC01D06C7CCFDF70D06A79CFAC
:100D7000CE01E4E096958795EA95E1F783702C2FF4
:100D800026952695237090E2299F90011124382BF7
:100D90008C2F8370C1E0D0E002C0CC0FDD1F8A959C
:100DA000E2F7C22BD32BDC685CCFC1E0D0E002C0FD
:100DB000CC0FDD1F2A95E2F730E2939FC00111248A
:100DC000C82BD92BDA684DCFD82FCC27C46FD06A67
:100DD00048CFDC2FCC27C06FD06A43CF8C2F8F70C9
:100DE0000E94930734E0D695C7953A95E1F7CF7006
:100DF0009C2FEC01D06935CF82389105B1F1B0F468
:100E00008133910509F475C048F48932910509F4DC
:100E100069C08A32910509F473C00895853391053C
:100E200009F459C08933910501F10895833E910574
:100E3000A9F138F4803E9105F9F0823E910549F11F
:100E40000895863E9105A9F1873E9105C9F1843E3A
:100E5000910519F52091810221FF1FC08091800228
:100E600084FD14C087EE90E00895209180022370E5
:100E7000A1F080EE90E008952091800220FD47C00F
:100E80003091810230FF09C024FF44C090E080E02F
:100E900004C02091800222FDF7CF089520918002A6
:100EA00022FD3BC03091810230FDE3CF24FFF5CF1E
:100EB000EDCF2091800223FFF0CF24FDE7CFD2CFEA
:100EC0002091800223FD2CC03091810231FFEECFB2
:100ED00084EE90E008952091800225FFDECF89E224
:100EE00090E008952091800225FFD7CF85E390E020
:100EF00008952091800226FFD0CF8AE290E00895E5
:100F00002091800226FFC9CF81E390E0089589E314
:100F100090E0089583EE90E0089582EE90E00895C9
:100F200086EE90E008959091800292FF06C0282FEF
:100F300028712830F9F4877F846093FF06C0282F3A
:100F400028712831F1F4877E84612091810220FF8D
:100F500006C0382F38713830D9F4877F816021FF7F
:100F600006C0282F28712831D1F4877E816194FD35
:100F7000877E0895282F24712430F9F68B7F8860AE
:100F8000DCCF282F2471243101F78B7E8861DDCFDF
:100F9000382F3171313019F78E7F8860E0CF282FDC
:100FA0002171213121F78E7E8861E1CF08950E9461
:100FB0009B1B811102C00E94401C0E94A61B8093B3
:100FC00074020E94AE1B90938102809380020E9463
:100FD000D6070E94AA1B682F70E090E080E00E9474
:100FE000D61860915F0270916002809161029091C9
:100FF00062020C940E1908950C94FB0708950C944A
:10100000FE07E82FF0E0E257FD4F80810895089534
:1010100080EA8A95F1F7089500C008950C940808B5
:10102000F894E82FE295EF70F0E031A1282F2F70AF
:1010300081E090E001C0880F2A95EAF7982F9095FB
:10104000932391A392A1892B82A378940895089564
:101050000C9427080F931F93CF93DF930E94B1093D
:10106000809105018091050196E0811190E09093B7
:101070009B0286E0891B80939A0286EF0E941008EB
:1010800087EF0E94100881E30E94100883E30E940A
:10109000100882E30E94100886E30E941008CCE446
:1010A000D1E003E511E089910E9410080C171D079B
:1010B000D1F7E2E8F2E0AEE8B2E011921D9282E0F0
:1010C000EE38F807D1F786E00E9460090E940C050F
:1010D000DF91CF911F910F910C94BB09FF920F9359
:1010E0001F93CF93DF9300D000D000D0CDB7DEB7F1
:1010F0000E949909F82E60919B02882309F451C03F
:101100008E010F5F1F4F86E0F80111928A95E9F773
:10111000862F90E0B80182579D4F0E94AA0E811140
:1011200023C08091B3018F5F8093B3018630B8F103
:10113000E0919A02F0E0E257FD4FD801CE01079608
:1011400011921D92A817B907D9F70E9410058F2D8B
:1011500026960FB6F894DEBF0FBECDBFDF91CF91BC
:101160001F910F91FF9008951092B301A0919A02E0
:10117000B0E0A257BD4F9E01295F3F4FF12C4D912A
:10118000F80191918F01491731F0AD01415051099A
:10119000FA019083F82E0217130789F7D6CFF12CA6
:1011A000D4CF70E062577D4F80919A0290E08257D1
:1011B0009D4F0E94D10E0E942808C9CFCF92DF9286
:1011C000EF92FF920F931F93CF93DF9303E511E00C
:1011D00082E8E82E82E0F82EC0E0CC24C394D12C23
:1011E000F80181918F01F894E82FE295EF70F0E01B
:1011F00021A18F70A60102C0440F551F8A95E2F706
:10120000CA01922F982B91A392A18095892382A342
:1012100078940E940C08ECE4F1E030E020E0D0E0AB
:101220004191A42FA295AF70B0E090968C9190E080
:101230004F7002C0959587954A95E2F780FD3CC0B6
:101240008C2D022E01C0880F0A94EAF7D82B2F5F4D
:101250003F4F2730310521F7F801319780810E94F7
:1012600010080E940E08F7018081D81739F1D08349
:1012700081E0C82BFFEFEF1AFF0A41E009351407A0
:1012800009F0AECF60919B0270E062577D4F2C2F2A
:1012900046E082E892E00E9461090E946E08C11156
:1012A00001C0C82F8C2FDF91CF911F910F91FF901C
:1012B000EF90DF90CF90089580E0C8CF80E0D9CF45
:1012C0000895FF920F931F93CF93DF93F82E092F6A
:1012D000162FD72FC42F222349F081E08093B60127
:1012E0000E94261D9093B5018093B4018091B601B0
:1012F0008823A1F08091B4019091B5010E943E1D18
:10130000069760F0EF2DF02FA12FBD2FCE0FDF2F0E
:10131000D11DEC17FD0741F41092B601DF91CF917A
:101320001F910F91FF90089581918D93F2CF0C94AE
:10133000421C8091B701811107C00E947E2488233E
:1013400051F081E08093B70181E09091B701913035
:1013500009F080E0089582E08093B7010E9479242B
:10136000F3CF0E949709809305010E94990981118A
:101370000C949E0E08950E949909811102C00C944C
:10138000A40E08950F931F9341E050E060E070E0D9
:101390008A019B0104C0000F111F221F331F8A9571
:1013A000D2F7C901B8010E94D6181F910F910C9471
:1013B00002158B3109F461C040F58B3071F078F47F
:1013C000863009F443C020F4853059F180E0089557
:1013D000873009F444C08830C9F781E0089580312E
:1013E00009F459C068F48E3089F790917402892FFE
:1013F0008B7F92FF84608093740282FD48C0EDCFA2
:10140000863159F3893149F3E1CF8A32E1F060F452
:101410008732A9F020F48E31C8F28D5111C0893283
:10142000A9F60E941305D9CF833438F48A33F0F536
:10143000853329F0883389F2C9CF833439F680E0C7
:101440000E94C209CACF0E94401CC7CF809174027B
:10145000807F8093740281E08093B8010895909119
:101460007402892F8E7F90FF81608093740280FDCB
:10147000B4CF817F80937402B0CF90917402892F92
:101480008D7F91FF82608093740281FFA6CF80914F
:1014900074028160EFCF90917402892F877F93FF50
:1014A00088608093740283FDF2CF97CF8953C8CFB1
:1014B00080E008950C94580ACF93C82F8091B8010A
:1014C000882331F0813099F01092B80180E00DC08E
:1014D0000E94DC1A8232D1F78C2F0E94580A8111A7
:1014E00016C08C2F0E94D9098170CF9108950E9457
:1014F000DC1A823289F38C2F0E945A0A811105C0AE
:10150000C43171F038F4CB3079F781E0EDCF81E070
:1015100090E0EACFC93221F0C833B9F380E0E4CFDC
:101520001092B801FBCFEF92FF920F931F93CF93CE
:10153000DF93CDB7DEB72A970FB6F894DEBF0FBEA4
:10154000CDBF6B837C838D83088719872A874E11D3
:1015500019C0552311F0F51215C08B81882319F09D
:10156000988598130FC08D81882319F09A85981358
:1015700009C09C81992321F081E02985291303C0AA
:1015800080E001C081E081702A960FB6F894DEBF3A
:101590000FBECDBFDF91CF911F910F91FF90EF90C4
:1015A0000895EF92FF920F931F93E090B901F0908E
:1015B000BA010091BB011091BC012091BD01409185
:1015C000BE015091BF016091C0017091C101809135
:1015D000C2010E94930A882321F08EEB91E00E94C1
:1015E0005A101092BF011092C0011092C1011092C6
:1015F000C20185E0EEEBF1E0A9EBB1E001900D92C4
:101600008A95E1F71F910F91FF90EF900895CF9386
:10161000DF9300D000D00F92CDB7DEB785E0EEEBC0
:10162000F1E0DE01119601900D928A95E1F7298192
:101630003A814B815C816D8170E080E090E00F9099
:101640000F900F900F900F90DF91CF910895CF934F
:10165000DF9300D000D00F92CDB7DEB749835A8315
:101660006B837C838D8385E0FE013196AEEBB1E028
:1016700001900D928A95E1F70F900F900F900F90C7
:101680000F90DF91CF9108950F931F93CF93DF9326
:10169000C42FD22FFC0182818823C9F04093C50159
:1016A0000E94261D9093C4018093C30180E28C0F99
:1016B000883008F050C0C77081E001C0880FCA951B
:1016C000EAF7DF91CF911F910F910C949E12109128
:1016D000C501141335C08091C3019091C4010E94CB
:1016E0003E1D883C910560F5C0E2CD0F1D17B9F095
:1016F00080E2810F883040F4177081E001C0880FCC
:101700001A95EAF70E94A512C83048F481E09D2F8F
:10171000977001C0880F9A95EAF70E949E12802F59
:101720000E949612C830B8F4D77081E001C0880FCB
:10173000DA95EAF7DF91CF911F910F910C94A512E2
:1017400080E28C0F883038F4C77081E001C0880FC8
:10175000CA95EAF7EFCFDF91CF911F910F910895CE
:101760000F939C01CB01243F4CE5340759F1A8F4B9
:10177000293DFCE53F0701F12A3D4CE53407D1F155
:10178000283D3C4591F406E221EE41EE68ED7CE512
:101790000E94440B80E00F910895263FFCE53F072F
:1017A000E9F0B0F0273F3C45F9F0FC018281882345
:1017B00039F11092C501EFCF07E225EE45EE69ED54
:1017C0007CE5E6CF06E221EE40EE64EF7CE5E0CF7B
:1017D00007E225EE44EE65EF7CE5DACF06E221EE86
:1017E00042EE66EF7CE5D4CF07E225EE46EE67EFEA
:1017F0007CE5CECF08E221E045EE6AED7CE5C8CF7E
:1018000081E0C9CFCF93DF93EC01FB018281882374
:1018100009F419C1C230FCE5DF07C0F1C6319CE50F
:10182000D90730F09E012B5F3C452930310570F51A
:101830000E94AE1B9093810280938002C031ECE540
:10184000DE0709F4CFC008F05BC0C8308CE5D807CC
:1018500009F4B6C088F5C430ECE5DE0709F4A8C089
:10186000C0F4C2308CE5D80709F49CC08091800296
:101870008260C330DC4509F498C080918002909169
:1018800081020E94BC1B0E94021580E0DF91CF9173
:101890000895809180028061C630ECE5DE0709F48E
:1018A00084C0809180028860C730DC4508F47DC028
:1018B00080918002806279C0CC308CE5D80709F431
:1018C00089C070F4809180028C60CA30ECE5DE073C
:1018D00009F46BC008F478C0809180028E7F65C0E7
:1018E000CE308CE5D80709F479C0809180028B7FD7
:1018F000CF30DC4508F459C0809180028F7E55C0FE
:10190000CC3FECE5DE0709F457C030F5C3318CE578
:10191000D80709F46FC078F4C131ECE5DE0709F4AB
:1019200065C0C231DC4509F0A8CF0E940215809144
:1019300080028F773AC0C5318CE5D80709F462C0C0
:1019400008F476C0809181028160CB3FDC4509F0CC
:1019500094CF8093810291CFC115FDE5DF0709F493
:101960004DC088F4809181028D7FCE3F9CE5D907E0
:1019700081F3809181028E7FCF3FDC4550F38091CF
:1019800081028360E6CFC230FDE5DF0709F459C06C
:1019900008F444C080E0C330DD4509F06ECF0E94FA
:1019A0004C1C6BCF8091800281608093800265CF58
:1019B000809180028460F9CF809181028260C9CFDA
:1019C000809180028064F1CF0E9402158091800294
:1019D0008068EBCF809180028D7FE7CF809180027D
:1019E000877FE3CF809180028F7DDFCF809180025F
:1019F0008F7BDBCF80918002837FD7CF8091810264
:101A00008C7FA7CF8091800282FB992790F921E0FB
:101A1000922790FB82F990FB83F9C7CF80918102D6
:101A2000982F909591708E7F892B90FB81F991CFA3
:101A30000E94021590918002892F97FB87F98058A8
:101A4000B4CF81E0ACCF81E021CFCF93DF93EB0126
:101A500086319C4511F50E94DC1A9A81992399F0F0
:101A60008A7A91E009F490E09093C601811109C04F
:101A700089E20E94961A0E942C1B80E0DF91CF9190
:101A8000089585E3F6CF8091C601811104C089E2F3
:101A90000E949D1AF0CF85E3FBCF81E0EFCF10923B
:101AA000B9008CE08093B8000895EF92FF920F93F5
:101AB0001F93CF93DF93182FEB011092BC0084EAA1
:101AC0008093BC000E94261D7C018091BC0087FF92
:101AD00027C08091B900887F883029F08091B900B3
:101AE000887F8031D9F51093BB0084E88093BC00D7
:101AF0000E94261D8C018091BC0087FF24C020918C
:101B0000B900287F90E080E02831B1F081E090E0DA
:101B1000203411F490E080E09195819591090CC0FA
:101B2000CF3FDC0791F20E94261D8E199F098C176A
:101B30009D0758F28EEF9FEFDF91CF911F910F918C
:101B4000FF90EF900895CF3FDC07A9F20E94261D79
:101B5000801B910B8C179D0770F2ECCF8FEF9FEFDE
:101B6000EBCF0F931F93CF93DF93EB018093BB00D9
:101B700084E88093BC000E94261D8C018091BC00EB
:101B800087FF11C02091B900287F81E090E02832C2
:101B900011F490E080E0919581959109DF91CF91CA
:101BA0001F910F910895CF3FDC0741F30E94261D3E
:101BB000801B910B8C179D0708F38EEF9FEFEECFE4
:101BC0000F931F93CF93DF93EC0184EC8093BC00C1
:101BD0000E94261D8C018091BC0087FF08C0809167
:101BE000BB0090E0DF91CF911F910F910895CF3FFF
:101BF000DC0789F30E94261D801B910B8C179D0723
:101C000050F38EEF9FEFEECF0F931F93CF93DF93A1
:101C1000EC0184E88093BC000E94261D8C01809119
:101C2000BC0087FF08C08091BB0090E0DF91CF919E
:101C30001F910F910895CF3FDC0789F30E94261D65
:101C4000801B910B8C179D0750F38EEF9FEFEECF0B
:101C5000CF92DF92EF92FF920F931F93CF93DF9378
:101C60006B018A017901B9010E94550DE6010C0D45
:101C70001D1DC017D10761F424E92093BC00DF913A
:101C8000CF911F910F91FF90EF90DF90CF9008952B
:101C900097FDF2CFB70189910E94B10DEACFCF92A3
:101CA000DF92EF92FF920F931F93CF93DF93F82E63
:101CB000E62EEA016901B8010E94550D97FD15C095
:101CC000B8018E2D0E94B10D97FD0FC0B8018F2D68
:101CD00081600E94550DF12CE12C21E0C21AD1083F
:101CE000EC14FD0400F597FF11C024E92093BC001B
:101CF0001816190614F490E080E0DF91CF911F913F
:101D00000F91FF90EF90DF90CF900895C8010E944F
:101D1000E00D97FD04C0FE01EE0DFF1D80832FEF47
:101D2000E21AF20ADDCF97FDE0CFC8010E94040E4F
:101D300097FDDBCFCC0DDD1D8883D7CF61E070E050
:101D400086E091E00C94500F61E070E086E091E055
:101D50000C94570FCF93DF93D62FC72F0E94F10F0C
:101D60000097E9F4ED2FFC2FDC01A453BE4F2C911A
:101D70002193019686309105B9F70E94971D6E5FF9
:101D80007F4F8F4F9F4F6093C8017093C90180931D
:101D9000CA019093CB0181E0DF91CF91089580E05B
:101DA000FBCFCF93DF93D62FC72F6091C8017091DF
:101DB000C9018091CA019091CB010E947A1DED2F3B
:101DC000FC2F90E080E02191DC01A453BE4F2C93C6
:101DD000019686309105B9F7DF91CF9108958EE194
:101DE0004A9B02C08150E1F74A9BFECF08955A9862
:101DF00080E28A95F1F75A9A0895FC013BE03A9502
:101E0000F1F798E020E080E031E040E14A95F1F719
:101E1000880F4A9B02C08160232742E04A95F1F770
:101E2000000040E14A95F1F7915079F790E19A95D9
:101E3000F1F799B132E03A95F1F7000040E14A95A7
:101E4000F1F792FB992790F992272081920F9083C6
:101E50000895EF92FF920F931F93CF93DF930F920A
:101E6000CDB7DEB719828C017C01E60EF11C0E1590
:101E70001F0561F481E09981911180E00F90DF915D
:101E8000CF911F910F91FF90EF9008950E94EF0E58
:101E9000CE0101960E94FD0EF80181938F01E7CFDC
:101EA0009093D3018093D201529A5A9A08959093B5
:101EB000D3018093D20152985A9AEA9AE9E6F0E067
:101EC00080818F7C808308956150770B91E001C001
:101ED000990F6A95EAF720E031E0911108C02223BA
:101EE00091F05A9A80E28A95F1F75A980895492F0D
:101EF000482339F05A9A232740E24A95F1F79695FC
:101F0000ECCF5A98F9CF5A98EDCFFF920F931F93C9
:101F1000CF93DF93EC018C01060F111DC017D10781
:101F200031F4DF91CF911F910F91FF900895F990B7
:101F30000E94F70E68E08F2D0E94640FEFCF1F9272
:101F40000F920FB60F9211242F933F934F935F93ED
:101F50006F937F938F939F93AF93BF93CF93DF93B1
:101F6000EF93FF935A98529AC091D201D091D30126
:101F70006D81662321F08E819F810E94850F0E94D2
:101F8000F70E80E18A95F1F75A9852985A9A80E1B3
:101F90008A95F1F76A81662309F18B819C810E9401
:101FA000290FE881F981882311F088E001C082E0DF
:101FB00080830E94EF0EFF91EF91DF91CF91BF914F
:101FC000AF919F918F917F916F915F914F913F91D1
:101FD0002F910F900FBE0F901F901895E881F981F7
:101FE000E4CFCF93DF93C091D201D091D301F89485
:101FF000529A5A9885E08A95F1F7000052985A9AB9
:1020000080E28A95F1F74A9B0CC0529A5A9AE8816D
:10201000F98181E08083789481E090E0DF91CF9135
:1020200008956D81662381F08E819F810E94290F22
:1020300081110AC0529A5A9AE881F98182E080831C
:10204000789482E090E0EACF0E94EF0E80E28A95D9
:10205000F1F75A98529A80E18A95F1F76A816623DE
:1020600021F08B819C810E94850F0E94F70EE881F0
:10207000F9811082789490E080E0D0CF9093D901DC
:102080008093D8010895E091D801F091D90130975B
:1020900021F00190F081E02D099480E00895E09115
:1020A000D801F091D901309721F00280F381E02D21
:1020B00009940895E091D801F091D901309721F069
:1020C0000480F581E02D099408952091D601309186
:1020D000D7012817390771F09093D7018093D60163
:1020E000E091D801F091D901309721F00680F78175
:1020F000E02D099408952091D4013091D50128173D
:10210000390771F09093D5018093D401E091D80103
:10211000F091D901309721F00084F185E02D0994E8
:1021200008950E94321D6093EB017093EC0180933F
:10213000ED019093EE016093E7017093E8018093C5
:10214000E9019093EA01089585B7806885BF85B756
:10215000806885BF0895089508950C94AB100C9481
:10216000E0030E94A41089E99BE10E94C31D0E9424
:10217000AC100C94AD100C949909089508950E9428
:10218000BD100C94BE100E941D1D0E94711D0E9466
:102190002A080E9408030C94AF10AF92BF92CF920E
:1021A000DF92EF92FF920F931F93CF93DF93CDB700
:1021B000DEB72A970FB6F894DEBF0FBECDBF0E94E0
:1021C000DE0881110E9491108BEDA82E81E0B82EBF
:1021D00010E000E0C02E802F0E940108E82EF501DB
:1021E000F1905F01F81609F44DC08091740281FDF1
:1021F0000E9407088F2D8E25D12CFF24F394982F51
:102200009F21D9F10E94BB10882399F0DE82CF82F2
:10221000EF2081E009F480E088870E94261D81601C
:10222000782F9A8789874E815F8168858A850E9489
:102230006A11F801E552FE4F8081F826F0820E9473
:102240000E030E9443109091DA01891791F10E94C8
:1022500043108093DA012A960FB6F894DEBF0FBEC2
:10226000CDBFDF91CF911F910F91FF90EF90DF9045
:10227000CF90BF90AF900C94C805D394FF0CF7E0BB
:10228000DF12BDCF0F5F1F4F0C30110509F0A2CF39
:102290008FEF89838A831B820E94261D8160782F9D
:1022A0009D838C8349815A816B818D810E946A1143
:1022B000C6CF2A960FB6F894DEBF0FBECDBFDF9112
:1022C000CF911F910F91FF90EF90DF90CF90BF9033
:1022D000AF900895DF92EF92FF920F931F93CF93E9
:1022E000DF93CDB7DEB72B970FB6F894DEBF0FBEE6
:1022F000CDBF7A878B87F42E052F162FE72ED82E89
:1023000061110E94FC1A1E821D827E2DEC82DD82EC
:102310004F2D502F612F8D2D9E812B960FB6F89447
:10232000DEBF0FBECDBFDF91CF911F910F91FF9008
:10233000EF90DF900C94B417FC01808191810C9494
:10234000681ACF93C82F882309F488C08238C1F453
:102350000E94431081FD82C089E30E94961A0E9468
:102360002C1B2FEF81EE94E0215080409040E1F74C
:1023700000C0000089E30E949D1ACF910C942C1B91
:102380008338A1F40E94431080FD68C083E50E9459
:10239000961A0E942C1B2FEF81EE94E02150804072
:1023A0009040E1F700C0000083E5E5CF8438A1F458
:1023B0000E94431082FD52C087E40E94961A0E9438
:1023C0002C1B2FEF81EE94E0215080409040E1F7EC
:1023D00000C0000087E4CFCF8CEF8C0F813AB8F4B7
:1023E0008C2F0E945C0A811139C06C2F80910E01E4
:1023F00090910F010E94631C882329F08C2F0E946A
:102400009D1A0E942C1B8C2F0E94961AB6CF80E238
:102410008C0F883048F4C77081E001C0880FCA95DE
:10242000EAF70E94DF1AA9CFEBE5EC0FE33040F4A6
:10243000F0E0E357FE4F808190E0CF910C9465105F
:10244000C85AC73158F4EC2FF0E0EE0FFF1FE15AE5
:10245000FE4F80819181CF910C947B10CF91089594
:10246000882309F44BC0823871F40E94431081FF25
:1024700045C089E30E94961A0E942C1B89E30E94A2
:102480009D1A0C942C1B833859F40E94431080FF32
:1024900035C083E50E94961A0E942C1B83E5EFCF7E
:1024A000843859F40E94431082FF28C087E40E94B8
:1024B000961A0E942C1B87E4E2CF9CEF980F913A6A
:1024C000F0F290E2980F983050F4877091E001C0DC
:1024D000990F8A95EAF7892F0E94E51AD2CF9BE5DA
:1024E000980F933020F490E080E00C946510885AA7
:1024F000873120F490E080E00C947B1008951F93C6
:10250000CF93DF93182FEB010E94A111209731F494
:10251000812FDF91CF911F910C9430128FE99FE0B2
:102520000197F1F700C000002197F0CF70E060E064
:10253000893311F460E570E00C947F12882321F058
:102540000E94DF1A0C942C1B0895882321F00E940E
:10255000E51A0C942C1B0895BF92CF92DF92EF9254
:10256000FF920F931F93CF93DF937C01D62FC72F3A
:10257000FC011281058102950F700E94B41AD82EB9
:102580008823A1F0D12E112389F08C2F807F8034F5
:1025900029F080E28D0FD12C883040F082E00E943B
:1025A0007D1B0E94B41A91E0D82ED926CC2EC2945D
:1025B0009FE0C922EC2DF0E0E35FF94D0C94BC25BF
:1025C0000C2F0F70C07F11F00295007F1123A9F02E
:1025D000002359F080E28D0F883010F0D11109C02E
:1025E000802F0E94DF1A0E942C1B8D2F0E94A111A8
:1025F00014C0802F0E94EF1AF6CF8D2F0E94301248
:10260000002359F080E28D0F883010F0D1112CC0DA
:10261000802F0E94E51A0E942C1B2C2D2850330B72
:102620002430310520F40E9443100E94C805DD20AB
:1026300009F48DC10E94B01A80FD89C1F701128290
:102640000E94AA1A0E943619C7010E94C8140E944B
:10265000AA1ADF91CF911F910F91FF90EF90DF9019
:10266000CF90BF900C945719802F0E94F51AD3CFAA
:10267000FC2FFF70BF2EC07FC03219F0B29480EFE4
:10268000B822DD2339F0D13019F1112361F1002393
:1026900021F1ABCF112381F0011106C00E940F1B65
:1026A0008B290E949E12B9CF0130C1F70E940F1BE7
:1026B0008B290E94151BB1CF011106C00E94221B5D
:1026C0008B2D0E94A512A9CF013009F4A6CFF6CF19
:1026D000112329F0063008F0A0CF8B2DE2CF053072
:1026E00008F09BCFEDCF002359F3D93349F42FEFF6
:1026F00037EE83E0215030408040E1F700C0000019
:102700008D2F0E94301289CF8C2F869586958370ED
:1027100069F0813009F081CF8D2F9C2F93701111BA
:1027200002C090E080E00E947B1077CF8D2F9C2F1D
:102730009370111102C090E080E00E9465106DCF8F
:102740008C2F837009F041C0111167CF4D2F429536
:1027500046954770440F440F0D2F0F7010E030E086
:1027600020E0042E04C0000F111F221F331F0A9403
:10277000D2F760E070E0CB01D4FF0FC06FE070E0F3
:1027800080E090E004C0660F771F881F991F4A956C
:10279000D2F76095709580959095C695C695C37053
:1027A000602B712B822B932BC23049F058F4C1302F
:1027B00019F00E94EA1831CF0E94D8182ECF0E943B
:1027C000FC182BCF0E94D61828CF8695112311F024
:1027D0008C2F8170882309F420CF4D2F4295469588
:1027E0004770440F440F0D2F0F7010E030E020E0D1
:1027F000042E04C0000F111F221F331F0A94D2F7AA
:1028000060E070E0CB01D4FF0FC06FE070E080E0CB
:1028100090E004C0660F771F881F991F4A95D2F772
:102820006095709580959095C695C695C370602B00
:10283000712B822B932BC23049F058F4C13019F020
:102840000E94AD19EACE0E949B19E7CE0E94BF19E3
:10285000E4CE0E941019E1CECF70112329F08C2F05
:102860000E9436198D2F1DCF8D2F0E94A5128C2FFF
:102870000E945719D2CED23F89F160F4D03FC9F0FF
:10288000D13F29F1112309F442C00111AECE8C2FA2
:102890008F7121C0D33F39F1D43FA1F7112369F1E2
:1028A000CF718C2F0E94361963E08C2F0E94621B1F
:1028B000B4CE112341F0053008F0AFCE8C2F8F71CC
:1028C0000E947A19AACE063008F0A7CEF7CF8C2F37
:1028D0008F71112369F20E9436199FCE8C2F8F7150
:1028E0001123C9F3C5CF112329F08C2F8F710E94BA
:1028F000211993CE0E941C1990CE81E00E947D1B6D
:10290000023008F48ACE82E00E947D1B86CE00232E
:1029100059F0D93309F0F4CE9FEFE7EEF3E0915090
:10292000E040F040E1F7EACE8C2F8F71A1CF4C2F21
:102930004F706D2FC7010E94D0050E944E186DCEBA
:102940004C2F4F706D2FC7010E94D30566CEDF91CB
:10295000CF911F910F91FF90EF90DF90CF90BF909C
:1029600008950F931F93CF93DF93EC0168817981D2
:102970008A810E94721A8C010E94D1190E94D51876
:10298000B801CE01DF91CF911F910F910C94AC1241
:10299000CF93DF93EC018B819C81892B29F0888177
:1029A000998189238F3F59F4DF91CF910895CE010A
:1029B0000E94B114CE01DF91CF910C940105CE019C
:1029C0000E9422058111F3CF0E94B41A882361F37B
:1029D0008A81882349F382E0DF91CF910C947D1B9B
:1029E00090E080E00E94651090E080E00E947B1003
:1029F0000E94FC1A0E940C1B0C942C1B0E94A41A0F
:102A00000C94F0140E94EC1A0C94FE14E92FE29539
:102A1000EF70E250EE3070F4F0E0E35EF94D0C94AC
:102A2000BC25803F19F020F4883E20F481E0089511
:102A3000843FE1F380E00895883EC0F3813FD1F701
:102A4000F5CF93FB882780F908950E94681A0C94AB
:102A50000615CF93DF9300D000D00F92CDB7DEB72D
:102A60000F900F900F900F900F90DF91CF910895DE
:102A7000CF93DF9300D000D000D0CDB7DEB726963D
:102A80000FB6F894DEBF0FBECDBFDF91CF91089592
:102A90001F93CF93DF93C091F00116E08091F10175
:102AA0008C1304C0DF91CF911F910895D0E01C9F3B
:102AB000F0011D9FF00D1124EE50FE4F4081518119
:102AC00062817381848195810E9438152196C77037
:102AD000E5CF40912202509123026091240270912F
:102AE000250280912602909127020C94381520919E
:102AF000F0019091F10156E0291302C080E00895A1
:102B000030E0529FF001539FF00D1124EE50FE4F24
:102B10007181761306C07081781303C072817413BB
:102B200004C02F5F3F4F2770E7CF81E008951F93C8
:102B3000CF93DF9380912702807FA9F480912402B4
:102B4000882389F08091F001C091F1016091220207
:102B500070912302A0912502B0912602D62FD7238F
:102B600016E0C81304C0DF91CF911F91089590E043
:102B7000109711F0DF3F19F401968770F2CF189F7C
:102B80009001199F300D1124F901EE50FE4F418143
:102B90004713F2CF40814613EFCF42814111ECCF72
:102BA000438154814A1B5B0B483C510528F78091B7
:102BB00027028F70806180932702F901E950FE4F50
:102BC00080818F708061808382E292E00E94C814CD
:102BD000DF91CF911F910C9448158F929F92AF92E5
:102BE000BF92CF92DF92EF92FF920F931F93CF93FA
:102BF000DF93CDB7DEB761970FB6F894DEBF0FBE97
:102C0000CDBF8C0185E0F801DE011D9601900D928B
:102C10008A95E1F7D801EC901196FC9011971296E5
:102C2000CC90129782E2A82E82E0B82E4091250225
:102C3000509126024115510509F474C19091220268
:102C400020912302892F82238F3F09F46BC11396B1
:102C50008D909C901497D0902402F401E41BF50B06
:102C6000DD2009F40AC180912702382F307FE83C2B
:102C7000F10508F0C1C0311189C0DC2C2F1126C02C
:102C80009E1124C0C11022C08F70806180932702E2
:102C90000E946915C5010E94C81480912702D801BD
:102CA00015968C938D2D61960FB6F894DEBF0FBEEE
:102CB000CDBFDF91CF911F910F91FF90EF90DF90EB
:102CC000CF90BF90AF909F908F9008958114910402
:102CD00029F08F2D8E218F3F09F043C180E080FFC6
:102CE00015C04C2D6F2D8E2D0E947715882371F005
:102CF00082E292E00E94C81486E0E2E2F2E0DF01A4
:102D00001D928A95E9F70E9469153EC0892829F02D
:102D10008F2D8E218F3F09F021C180E0B82FB17037
:102D2000AB2E80FF29C04C2D6F2D8E2D0E94771564
:102D3000B82E811121C0ED86FE868D859E850E946C
:102D4000681A292F22952F70223050F0243078F401
:102D50009F7051F0F8019581907F31F4DB2CA2CF68
:102D60009F7011F08823D1F3805E8830B8F3C801DA
:102D70000E94C814BA2CF2CFCC2009F493CF8091D2
:102D80002702816080932702D12C8CCF2F1105C0A0
:102D90009E1103C0CC2009F48DC0ED86FE868D8582
:102DA0009E850E942515882319F1CC2009F1809178
:102DB0002702803270F0209122023091230238875E
:102DC0002F8319869B868A868C87CE0107960E9460
:102DD000C81486E0F801A2E2B2E001900D928A9553
:102DE000E1F70E9497150E946915DD24D3945ACF0C
:102DF000C8010E94C814F9CF311112C0782D998AE8
:102E0000888AA7016C2D89890E94291582E292E0A7
:102E10000E94C81486E0F50111928A95E9F773CFF4
:102E20002F110FC09E110DC0C1100BC015968C93B1
:102E3000C8010E94C81486E0F50111928A95E9F74D
:102E400031CFED86FE868D859E850E9425158823CF
:102E500079F2CC2069F280912702803208F4B9CF50
:102E600020912202309123023A8329831B829D8282
:102E70008C828E83CE010196AACFE83CF10508F042
:102E800043C0DC2CCC2009F4B3CF2F112CC09E11F1
:102E90002AC08091270280FD1DC0982F907FD1F01D
:102EA00015968C931597903F39F0982F907F905FEF
:102EB0008F70892B15968C93C8010E94C81486E0E8
:102EC000F801A2E2B2E001900D928A95E1F70E942A
:102ED0006915E8CE86E0F801A2E2B2E001900D9219
:102EE0008A95E1F7DFCEED86FE868D859E850E9470
:102EF000251581116ECF8091270281608093270272
:102F0000C8010E94C814CECE782D998A888AA7015C
:102F10006C2D89890E94291586E0F50111928A9508
:102F2000E9F7D5CFCC2009F463CFED86FE868D85F9
:102F30009E850E942515D82E882309F459CF86E056
:102F4000F801A2E2B2E001900D928A95E1F782E2E7
:102F500092E00E949C110E949715B9CF81E08C25C8
:102F6000DDCE81E08C25BBCE1F93CF93DF93CDB711
:102F7000DEB72C970FB6F894DEBF0FBECDBF4F83E0
:102F8000588769877A878B879C87CE0107960E942E
:102F9000ED15882369F08A859B85892B39F04F814F
:102FA0005885842F85238F3F09F071C016E05FC0DC
:102FB00086E0FE013796DE01119601900D928A950A
:102FC000E1F78A859B85892B89F38F8198858923F1
:102FD0008F3F61F32091F10130E0C90101968770C4
:102FE00099274091F0014817190671F40E940215C3
:102FF0001092F1011092F00186E0E2E2F2E0DF01CE
:103000001D928A95E9F7D2CF96E0929FD001939FC7
:10301000B00D1124AE50BE4FFE01319601900D92BD
:103020009A95E1F78093F1010E944815BFCF819FE7
:10303000C00111248E509E4F0E94ED158823E9F0A7
:10304000E091F0011E9FF0011124EE50FE4F4081EF
:10305000518162817381848195810E9438158091AC
:10306000F00190E00196877099278093F00180919C
:10307000F0019091F1018913DACF2C960FB6F894F4
:10308000DEBF0FBECDBFDF91CF911F91089569853F
:103090007A858B859C850E94381588CFEF92FF92A8
:1030A0000F931F93CF93DF938C01892B81F0F12C29
:1030B000EE24E394E8012196F8018491843770F4BA
:1030C000843008F05FC08130B1F08230A1F1DF912F
:1030D000CF911F910F91FF90EF900895853709F4DC
:1030E0004CC008F43DC09CE7980F903780F78F776D
:1030F0000E94301249C00E5F1F4FFE01849190E282
:10310000980F983060F48770FE2D01C0FF0F8A95EC
:10311000EAF78F2F0E94FF1A0E942C1B02C00E9408
:10312000A1118F2D815030F2EFE9FFE03197F1F7D7
:1031300000C00000F7CF0E5F1F4FFE01849190E2A8
:10314000980F983050F48770FE2D01C0FF0F8A95BC
:10315000EAF78F2F0E94051BDFCF0E943012E1CFCC
:103160000E5F1F4FFE01C491C150D8F28FE99FE05E
:103170000197F1F700C00000F7CF0E5F1F4FFE016F
:10318000F490CFCF0E94A1118E01CBCF08950C9463
:10319000C6180E94C71860936302709364028093FC
:1031A0006502909366020C94F01408950C94C9186B
:1031B0000F931F93009163021091640220916502A6
:1031C00030916602602B712B822B932B1F910F91F4
:1031D0000C94C9180F931F9300916302109164021D
:1031E000209165023091660260237123822393232C
:1031F0001F910F910C94C9180F931F9300916302B4
:103200001091640220916502309166026027712757
:10321000822793271F910F910C94C9180C94920444
:103220000E940E1960935F027093600280936102A6
:10323000909362020C94F01460E070E0CB010C9467
:1032400010190F931F9341E050E060E070E08A0195
:103250009B0104C0000F111F221F331F8A95D2F754
:10326000C901B8011F910F910C9410190F931F936E
:1032700041E050E060E070E004C0440F551F661F5D
:10328000771F8A95D2F780915F0290916002A0919A
:103290006102B09162028A019B01082B192B2A2B33
:1032A0003B2BC901B8011F910F910C9410190F937A
:1032B0001F9341E050E060E070E004C0440F551FF0
:1032C000661F771F8A95D2F7CB01BA01609570957A
:1032D0008095909500915F021091600220916102AB
:1032E0003091620260237123822393231F910F91F7
:1032F0000C9410190F931F9341E050E060E070E0D0
:1033000004C0440F551F661F771F8A95D2F780911E
:103310005F0290916002A0916102B09162028A0105
:103320009B01082719272A273B27C901B8011F91AC
:103330000F910C9410190F931F9300915F0210913D
:1033400060022091610230916202602B712B822B0E
:10335000932B1F910F910C9410190F931F930091B1
:103360005F0210916002209161023091620260233D
:103370007123822393231F910F910C9410190F93A3
:103380001F9300915F0210916002209161023091C1
:10339000620260277127822793271F910F910C9457
:1033A0001019089527E0929F800D1124982F97708F
:1033B00041E001C0440F9A95EAF786958695869577
:1033C00095E0899FF0011124E85DFD4F90E080E0D9
:1033D00070E05191DF0111979B01082E02C03695D4
:1033E00027950A94E2F72170219525272423252784
:1033F0002C9301968530910561F7089527E0929FFF
:10340000800D1124982F977086958695869525E0D6
:10341000829FF0011124E85DFD4F50E040E080E024
:10342000219130E0092E02C0369527950A94E2F7E3
:1034300021703327042E01C0220F0A94EAF7822B51
:103440004F5F5F4F4530510559F70895BF92CF92B6
:10345000DF92EF92FF920F931F93CF93DF938C0134
:10346000C0905F02D0906002E0906102F090620232
:103470008091630290916402A0916502B09166020E
:10348000C82AD92AEA2AFB2ACFE1D0E0BC2ED701EC
:10349000C6010C2E04C0B695A795979587950A94FA
:1034A000D2F780FD0EC0219788F7B12C8B2DDF91CC
:1034B000CF911F910F91FF90EF90DF90CF90BF9031
:1034C0000895B8018C2F0E94F005019761F3EECFAB
:1034D000CF93DF93EC010E94261ABE01DF91CF91BA
:1034E0000C94F0051F93CF93DF93EB019091EF01C4
:1034F000992331F0CB01DF91CF911F910C94681A81
:10350000882379F0CB010E94261A182F682FCE014C
:103510000E94D219BE01812FDF91CF911F910C948F
:10352000F005CB010E94FE19182FF4CF682F80916F
:103530000E0190910F010C94991C682F80910E013F
:1035400090910F010C949B1C80910E0190910F01A2
:103550000C949D1C809167028595859585950895AD
:10356000809167028770089590916702977081E05B
:1035700009F480E008959091810292FB222720F9BE
:10358000281751F080FB92F990938102809180027C
:10359000909181020C94BC1B08958091810282FB62
:1035A000882780F991E089270C94BB1A81E00C945C
:1035B000BB1A80E00C94BB1A80917302089590911D
:1035C0007302892B80937302089580959091730202
:1035D0009823909373020895109273020895909126
:1035E0007202892B809372020895809590917202E5
:1035F0009823909372020895109272020895909108
:103600007102892B809371020895809590917102C7
:1036100098239093710208951092710208958091F9
:103620006802089508950C94121B9091810292FDF6
:1036300008C090916802981721F0809368020C945A
:10364000131B089580916802882329F01092680264
:1036500080E00C94131B0895E0910E01F0910F018E
:10366000809173028083E0910E01F0910F018081BF
:1036700090917202892B8083E0910E01F0910F01ED
:10368000808190917102892B8083909168029923A7
:1036900081F0E0910E01F0910F018081892B8083F0
:1036A00080910E0190910F010E94511C81110E9486
:1036B000221B80910E0190910F010C944F100895E0
:1036C0000C945F1B9091810292FD10C098E0899F3D
:1036D00090011124622B609367020E943619809139
:1036E00067028595859585950C94601B0C94361919
:1036F0001092670280E00C94601B909167028095A5
:10370000892380936702282F277039F4282F082EE9
:10371000000C330B9217130621F49091810292FF53
:1037200007C08595859585950E9457190C94781B3F
:10373000089580E0089590E080E00E94CA2521E08D
:103740008A3E9E4F09F020E0822F089582E090E0AB
:103750000C94C22583E090E00C94C225CF9384E0C2
:1037600090E00E94C225C82F82E290E00E94C2250C
:10377000982F8C2FCF910895CF93C92F682F84E075
:1037800090E00E94D0256C2F82E290E0CF910C94C3
:10379000D025AB01BC018FE090E00C94E225AB0199
:1037A000BC0183E190E00C94E22560E070E0CB0185
:1037B0000C94CF1B60E070E0CB010E94C91B0C94FD
:1037C000D51B6AEE7EEF90E080E00E94EE2560E07F
:1037D00082E090E00E94D02560E083E090E00E94CB
:1037E000D02510926302109264021092650210922A
:1037F000660260E084E090E00E94D02560E082E212
:1038000090E00E94D02560E085E090E00E94D02505
:1038100060E086E090E00E94D0256FEF87E090E0C6
:103820000E94D02540E050E0BA0188E090E00E947C
:10383000E22560E08DE090E00E94D02540E050E07D
:10384000BA0188E190E00E94E22560E087E190E023
:103850000E94D02540E050E0BA018CE190E00E9447
:10386000E22570E060E080E290E00E94EE2540E01A
:1038700050E0BA0188E190E00E94E2250C94DA1B46
:103880000C94E11B8EE090E00E94C22591E0811132
:1038900001C090E0892F0895682F8EE090E00C948D
:1038A000D0259C012E5F3F4FAC01485F5F4F80E009
:1038B0002417350709F40895F90191919F0199237F
:1038C000B9F38F5FF5CF662349F0FC013296089675
:1038D0002191261729F0E817F907D1F780E008951C
:1038E00081E008959C01FC0132969FEF80E04191B8
:1038F000461751F09F3F19F4411101C0982F8F5F77
:103900008630A9F79F3F09F40895290F311D97FDCF
:103910003A95F90162830895FC0132960896219147
:10392000261303C0DF0111971C92E817F907B9F7B6
:1039300008950C94721C0C948C1C029626E0FC01D9
:1039400011922A95E9F70895089508950C94A51CFD
:103950008091A802843049F10E94A61C80E00E9458
:10396000C8051092750288E190E020E40FB6F89443
:10397000A895809360000FBE2093600083B7817F7D
:10398000846083BF83B7816083BF7894889583B751
:103990008E7F83BF0FB6F894A895809160008861F0
:1039A00080936000109260000FBE08950895CF9339
:1039B0000E94A41C0E94DE080E94D61CC0E08C2F2E
:1039C0000E940108811105C0CF5FCC30C1F7CF91B3
:1039D000089581E0FCCF08950C94EB1C0E94021521
:1039E0000E9443100E94C8050C94EC1C1F921FB645
:1039F0001F9211248F939F93AF93BF938091750271
:103A0000811113C080919C0290919D02A0919E0211
:103A1000B0919F024196A11DB11D80939C0290938D
:103A20009D02A0939E02B0939F02BF91AF919F9180
:103A30008F911F901FBE1F90189582E084BD93E068
:103A400095BD9AEF97BD80936E0008952FB7F894B7
:103A500080919C0290919D02A0919E02B0919F0244
:103A60002FBF08952FB7F89460919C0270919D022A
:103A700080919E0290919F022FBF08959C014FB7A5
:103A8000F89480919C0290919D02A0919E02B09129
:103A90009F024FBF821B930B089578941F921FB60D
:103AA0001F9211248F939F93AF93BF9380919C0299
:103AB00090919D02A0919E02B0919F020196A11D3E
:103AC000B11D80939C0290939D02A0939E02B0939F
:103AD0009F02BF91AF919F918F911F901FBE1F902A
:103AE00018951092A0021092A1021092A2021092B8
:103AF000A3020895CF92DF92EF92FF926B017C01B7
:103B00000E94990981110EC00E94321DC61AD70A5F
:103B1000E80AF90AC092A002D092A102E092A202A1
:103B2000F092A302FF90EF90DF90CF9008950F9353
:103B30001F930E949909882321F01F910F910C94E3
:103B4000321D0E94321D0091A0021091A10220910D
:103B5000A2023091A302600F711F821F931F1F9159
:103B60000F91089587E797E79093010880930008E5
:103B700088E19AE00FB6F894A895809360000FBE94
:103B800090936000FFCF9093A1018093A0010895CE
:103B900080917E020895CF93DF9300D00F92CDB72E
:103BA000DEB79091A802943019F589837B836A83EC
:103BB00083E08093E9008FEF9091E800815095FDBC
:103BC00006C095ED9A95F1F700008111F5CF80912F
:103BD000E80085FF0DC050E040E063E070E0CE01FA
:103BE00001960E94E81F8091E8008E778093E8009C
:103BF0000F900F900F90DF91CF910895BC0184E05A
:103C00000C94CB1DBC0183E00C94CB1D9C0182E085
:103C10008093E9009FEF8091E800915085FD06C0F8
:103C200085ED8A95F1F700009111F5CF8091E800BC
:103C300085FF0CC050E040E065E070E0C9010E94E3
:103C4000E81F8091E8008E778093E8000895CF9375
:103C5000DF93EC0181E08093E9008FEF9091E80021
:103C6000815095FD06C095ED9A95F1F70000811100
:103C7000F5CF8091E80085FF14C050E040E068E097
:103C800070E0CE010E94E81F8091E8008E7780935B
:103C9000E80088E0FE01A6E7B2E001900D928A9567
:103CA000E1F7DF91CF9108958091A702811109C0BA
:103CB0000E9478210E94D5218091E2008460809347
:103CC000E20008951092A7020895089508950895B6
:103CD00042E061EC81E00E94F42042E061EC82E08D
:103CE0000E94F42042E261EC83E00C94F420809185
:103CF000AA02833009F461C030F48130D1F18230FE
:103D000009F49DC008958A3009F489C08B3009F404
:103D10006FC0893009F050C08091A902813209F04A
:103D20004BC08091AD029091AE02009719F00297BE
:103D300009F042C08091E800877F8093E80080917D
:103D4000E80082FF35C09091F3008091F200029765
:103D500029F48091F1008B7F813021F48091F10072
:103D600080937E028091E8008B778093E8000C942A
:103D700028218091A902813AF9F48091E800877F97
:103D80008093E8008091AD029091AE02892B61F49E
:103D900068E086E792E070E00E9437208091E800BA
:103DA0008B778093E800089560E090E080E0F3CFA7
:103DB0008091A8028111C3CF08958091A902813A10
:103DC000D9F78091AD029091AE02892BA9F780912D
:103DD000E800877F8093E8008091E80080FFFCCFB7
:103DE00080911A018093F1008091E8008E77BDCF19
:103DF0008091A902813201F78091AD029091AE02CB
:103E0000892BD1F68091E800877F8093E8000E949B
:103E100028218091AB0280931A010C9402158091A5
:103E2000A902813249F68091E800877F8093E800FB
:103E30000E9428218091AC0280937F020895809196
:103E4000A902813A09F0B8CF8091E800877F80937A
:103E5000E8008091E80080FFFCCF80917F02C2CF14
:103E600084B7877F84BF0FB6F894A89580916000CF
:103E7000886180936000109260000FBE80E890E03F
:103E80000FB6F89480936100909361000FBE0E947A
:103E9000B1100E9478210E94D5218091E2008460B7
:103EA0008093E20078940E945E240E94C31080E117
:103EB00091E00E943E108091A802853099F00E9406
:103EC000CD100E94BF10F7CF0E94A81C8091A602BF
:103ED000882341F00E94D71C882321F00E94D21F22
:103EE0000E9402158091A802853071F30E94EE1C99
:103EF000E6CF0C947B1F292F33272330310521F186
:103F000068F42130310509F443C02230310509F449
:103F100044C090E080E030E020E026C0213231054E
:103F200051F122323105A9F76330710590F7FB0199
:103F3000EE0FFF1FED56FE4F2081318160577E4FFF
:103F4000FB01808190E010C099278130910581F0BC
:103F5000009729F00297E9F6E4EAF2E002C0E2EE07
:103F6000F2E0849190E09F01FA013183208308956B
:103F7000E2EDF2E0F6CF6330710558F6660F771F79
:103F8000FB01E756FE4F2081318189E090E0ECCFC4
:103F900082E190E02AE333E0E7CF84E590E026EE8B
:103FA00032E0E2CF80E189BD82E189BD09B400FE43
:103FB000FDCF8091D8008F7D8093D8008091E00064
:103FC00082608093E0008091E00081FDFCCF089545
:103FD000AF92BF92CF92DF92FF920F931F93CF9336
:103FE000DF936C01EB018A010E944721F82E8111B9
:103FF00023C00115110539F0F80180819181C81B9A
:10400000D90BC80ED91EB12CA12C2097A9F08091F4
:10401000E80085FD22C08091E8008E778093E8005B
:1040200001151105A1F0F80180819181A80EB91E3A
:10403000B182A08285E0F82E8F2DDF91CF911F9164
:104040000F91FF90DF90CF90BF90AF9008950E94A6
:1040500047218823D1F2F82EEFCFF60181916F012D
:104060008093F1002197FFEFAF1ABF0ACECFFC017A
:104070008091AF029091B00286179707A0F061156A
:10408000710529F49091E8009E779093E80090E004
:104090006115710551F4911108C08091E80082FF0B
:1040A00034C080E00895BC01F2CF8091A80288233B
:1040B000C1F18530C1F18091E80083FD30C080916D
:1040C000E80082FDEACF8091E80080FFE1CF809197
:1040D000F3002091F200382F6115710519F0283096
:1040E000310558F091E02830310509F090E0209139
:1040F000E8002E772093E800CBCF81918093F100E8
:10410000615071092F5F3F4FE7CF8091A80288234C
:1041100041F0853041F08091E80083FFBECF81E01F
:10412000089582E0089583E00895FC018091AF0234
:104130009091B00286179707A0F06115710529F4D8
:104140008091E8008E778093E80090E0611571051A
:1041500051F4911108C08091E80082FF35C080E0E1
:104160000895BC01F2CF8091A8028823C9F185305F
:10417000C9F18091E80083FD31C08091E80082FDA3
:10418000EACF8091E80080FFE1CF8091F300209199
:10419000F200382F6115710519F02830310558F0FB
:1041A00091E02830310509F090E08091E8008E77A9
:1041B0008093E800CBCF84918093F10031966150D9
:1041C00071092F5F3F4FE6CF8091A802882341F00D
:1041D000853041F08091E80083FFBDCF81E00895F4
:1041E00082E0089583E00895982F973028F08F702B
:1041F0008093E90081E008959093E900242F762FC1
:1042000050E0981731F07091EC002091ED00509142
:10421000F00021FD02C09F5FE8CF3091EB003E7FB0
:104220003093EB003091ED003D7F3093ED00309105
:10423000EB0031603093EB007093EC002093ED00C5
:104240005093F0002091EE0027FDE5CF80E0089527
:104250008091A90287FF13C08091E80082FF06C009
:104260008091E8008B778093E80004C08091A802D9
:104270008111F2CF08958091A8028823D9F380910B
:10428000E80080FFF8CF8091E8008E77ECCF209196
:10429000E4003091E50095E6A9012091EC00822F21
:1042A000817020FF06C08091E80080FF06C080E09A
:1042B00008952091E80022FD1AC08091A802882369
:1042C00089F0853089F08091EB0085FD0FC0209149
:1042D000E4003091E50042175307F9F29150E1F6FE
:1042E00084E0089582E0089583E0089581E00895D0
:1042F0000E94E6210E94EE21E0EEF0E080818160E4
:104300008083E8EDF0E080818F77808319BCA7ED92
:10431000B0E08C918E7F8C9380818F7E8083109211
:10432000A70208950F931F93CF93DF930E94E62176
:104330000E94EE21C8EDD0E088818F778883888144
:104340008068888388818F7D888319BC1092A80239
:104350001092A4021092A6021092A50200EE10E0A4
:10436000F80180818B7F808388818160888342E02F
:1043700060E080E00E94F420E1EEF0E080818E7F3A
:104380008083E2EEF0E080818160808380818860BC
:104390008083F80180818E7F80838881806188831B
:1043A000DF91CF911F910F910895E8EDF0E08081AA
:1043B0008F7E8083E7EDF0E080818160808384E000
:1043C00082BF81E08093A7020C949221E8EDF0E097
:1043D00080818E7F80831092E20008951092DA002F
:1043E0001092E10008951F920F920FB60F921124C0
:1043F0002F933F934F935F936F937F938F939F93ED
:10440000AF93BF93EF93FF938091E10082FF0BC0C6
:104410008091E20082FF07C08091E1008B7F809352
:10442000E1000E945D248091DA0080FF19C0809134
:10443000D80080FF15C08091DA008E7F8093DA006B
:104440008091D90080FF96C080E189BD82E189BD5D
:1044500009B400FEFDCF81E08093A8020E94541EA3
:104460008091E10080FF19C08091E20080FF15C0BB
:104470008091E2008E7F8093E2008091E200806173
:104480008093E2008091D80080628093D80019BCAC
:1044900085E08093A8020E94661E8091E10084FF5F
:1044A0002BC08091E20084FF27C080E189BD82E1BA
:1044B00089BD89B5982F917080FFFBCF8091D8007E
:1044C0008F7D8093D8008091E1008F7E8093E10002
:1044D0008091E2008F7E8093E2008091E200816013
:1044E0008093E2008091A402882309F449C084E00B
:1044F0008093A8020E94671E8091E10083FF29C07B
:104500008091E20083FF25C08091E100877F809346
:10451000E10082E08093A8021092A4028091E10061
:104520008E7F8093E1008091E2008E7F8093E20095
:104530008091E20080618093E20042E060E080E0F0
:104540000E94F4208091F00088608093F0000E9427
:10455000651EFF91EF91BF91AF919F918F917F91D8
:104560006F915F914F913F912F910F900FBE0F90E0
:104570001F90189519BC1092A8020E94621E70CF5D
:104580008091E30087FD93E09093A802B3CF1F9240
:104590000F920FB60F9211242F933F934F935F9377
:1045A0006F937F938F939F93AF93BF93CF93DF933B
:1045B000EF93FF93D091E900DF708091EC00C82F5A
:1045C000C17080FDC0E81092E9008091F000877F03
:1045D0008093F00078940E940B231092E900809160
:1045E000F00088608093F000CD2BCF70C093E9007D
:1045F000FF91EF91DF91CF91BF91AF919F918F91FB
:104600007F916F915F914F913F912F910F900FBECE
:104610000F901F9018951F93CF93DF93CDB7DEB700
:10462000AA970FB6F894DEBF0FBECDBF89EA92E01D
:104630002091F100FC012193CF01F2E0813B9F0723
:10464000B9F70E94771E8091E80083FF1EC1809118
:10465000A9029091AA029A3008F017C1E92FF0E060
:10466000E55DF94D0C94BC25803899F0823809F04D
:104670000CC18091AD028F70873008F006C1809325
:10468000E9008091EB0085FB882780F91092E90012
:1046900006C08091A5029091A6029111826090912E
:1046A000E800977F9093E8008093F1001092F1006A
:1046B0008091E8008E77E5C0882309F4D3C082306A
:1046C00009F0E3C08091AB028111D6C08091AD02A8
:1046D0008F702FEF280F263008F0D7C08093E900A5
:1046E0002091EB0020FFC8C0933031F48091EB00A3
:1046F00080628093EB00C0C09091EB00906190933A
:10470000EB0021E030E001C0220F8A95EAF7209308
:10471000EA001092EA008091EB008860EACF8111F4
:10472000B4C01091AB021F778091E3008078812B99
:104730008093E3008091E800877F8093E8000E94E7
:1047400028218091E80080FFFCCF8091E300806801
:104750008093E30082E0111183E08093A80295C06A
:104760008058823008F091C08091AB029091AC02E9
:104770008C3D23E09207A1F583E08A838AE2898356
:104780004FB7F894DE01139620E03EE051E2E32FAC
:10479000F0E050935700E49120FF03C0E295EF70E2
:1047A0003F5FEF708E2F90E0EA30C0F0C7968D9398
:1047B0009D932F5F243159F74FBF8091E800877F89
:1047C0008093E8006AE270E0CE0101960E943720F3
:1047D0008091E8008B778093E80057C0C096E7CFC0
:1047E0006091AD027091AE02AE014F5F5F4F0E94CB
:1047F000791FBC01892B09F448C09091E800977F8C
:104800009093E80089819A810E949520E1CF8038B9
:10481000E1F58091E800877F8093E8008091A40211
:104820008093F10045CF811130C09091AB0292305E
:1048300060F58091E800877F8093E8009093A40260
:104840000E9428218091A402882311F084E005C0F1
:104850008091E30087FDFACF81E08093A8020E9457
:10486000681E13C08091AB02813079F481E09330EF
:1048700009F080E08093A6021092E9008091E800A0
:10488000877F8093E8000E9428218091E80083FFC1
:104890000AC08091E800877F8093E8008091EB0058
:1048A00080628093EB00AA960FB6F894DEBF0FBE2D
:1048B000CDBFDF91CF911F9108950895CF9380913F
:1048C000A8028823A1F0C091E900CF709091EC007C
:1048D000892F817090FD80E8C82B1092E9008091AB
:1048E000E80083FD0E940B23CF70C093E900CF91B5
:1048F00008950E9478211092A8020895E8EDF0E052
:104900008081806180838AE18A95F1F700C080917F
:10491000D900817008950E9492246894B1110C947A
:10492000212508950E94062588F09F5798F0B92FF9
:104930009927B751B0F0E1F0660F771F881F991FD4
:104940001AF0BA95C9F714C0B13091F00E94202531
:10495000B1E008950C942025672F782F8827B85F41
:1049600039F0B93FCCF3869577956795B395D9F72C
:104970003EF490958095709561957F4F8F4F9F4F36
:104980000895E89409C097FB3EF490958095709542
:1049900061957F4F8F4F9F4F9923A9F0F92F96E98B
:1049A000BB279395F695879577956795B795F11100
:1049B000F8CFFAF4BB0F11F460FF1BC06F5F7F4F9D
:1049C0008F4F9F4F16C0882311F096E911C07723AF
:1049D00021F09EE8872F762F05C0662371F096E8B8
:1049E000862F70E060E02AF09A95660F771F881F87
:1049F000DAF7880F9695879597F9089557FD90589F
:104A0000440F551F59F05F3F71F04795880F97FB92
:104A1000991F61F09F3F79F087950895121613064C
:104A20001406551FF2CF4695F1DF08C0161617067B
:104A30001806991FF1CF86957105610508940895B0
:104A4000E894BB2766277727CB0197F908950E9442
:104A50003A250C94AB250E949D2538F00E94A42590
:104A600020F0952311F00C9494250C949A25112490
:104A70000C9421250E94FE2470F3959FC1F3950F9D
:104A800050E0551F629FF001729FBB27F00DB11DD2
:104A9000639FAA27F00DB11DAA1F649F6627B00D62
:104AA000A11D661F829F2227B00DA11D621F739F4B
:104AB000B00DA11D621F839FA00D611D221F749F59
:104AC0003327A00D611D231F849F600D211D822FA0
:104AD000762F6A2F11249F5750409AF0F1F08823C7
:104AE0004AF0EE0FFF1FBB1F661F771F881F9150F4
:104AF0005040A9F79E3F510580F00C9494250C94EA
:104B000021255F3FE4F3983ED4F38695779567952A
:104B1000B795F795E7959F5FC1F7FE2B880F911D1D
:104B20009695879597F9089597F99F6780E870E0C3
:104B300060E008959FEF80EC089500240A94161613
:104B4000170618060906089500240A94121613067B
:104B5000140605060895092E0394000C11F4882309
:104B600052F0BB0F40F4BF2B11F460FF04C06F5F25
:104B70007F4F8F4F9F4F0895EE0FFF1F0590F491C9
:104B8000E02D0994F999FECF92BD81BDF89A99273D
:104B900080B50895A8E1B0E042E050E00C94F6251D
:104BA000262FF999FECF92BD81BDF89A019700B4E6
:104BB000021639F01FBA20BD0FB6F894FA9AF99A86
:104BC0000FBE08950396272F0E94D1250E94D0255D
:104BD000252F0E94D125242F0C94D1250196272F13
:104BE0000E94D1250C94D025DC01CB01FC01F99960
:104BF000FECF06C0F2BDE1BDF89A319600B40D9229
:104C000041505040B8F70895F894FFCF6F047404F2
:104C100079047E0485048B048D04E012E0123813BD
:104C2000381384130D130D130D13A0132C143B1400
:104C30003B1497140D130D13A014111511151A150B
:104C40001A151C151A151A151A15111511152115F5
:104C50001A151A15211534235C2345245C23452499
:0A4C60008F23B023452407241324FA
:104C6A000000803FFF01C70104C80106CC016902A8
:104C7A00C81D271E061E021EFE1D01E200E900EAEB
:104C8A0000B500B600B700CD008301CC008A0192BE
:104C9A000194012102230224022502260227022A64
:104CAA0002B300B4006F007000818283946697C6D5
:104CBA00343595F6F731333236000000000000E251
:104CCA0000E900EA00B500B600B700CD008301CCC8
:104CDA00008A01920194012102230224022502265C
:104CEA000227022A02B300B4006F00700081828397
:104CFA00404732C5037E034C03F80211032A03001E
:00000001FF
